{
  "contractName": "Doodles",
  "abi": [
    {
      "inputs": [],
      "stateMutability": "nonpayable",
      "type": "constructor"
    },
    {
      "anonymous": false,
      "inputs": [
        {
          "indexed": true,
          "internalType": "address",
          "name": "owner",
          "type": "address"
        },
        {
          "indexed": true,
          "internalType": "address",
          "name": "approved",
          "type": "address"
        },
        {
          "indexed": true,
          "internalType": "uint256",
          "name": "tokenId",
          "type": "uint256"
        }
      ],
      "name": "Approval",
      "type": "event"
    },
    {
      "anonymous": false,
      "inputs": [
        {
          "indexed": true,
          "internalType": "address",
          "name": "owner",
          "type": "address"
        },
        {
          "indexed": true,
          "internalType": "address",
          "name": "operator",
          "type": "address"
        },
        {
          "indexed": false,
          "internalType": "bool",
          "name": "approved",
          "type": "bool"
        }
      ],
      "name": "ApprovalForAll",
      "type": "event"
    },
    {
      "anonymous": false,
      "inputs": [
        {
          "indexed": true,
          "internalType": "address",
          "name": "previousOwner",
          "type": "address"
        },
        {
          "indexed": true,
          "internalType": "address",
          "name": "newOwner",
          "type": "address"
        }
      ],
      "name": "OwnershipTransferred",
      "type": "event"
    },
    {
      "anonymous": false,
      "inputs": [
        {
          "indexed": true,
          "internalType": "address",
          "name": "from",
          "type": "address"
        },
        {
          "indexed": true,
          "internalType": "address",
          "name": "to",
          "type": "address"
        },
        {
          "indexed": true,
          "internalType": "uint256",
          "name": "tokenId",
          "type": "uint256"
        }
      ],
      "name": "Transfer",
      "type": "event"
    },
    {
      "inputs": [],
      "name": "MAX_PUBLIC_MINT",
      "outputs": [
        {
          "internalType": "uint256",
          "name": "",
          "type": "uint256"
        }
      ],
      "stateMutability": "view",
      "type": "function"
    },
    {
      "inputs": [],
      "name": "MAX_SUPPLY",
      "outputs": [
        {
          "internalType": "uint256",
          "name": "",
          "type": "uint256"
        }
      ],
      "stateMutability": "view",
      "type": "function"
    },
    {
      "inputs": [],
      "name": "PRICE_PER_TOKEN",
      "outputs": [
        {
          "internalType": "uint256",
          "name": "",
          "type": "uint256"
        }
      ],
      "stateMutability": "view",
      "type": "function"
    },
    {
      "inputs": [],
      "name": "PROVENANCE",
      "outputs": [
        {
          "internalType": "string",
          "name": "",
          "type": "string"
        }
      ],
      "stateMutability": "view",
      "type": "function"
    },
    {
      "inputs": [
        {
          "internalType": "address",
          "name": "to",
          "type": "address"
        },
        {
          "internalType": "uint256",
          "name": "tokenId",
          "type": "uint256"
        }
      ],
      "name": "approve",
      "outputs": [],
      "stateMutability": "nonpayable",
      "type": "function"
    },
    {
      "inputs": [
        {
          "internalType": "address",
          "name": "owner",
          "type": "address"
        }
      ],
      "name": "balanceOf",
      "outputs": [
        {
          "internalType": "uint256",
          "name": "",
          "type": "uint256"
        }
      ],
      "stateMutability": "view",
      "type": "function"
    },
    {
      "inputs": [
        {
          "internalType": "uint256",
          "name": "tokenId",
          "type": "uint256"
        }
      ],
      "name": "getApproved",
      "outputs": [
        {
          "internalType": "address",
          "name": "",
          "type": "address"
        }
      ],
      "stateMutability": "view",
      "type": "function"
    },
    {
      "inputs": [],
      "name": "isAllowListActive",
      "outputs": [
        {
          "internalType": "bool",
          "name": "",
          "type": "bool"
        }
      ],
      "stateMutability": "view",
      "type": "function"
    },
    {
      "inputs": [
        {
          "internalType": "address",
          "name": "owner",
          "type": "address"
        },
        {
          "internalType": "address",
          "name": "operator",
          "type": "address"
        }
      ],
      "name": "isApprovedForAll",
      "outputs": [
        {
          "internalType": "bool",
          "name": "",
          "type": "bool"
        }
      ],
      "stateMutability": "view",
      "type": "function"
    },
    {
      "inputs": [],
      "name": "name",
      "outputs": [
        {
          "internalType": "string",
          "name": "",
          "type": "string"
        }
      ],
      "stateMutability": "view",
      "type": "function"
    },
    {
      "inputs": [],
      "name": "owner",
      "outputs": [
        {
          "internalType": "address",
          "name": "",
          "type": "address"
        }
      ],
      "stateMutability": "view",
      "type": "function"
    },
    {
      "inputs": [
        {
          "internalType": "uint256",
          "name": "tokenId",
          "type": "uint256"
        }
      ],
      "name": "ownerOf",
      "outputs": [
        {
          "internalType": "address",
          "name": "",
          "type": "address"
        }
      ],
      "stateMutability": "view",
      "type": "function"
    },
    {
      "inputs": [],
      "name": "renounceOwnership",
      "outputs": [],
      "stateMutability": "nonpayable",
      "type": "function"
    },
    {
      "inputs": [
        {
          "internalType": "address",
          "name": "from",
          "type": "address"
        },
        {
          "internalType": "address",
          "name": "to",
          "type": "address"
        },
        {
          "internalType": "uint256",
          "name": "tokenId",
          "type": "uint256"
        }
      ],
      "name": "safeTransferFrom",
      "outputs": [],
      "stateMutability": "nonpayable",
      "type": "function"
    },
    {
      "inputs": [
        {
          "internalType": "address",
          "name": "from",
          "type": "address"
        },
        {
          "internalType": "address",
          "name": "to",
          "type": "address"
        },
        {
          "internalType": "uint256",
          "name": "tokenId",
          "type": "uint256"
        },
        {
          "internalType": "bytes",
          "name": "_data",
          "type": "bytes"
        }
      ],
      "name": "safeTransferFrom",
      "outputs": [],
      "stateMutability": "nonpayable",
      "type": "function"
    },
    {
      "inputs": [],
      "name": "saleIsActive",
      "outputs": [
        {
          "internalType": "bool",
          "name": "",
          "type": "bool"
        }
      ],
      "stateMutability": "view",
      "type": "function"
    },
    {
      "inputs": [
        {
          "internalType": "address",
          "name": "operator",
          "type": "address"
        },
        {
          "internalType": "bool",
          "name": "approved",
          "type": "bool"
        }
      ],
      "name": "setApprovalForAll",
      "outputs": [],
      "stateMutability": "nonpayable",
      "type": "function"
    },
    {
      "inputs": [],
      "name": "symbol",
      "outputs": [
        {
          "internalType": "string",
          "name": "",
          "type": "string"
        }
      ],
      "stateMutability": "view",
      "type": "function"
    },
    {
      "inputs": [
        {
          "internalType": "uint256",
          "name": "index",
          "type": "uint256"
        }
      ],
      "name": "tokenByIndex",
      "outputs": [
        {
          "internalType": "uint256",
          "name": "",
          "type": "uint256"
        }
      ],
      "stateMutability": "view",
      "type": "function"
    },
    {
      "inputs": [
        {
          "internalType": "address",
          "name": "owner",
          "type": "address"
        },
        {
          "internalType": "uint256",
          "name": "index",
          "type": "uint256"
        }
      ],
      "name": "tokenOfOwnerByIndex",
      "outputs": [
        {
          "internalType": "uint256",
          "name": "",
          "type": "uint256"
        }
      ],
      "stateMutability": "view",
      "type": "function"
    },
    {
      "inputs": [
        {
          "internalType": "uint256",
          "name": "tokenId",
          "type": "uint256"
        }
      ],
      "name": "tokenURI",
      "outputs": [
        {
          "internalType": "string",
          "name": "",
          "type": "string"
        }
      ],
      "stateMutability": "view",
      "type": "function"
    },
    {
      "inputs": [],
      "name": "totalSupply",
      "outputs": [
        {
          "internalType": "uint256",
          "name": "",
          "type": "uint256"
        }
      ],
      "stateMutability": "view",
      "type": "function"
    },
    {
      "inputs": [
        {
          "internalType": "address",
          "name": "from",
          "type": "address"
        },
        {
          "internalType": "address",
          "name": "to",
          "type": "address"
        },
        {
          "internalType": "uint256",
          "name": "tokenId",
          "type": "uint256"
        }
      ],
      "name": "transferFrom",
      "outputs": [],
      "stateMutability": "nonpayable",
      "type": "function"
    },
    {
      "inputs": [
        {
          "internalType": "address",
          "name": "newOwner",
          "type": "address"
        }
      ],
      "name": "transferOwnership",
      "outputs": [],
      "stateMutability": "nonpayable",
      "type": "function"
    },
    {
      "inputs": [
        {
          "internalType": "bool",
          "name": "_isAllowListActive",
          "type": "bool"
        }
      ],
      "name": "setIsAllowListActive",
      "outputs": [],
      "stateMutability": "nonpayable",
      "type": "function"
    },
    {
      "inputs": [
        {
          "internalType": "address[]",
          "name": "addresses",
          "type": "address[]"
        },
        {
          "internalType": "uint8",
          "name": "numAllowedToMint",
          "type": "uint8"
        }
      ],
      "name": "setAllowList",
      "outputs": [],
      "stateMutability": "nonpayable",
      "type": "function"
    },
    {
      "inputs": [
        {
          "internalType": "address",
          "name": "addr",
          "type": "address"
        }
      ],
      "name": "numAvailableToMint",
      "outputs": [
        {
          "internalType": "uint8",
          "name": "",
          "type": "uint8"
        }
      ],
      "stateMutability": "view",
      "type": "function"
    },
    {
      "inputs": [
        {
          "internalType": "uint8",
          "name": "numberOfTokens",
          "type": "uint8"
        }
      ],
      "name": "mintAllowList",
      "outputs": [],
      "stateMutability": "payable",
      "type": "function"
    },
    {
      "inputs": [
        {
          "internalType": "bytes4",
          "name": "interfaceId",
          "type": "bytes4"
        }
      ],
      "name": "supportsInterface",
      "outputs": [
        {
          "internalType": "bool",
          "name": "",
          "type": "bool"
        }
      ],
      "stateMutability": "view",
      "type": "function"
    },
    {
      "inputs": [
        {
          "internalType": "string",
          "name": "baseURI_",
          "type": "string"
        }
      ],
      "name": "setBaseURI",
      "outputs": [],
      "stateMutability": "nonpayable",
      "type": "function"
    },
    {
      "inputs": [
        {
          "internalType": "string",
          "name": "provenance",
          "type": "string"
        }
      ],
      "name": "setProvenance",
      "outputs": [],
      "stateMutability": "nonpayable",
      "type": "function"
    },
    {
      "inputs": [
        {
          "internalType": "uint256",
          "name": "n",
          "type": "uint256"
        }
      ],
      "name": "reserve",
      "outputs": [],
      "stateMutability": "nonpayable",
      "type": "function"
    },
    {
      "inputs": [
        {
          "internalType": "bool",
          "name": "newState",
          "type": "bool"
        }
      ],
      "name": "setSaleState",
      "outputs": [],
      "stateMutability": "nonpayable",
      "type": "function"
    },
    {
      "inputs": [
        {
          "internalType": "uint256",
          "name": "numberOfTokens",
          "type": "uint256"
        }
      ],
      "name": "mint",
      "outputs": [],
      "stateMutability": "payable",
      "type": "function"
    },
    {
      "inputs": [],
      "name": "withdraw",
      "outputs": [],
      "stateMutability": "nonpayable",
      "type": "function"
    }
  ],
  "bytecode": "0x60806040526000600c60006101000a81548160ff0219169083151502179055506000600e60006101000a81548160ff0219169083151502179055503480156200004757600080fd5b506040518060400160405280600781526020017f446f6f646c6573000000000000000000000000000000000000000000000000008152506040518060400160405280600681526020017f444f4f444c4500000000000000000000000000000000000000000000000000008152508160009080519060200190620000cc929190620001dc565b508060019080519060200190620000e5929190620001dc565b50505062000108620000fc6200010e60201b60201c565b6200011660201b60201c565b620002f1565b600033905090565b6000600a60009054906101000a900473ffffffffffffffffffffffffffffffffffffffff16905081600a60006101000a81548173ffffffffffffffffffffffffffffffffffffffff021916908373ffffffffffffffffffffffffffffffffffffffff1602179055508173ffffffffffffffffffffffffffffffffffffffff168173ffffffffffffffffffffffffffffffffffffffff167f8be0079c531659141344cd1fd0a4f28419497f9722a3daafe3b4186f6b6457e060405160405180910390a35050565b828054620001ea906200028c565b90600052602060002090601f0160209004810192826200020e57600085556200025a565b82601f106200022957805160ff19168380011785556200025a565b828001600101855582156200025a579182015b82811115620002595782518255916020019190600101906200023c565b5b5090506200026991906200026d565b5090565b5b80821115620002885760008160009055506001016200026e565b5090565b60006002820490506001821680620002a557607f821691505b60208210811415620002bc57620002bb620002c2565b5b50919050565b7f4e487b7100000000000000000000000000000000000000000000000000000000600052602260045260246000fd5b61480080620003016000396000f3fe6080604052600436106102045760003560e01c8063715018a611610118578063b88d4fde116100a0578063ddff5b1c1161006f578063ddff5b1c14610758578063e985e9c514610774578063eb8d2444146107b1578063f2fde38b146107dc578063ffe630b51461080557610204565b8063b88d4fde1461068c578063c04a2836146106b5578063c4e37095146106f2578063c87b56dd1461071b57610204565b8063833b9499116100e7578063833b9499146105c65780638da5cb5b146105f157806395d89b411461061c578063a0712d6814610647578063a22cb4651461066357610204565b8063715018a614610534578063718bc4af1461054b578063819b25ba146105745780638295784d1461059d57610204565b806332cb6b0c1161019b57806355f804b31161016a57806355f804b31461043b5780636352211e146104645780636373a6b1146104a157806365f13097146104cc57806370a08231146104f757610204565b806332cb6b0c146103935780633ccfd60b146103be57806342842e0e146103d55780634f6ccce7146103fe57610204565b806318160ddd116101d757806318160ddd146102d757806323b872dd1461030257806329fc6bae1461032b5780632f745c591461035657610204565b806301ffc9a71461020957806306fdde0314610246578063081812fc14610271578063095ea7b3146102ae575b600080fd5b34801561021557600080fd5b50610230600480360381019061022b9190613395565b61082e565b60405161023d919061392c565b60405180910390f35b34801561025257600080fd5b5061025b610840565b6040516102689190613947565b60405180910390f35b34801561027d57600080fd5b5061029860048036038101906102939190613428565b6108d2565b6040516102a591906138c5565b60405180910390f35b3480156102ba57600080fd5b506102d560048036038101906102d091906132d8565b610957565b005b3480156102e357600080fd5b506102ec610a6f565b6040516102f99190613c69565b60405180910390f35b34801561030e57600080fd5b50610329600480360381019061032491906131d2565b610a7c565b005b34801561033757600080fd5b50610340610adc565b60405161034d919061392c565b60405180910390f35b34801561036257600080fd5b5061037d600480360381019061037891906132d8565b610aef565b60405161038a9190613c69565b60405180910390f35b34801561039f57600080fd5b506103a8610b94565b6040516103b59190613c69565b60405180910390f35b3480156103ca57600080fd5b506103d3610b9a565b005b3480156103e157600080fd5b506103fc60048036038101906103f791906131d2565b610c65565b005b34801561040a57600080fd5b5061042560048036038101906104209190613428565b610c85565b6040516104329190613c69565b60405180910390f35b34801561044757600080fd5b50610462600480360381019061045d91906133e7565b610d1c565b005b34801561047057600080fd5b5061048b60048036038101906104869190613428565b610db2565b60405161049891906138c5565b60405180910390f35b3480156104ad57600080fd5b506104b6610e64565b6040516104c39190613947565b60405180910390f35b3480156104d857600080fd5b506104e1610ef2565b6040516104ee9190613c69565b60405180910390f35b34801561050357600080fd5b5061051e6004803603810190610519919061316d565b610ef7565b60405161052b9190613c69565b60405180910390f35b34801561054057600080fd5b50610549610faf565b005b34801561055757600080fd5b50610572600480360381019061056d919061336c565b611037565b005b34801561058057600080fd5b5061059b60048036038101906105969190613428565b6110d0565b005b3480156105a957600080fd5b506105c460048036038101906105bf9190613314565b611190565b005b3480156105d257600080fd5b506105db6112d8565b6040516105e89190613c69565b60405180910390f35b3480156105fd57600080fd5b506106066112e3565b60405161061391906138c5565b60405180910390f35b34801561062857600080fd5b5061063161130d565b60405161063e9190613947565b60405180910390f35b610661600480360381019061065c9190613428565b61139f565b005b34801561066f57600080fd5b5061068a6004803603810190610685919061329c565b61151b565b005b34801561069857600080fd5b506106b360048036038101906106ae9190613221565b61169c565b005b3480156106c157600080fd5b506106dc60048036038101906106d7919061316d565b6116fe565b6040516106e99190613c84565b60405180910390f35b3480156106fe57600080fd5b506107196004803603810190610714919061336c565b611754565b005b34801561072757600080fd5b50610742600480360381019061073d9190613428565b6117ed565b60405161074f9190613947565b60405180910390f35b610772600480360381019061076d9190613451565b611894565b005b34801561078057600080fd5b5061079b60048036038101906107969190613196565b611add565b6040516107a8919061392c565b60405180910390f35b3480156107bd57600080fd5b506107c6611b71565b6040516107d3919061392c565b60405180910390f35b3480156107e857600080fd5b5061080360048036038101906107fe919061316d565b611b84565b005b34801561081157600080fd5b5061082c600480360381019061082791906133e7565b611c7c565b005b600061083982611d12565b9050919050565b60606000805461084f90613f75565b80601f016020809104026020016040519081016040528092919081815260200182805461087b90613f75565b80156108c85780601f1061089d576101008083540402835291602001916108c8565b820191906000526020600020905b8154815290600101906020018083116108ab57829003601f168201915b5050505050905090565b60006108dd82611d8c565b61091c576040517f08c379a000000000000000000000000000000000000000000000000000000000815260040161091390613b09565b60405180910390fd5b6004600083815260200190815260200160002060009054906101000a900473ffffffffffffffffffffffffffffffffffffffff169050919050565b600061096282610db2565b90508073ffffffffffffffffffffffffffffffffffffffff168373ffffffffffffffffffffffffffffffffffffffff1614156109d3576040517f08c379a00000000000000000000000000000000000000000000000000000000081526004016109ca90613ba9565b60405180910390fd5b8073ffffffffffffffffffffffffffffffffffffffff166109f2611df8565b73ffffffffffffffffffffffffffffffffffffffff161480610a215750610a2081610a1b611df8565b611add565b5b610a60576040517f08c379a0000000000000000000000000000000000000000000000000000000008152600401610a5790613a89565b60405180910390fd5b610a6a8383611e00565b505050565b6000600880549050905090565b610a8d610a87611df8565b82611eb9565b610acc576040517f08c379a0000000000000000000000000000000000000000000000000000000008152600401610ac390613c09565b60405180910390fd5b610ad7838383611f97565b505050565b600e60009054906101000a900460ff1681565b6000610afa83610ef7565b8210610b3b576040517f08c379a0000000000000000000000000000000000000000000000000000000008152600401610b3290613969565b60405180910390fd5b600660008473ffffffffffffffffffffffffffffffffffffffff1673ffffffffffffffffffffffffffffffffffffffff168152602001908152602001600020600083815260200190815260200160002054905092915050565b61271081565b610ba2611df8565b73ffffffffffffffffffffffffffffffffffffffff16610bc06112e3565b73ffffffffffffffffffffffffffffffffffffffff1614610c16576040517f08c379a0000000000000000000000000000000000000000000000000000000008152600401610c0d90613b29565b60405180910390fd5b60004790503373ffffffffffffffffffffffffffffffffffffffff166108fc829081150290604051600060405180830381858888f19350505050158015610c61573d6000803e3d6000fd5b5050565b610c808383836040518060200160405280600081525061169c565b505050565b6000610c8f610a6f565b8210610cd0576040517f08c379a0000000000000000000000000000000000000000000000000000000008152600401610cc790613c29565b60405180910390fd5b60088281548110610d0a577f4e487b7100000000000000000000000000000000000000000000000000000000600052603260045260246000fd5b90600052602060002001549050919050565b610d24611df8565b73ffffffffffffffffffffffffffffffffffffffff16610d426112e3565b73ffffffffffffffffffffffffffffffffffffffff1614610d98576040517f08c379a0000000000000000000000000000000000000000000000000000000008152600401610d8f90613b29565b60405180910390fd5b80600d9080519060200190610dae929190612f32565b5050565b6000806002600084815260200190815260200160002060009054906101000a900473ffffffffffffffffffffffffffffffffffffffff169050600073ffffffffffffffffffffffffffffffffffffffff168173ffffffffffffffffffffffffffffffffffffffff161415610e5b576040517f08c379a0000000000000000000000000000000000000000000000000000000008152600401610e5290613ac9565b60405180910390fd5b80915050919050565b600b8054610e7190613f75565b80601f0160208091040260200160405190810160405280929190818152602001828054610e9d90613f75565b8015610eea5780601f10610ebf57610100808354040283529160200191610eea565b820191906000526020600020905b815481529060010190602001808311610ecd57829003601f168201915b505050505081565b600581565b60008073ffffffffffffffffffffffffffffffffffffffff168273ffffffffffffffffffffffffffffffffffffffff161415610f68576040517f08c379a0000000000000000000000000000000000000000000000000000000008152600401610f5f90613aa9565b60405180910390fd5b600360008373ffffffffffffffffffffffffffffffffffffffff1673ffffffffffffffffffffffffffffffffffffffff168152602001908152602001600020549050919050565b610fb7611df8565b73ffffffffffffffffffffffffffffffffffffffff16610fd56112e3565b73ffffffffffffffffffffffffffffffffffffffff161461102b576040517f08c379a000000000000000000000000000000000000000000000000000000000815260040161102290613b29565b60405180910390fd5b61103560006121f3565b565b61103f611df8565b73ffffffffffffffffffffffffffffffffffffffff1661105d6112e3565b73ffffffffffffffffffffffffffffffffffffffff16146110b3576040517f08c379a00000000000000000000000000000000000000000000000000000000081526004016110aa90613b29565b60405180910390fd5b80600e60006101000a81548160ff02191690831515021790555050565b6110d8611df8565b73ffffffffffffffffffffffffffffffffffffffff166110f66112e3565b73ffffffffffffffffffffffffffffffffffffffff161461114c576040517f08c379a000000000000000000000000000000000000000000000000000000000815260040161114390613b29565b60405180910390fd5b6000611156610a6f565b905060005b8281101561118b576111783382846111739190613d69565b6122b9565b808061118390613fd8565b91505061115b565b505050565b611198611df8565b73ffffffffffffffffffffffffffffffffffffffff166111b66112e3565b73ffffffffffffffffffffffffffffffffffffffff161461120c576040517f08c379a000000000000000000000000000000000000000000000000000000000815260040161120390613b29565b60405180910390fd5b60005b838390508110156112d25781600f6000868685818110611258577f4e487b7100000000000000000000000000000000000000000000000000000000600052603260045260246000fd5b905060200201602081019061126d919061316d565b73ffffffffffffffffffffffffffffffffffffffff1673ffffffffffffffffffffffffffffffffffffffff16815260200190815260200160002060006101000a81548160ff021916908360ff16021790555080806112ca90613fd8565b91505061120f565b50505050565b66045eadb112e00081565b6000600a60009054906101000a900473ffffffffffffffffffffffffffffffffffffffff16905090565b60606001805461131c90613f75565b80601f016020809104026020016040519081016040528092919081815260200182805461134890613f75565b80156113955780601f1061136a57610100808354040283529160200191611395565b820191906000526020600020905b81548152906001019060200180831161137857829003601f168201915b5050505050905090565b60006113a9610a6f565b9050600c60009054906101000a900460ff166113fa576040517f08c379a00000000000000000000000000000000000000000000000000000000081526004016113f190613b89565b60405180910390fd5b600582111561143e576040517f08c379a000000000000000000000000000000000000000000000000000000000815260040161143590613bc9565b60405180910390fd5b612710828261144d9190613d69565b111561148e576040517f08c379a0000000000000000000000000000000000000000000000000000000008152600401611485906139c9565b60405180910390fd5b348266045eadb112e0006114a29190613df0565b11156114e3576040517f08c379a00000000000000000000000000000000000000000000000000000000081526004016114da90613a49565b60405180910390fd5b60005b82811015611516576115033382846114fe9190613d69565b6122b9565b808061150e90613fd8565b9150506114e6565b505050565b611523611df8565b73ffffffffffffffffffffffffffffffffffffffff168273ffffffffffffffffffffffffffffffffffffffff161415611591576040517f08c379a000000000000000000000000000000000000000000000000000000000815260040161158890613a29565b60405180910390fd5b806005600061159e611df8565b73ffffffffffffffffffffffffffffffffffffffff1673ffffffffffffffffffffffffffffffffffffffff16815260200190815260200160002060008473ffffffffffffffffffffffffffffffffffffffff1673ffffffffffffffffffffffffffffffffffffffff16815260200190815260200160002060006101000a81548160ff0219169083151502179055508173ffffffffffffffffffffffffffffffffffffffff1661164b611df8565b73ffffffffffffffffffffffffffffffffffffffff167f17307eab39ab6107e8899845ad3d59bd9653f200f220920489ca2b5937696c3183604051611690919061392c565b60405180910390a35050565b6116ad6116a7611df8565b83611eb9565b6116ec576040517f08c379a00000000000000000000000000000000000000000000000000000000081526004016116e390613c09565b60405180910390fd5b6116f8848484846122d7565b50505050565b6000600f60008373ffffffffffffffffffffffffffffffffffffffff1673ffffffffffffffffffffffffffffffffffffffff16815260200190815260200160002060009054906101000a900460ff169050919050565b61175c611df8565b73ffffffffffffffffffffffffffffffffffffffff1661177a6112e3565b73ffffffffffffffffffffffffffffffffffffffff16146117d0576040517f08c379a00000000000000000000000000000000000000000000000000000000081526004016117c790613b29565b60405180910390fd5b80600c60006101000a81548160ff02191690831515021790555050565b60606117f882611d8c565b611837576040517f08c379a000000000000000000000000000000000000000000000000000000000815260040161182e90613b69565b60405180910390fd5b6000611841612333565b90506000815111611861576040518060200160405280600081525061188c565b8061186b846123c5565b60405160200161187c9291906138a1565b6040516020818303038152906040525b915050919050565b600061189e610a6f565b9050600e60009054906101000a900460ff166118ef576040517f08c379a00000000000000000000000000000000000000000000000000000000081526004016118e690613c49565b60405180910390fd5b600f60003373ffffffffffffffffffffffffffffffffffffffff1673ffffffffffffffffffffffffffffffffffffffff16815260200190815260200160002060009054906101000a900460ff1660ff168260ff161115611984576040517f08c379a000000000000000000000000000000000000000000000000000000000815260040161197b90613be9565b60405180910390fd5b6127108260ff16826119969190613d69565b11156119d7576040517f08c379a00000000000000000000000000000000000000000000000000000000081526004016119ce906139c9565b60405180910390fd5b348260ff1666045eadb112e0006119ee9190613df0565b1115611a2f576040517f08c379a0000000000000000000000000000000000000000000000000000000008152600401611a2690613a49565b60405180910390fd5b81600f60003373ffffffffffffffffffffffffffffffffffffffff1673ffffffffffffffffffffffffffffffffffffffff16815260200190815260200160002060008282829054906101000a900460ff16611a8a9190613e7e565b92506101000a81548160ff021916908360ff16021790555060005b8260ff16811015611ad857611ac5338284611ac09190613d69565b6122b9565b8080611ad090613fd8565b915050611aa5565b505050565b6000600560008473ffffffffffffffffffffffffffffffffffffffff1673ffffffffffffffffffffffffffffffffffffffff16815260200190815260200160002060008373ffffffffffffffffffffffffffffffffffffffff1673ffffffffffffffffffffffffffffffffffffffff16815260200190815260200160002060009054906101000a900460ff16905092915050565b600c60009054906101000a900460ff1681565b611b8c611df8565b73ffffffffffffffffffffffffffffffffffffffff16611baa6112e3565b73ffffffffffffffffffffffffffffffffffffffff1614611c00576040517f08c379a0000000000000000000000000000000000000000000000000000000008152600401611bf790613b29565b60405180910390fd5b600073ffffffffffffffffffffffffffffffffffffffff168173ffffffffffffffffffffffffffffffffffffffff161415611c70576040517f08c379a0000000000000000000000000000000000000000000000000000000008152600401611c67906139a9565b60405180910390fd5b611c79816121f3565b50565b611c84611df8565b73ffffffffffffffffffffffffffffffffffffffff16611ca26112e3565b73ffffffffffffffffffffffffffffffffffffffff1614611cf8576040517f08c379a0000000000000000000000000000000000000000000000000000000008152600401611cef90613b29565b60405180910390fd5b80600b9080519060200190611d0e929190612f32565b5050565b60007f780e9d63000000000000000000000000000000000000000000000000000000007bffffffffffffffffffffffffffffffffffffffffffffffffffffffff1916827bffffffffffffffffffffffffffffffffffffffffffffffffffffffff19161480611d855750611d8482612572565b5b9050919050565b60008073ffffffffffffffffffffffffffffffffffffffff166002600084815260200190815260200160002060009054906101000a900473ffffffffffffffffffffffffffffffffffffffff1673ffffffffffffffffffffffffffffffffffffffff1614159050919050565b600033905090565b816004600083815260200190815260200160002060006101000a81548173ffffffffffffffffffffffffffffffffffffffff021916908373ffffffffffffffffffffffffffffffffffffffff160217905550808273ffffffffffffffffffffffffffffffffffffffff16611e7383610db2565b73ffffffffffffffffffffffffffffffffffffffff167f8c5be1e5ebec7d5bd14f71427d1e84f3dd0314c0f7b2291e5b200ac8c7c3b92560405160405180910390a45050565b6000611ec482611d8c565b611f03576040517f08c379a0000000000000000000000000000000000000000000000000000000008152600401611efa90613a69565b60405180910390fd5b6000611f0e83610db2565b90508073ffffffffffffffffffffffffffffffffffffffff168473ffffffffffffffffffffffffffffffffffffffff161480611f7d57508373ffffffffffffffffffffffffffffffffffffffff16611f65846108d2565b73ffffffffffffffffffffffffffffffffffffffff16145b80611f8e5750611f8d8185611add565b5b91505092915050565b8273ffffffffffffffffffffffffffffffffffffffff16611fb782610db2565b73ffffffffffffffffffffffffffffffffffffffff161461200d576040517f08c379a000000000000000000000000000000000000000000000000000000000815260040161200490613b49565b60405180910390fd5b600073ffffffffffffffffffffffffffffffffffffffff168273ffffffffffffffffffffffffffffffffffffffff16141561207d576040517f08c379a000000000000000000000000000000000000000000000000000000000815260040161207490613a09565b60405180910390fd5b612088838383612654565b612093600082611e00565b6001600360008573ffffffffffffffffffffffffffffffffffffffff1673ffffffffffffffffffffffffffffffffffffffff16815260200190815260200160002060008282546120e39190613e4a565b925050819055506001600360008473ffffffffffffffffffffffffffffffffffffffff1673ffffffffffffffffffffffffffffffffffffffff168152602001908152602001600020600082825461213a9190613d69565b92505081905550816002600083815260200190815260200160002060006101000a81548173ffffffffffffffffffffffffffffffffffffffff021916908373ffffffffffffffffffffffffffffffffffffffff160217905550808273ffffffffffffffffffffffffffffffffffffffff168473ffffffffffffffffffffffffffffffffffffffff167fddf252ad1be2c89b69c2b068fc378daa952ba7f163c4a11628f55a4df523b3ef60405160405180910390a4505050565b6000600a60009054906101000a900473ffffffffffffffffffffffffffffffffffffffff16905081600a60006101000a81548173ffffffffffffffffffffffffffffffffffffffff021916908373ffffffffffffffffffffffffffffffffffffffff1602179055508173ffffffffffffffffffffffffffffffffffffffff168173ffffffffffffffffffffffffffffffffffffffff167f8be0079c531659141344cd1fd0a4f28419497f9722a3daafe3b4186f6b6457e060405160405180910390a35050565b6122d3828260405180602001604052806000815250612664565b5050565b6122e2848484611f97565b6122ee848484846126bf565b61232d576040517f08c379a000000000000000000000000000000000000000000000000000000000815260040161232490613989565b60405180910390fd5b50505050565b6060600d805461234290613f75565b80601f016020809104026020016040519081016040528092919081815260200182805461236e90613f75565b80156123bb5780601f10612390576101008083540402835291602001916123bb565b820191906000526020600020905b81548152906001019060200180831161239e57829003601f168201915b5050505050905090565b6060600082141561240d576040518060400160405280600181526020017f3000000000000000000000000000000000000000000000000000000000000000815250905061256d565b600082905060005b6000821461243f57808061242890613fd8565b915050600a826124389190613dbf565b9150612415565b60008167ffffffffffffffff811115612481577f4e487b7100000000000000000000000000000000000000000000000000000000600052604160045260246000fd5b6040519080825280601f01601f1916602001820160405280156124b35781602001600182028036833780820191505090505b5090505b60008514612566576001826124cc9190613e4a565b9150600a856124db9190614021565b60306124e79190613d69565b60f81b818381518110612523577f4e487b7100000000000000000000000000000000000000000000000000000000600052603260045260246000fd5b60200101907effffffffffffffffffffffffffffffffffffffffffffffffffffffffffffff1916908160001a905350600a8561255f9190613dbf565b94506124b7565b8093505050505b919050565b60007f80ac58cd000000000000000000000000000000000000000000000000000000007bffffffffffffffffffffffffffffffffffffffffffffffffffffffff1916827bffffffffffffffffffffffffffffffffffffffffffffffffffffffff1916148061263d57507f5b5e139f000000000000000000000000000000000000000000000000000000007bffffffffffffffffffffffffffffffffffffffffffffffffffffffff1916827bffffffffffffffffffffffffffffffffffffffffffffffffffffffff1916145b8061264d575061264c82612856565b5b9050919050565b61265f8383836128c0565b505050565b61266e83836129d4565b61267b60008484846126bf565b6126ba576040517f08c379a00000000000000000000000000000000000000000000000000000000081526004016126b190613989565b60405180910390fd5b505050565b60006126e08473ffffffffffffffffffffffffffffffffffffffff16612ba2565b15612849578373ffffffffffffffffffffffffffffffffffffffff1663150b7a02612709611df8565b8786866040518563ffffffff1660e01b815260040161272b94939291906138e0565b602060405180830381600087803b15801561274557600080fd5b505af192505050801561277657506040513d601f19601f8201168201806040525081019061277391906133be565b60015b6127f9573d80600081146127a6576040519150601f19603f3d011682016040523d82523d6000602084013e6127ab565b606091505b506000815114156127f1576040517f08c379a00000000000000000000000000000000000000000000000000000000081526004016127e890613989565b60405180910390fd5b805181602001fd5b63150b7a0260e01b7bffffffffffffffffffffffffffffffffffffffffffffffffffffffff1916817bffffffffffffffffffffffffffffffffffffffffffffffffffffffff19161491505061284e565b600190505b949350505050565b60007f01ffc9a7000000000000000000000000000000000000000000000000000000007bffffffffffffffffffffffffffffffffffffffffffffffffffffffff1916827bffffffffffffffffffffffffffffffffffffffffffffffffffffffff1916149050919050565b6128cb838383612bb5565b600073ffffffffffffffffffffffffffffffffffffffff168373ffffffffffffffffffffffffffffffffffffffff16141561290e5761290981612bba565b61294d565b8173ffffffffffffffffffffffffffffffffffffffff168373ffffffffffffffffffffffffffffffffffffffff161461294c5761294b8382612c03565b5b5b600073ffffffffffffffffffffffffffffffffffffffff168273ffffffffffffffffffffffffffffffffffffffff1614156129905761298b81612d70565b6129cf565b8273ffffffffffffffffffffffffffffffffffffffff168273ffffffffffffffffffffffffffffffffffffffff16146129ce576129cd8282612eb3565b5b5b505050565b600073ffffffffffffffffffffffffffffffffffffffff168273ffffffffffffffffffffffffffffffffffffffff161415612a44576040517f08c379a0000000000000000000000000000000000000000000000000000000008152600401612a3b90613ae9565b60405180910390fd5b612a4d81611d8c565b15612a8d576040517f08c379a0000000000000000000000000000000000000000000000000000000008152600401612a84906139e9565b60405180910390fd5b612a9960008383612654565b6001600360008473ffffffffffffffffffffffffffffffffffffffff1673ffffffffffffffffffffffffffffffffffffffff1681526020019081526020016000206000828254612ae99190613d69565b92505081905550816002600083815260200190815260200160002060006101000a81548173ffffffffffffffffffffffffffffffffffffffff021916908373ffffffffffffffffffffffffffffffffffffffff160217905550808273ffffffffffffffffffffffffffffffffffffffff16600073ffffffffffffffffffffffffffffffffffffffff167fddf252ad1be2c89b69c2b068fc378daa952ba7f163c4a11628f55a4df523b3ef60405160405180910390a45050565b600080823b905060008111915050919050565b505050565b6008805490506009600083815260200190815260200160002081905550600881908060018154018082558091505060019003906000526020600020016000909190919091505550565b60006001612c1084610ef7565b612c1a9190613e4a565b9050600060076000848152602001908152602001600020549050818114612cff576000600660008673ffffffffffffffffffffffffffffffffffffffff1673ffffffffffffffffffffffffffffffffffffffff168152602001908152602001600020600084815260200190815260200160002054905080600660008773ffffffffffffffffffffffffffffffffffffffff1673ffffffffffffffffffffffffffffffffffffffff168152602001908152602001600020600084815260200190815260200160002081905550816007600083815260200190815260200160002081905550505b6007600084815260200190815260200160002060009055600660008573ffffffffffffffffffffffffffffffffffffffff1673ffffffffffffffffffffffffffffffffffffffff16815260200190815260200160002060008381526020019081526020016000206000905550505050565b60006001600880549050612d849190613e4a565b9050600060096000848152602001908152602001600020549050600060088381548110612dda577f4e487b7100000000000000000000000000000000000000000000000000000000600052603260045260246000fd5b906000526020600020015490508060088381548110612e22577f4e487b7100000000000000000000000000000000000000000000000000000000600052603260045260246000fd5b906000526020600020018190555081600960008381526020019081526020016000208190555060096000858152602001908152602001600020600090556008805480612e97577f4e487b7100000000000000000000000000000000000000000000000000000000600052603160045260246000fd5b6001900381819060005260206000200160009055905550505050565b6000612ebe83610ef7565b905081600660008573ffffffffffffffffffffffffffffffffffffffff1673ffffffffffffffffffffffffffffffffffffffff168152602001908152602001600020600083815260200190815260200160002081905550806007600084815260200190815260200160002081905550505050565b828054612f3e90613f75565b90600052602060002090601f016020900481019282612f605760008555612fa7565b82601f10612f7957805160ff1916838001178555612fa7565b82800160010185558215612fa7579182015b82811115612fa6578251825591602001919060010190612f8b565b5b509050612fb49190612fb8565b5090565b5b80821115612fd1576000816000905550600101612fb9565b5090565b6000612fe8612fe384613cc4565b613c9f565b90508281526020810184848401111561300057600080fd5b61300b848285613f33565b509392505050565b600061302661302184613cf5565b613c9f565b90508281526020810184848401111561303e57600080fd5b613049848285613f33565b509392505050565b60008135905061306081614757565b92915050565b60008083601f84011261307857600080fd5b8235905067ffffffffffffffff81111561309157600080fd5b6020830191508360208202830111156130a957600080fd5b9250929050565b6000813590506130bf8161476e565b92915050565b6000813590506130d481614785565b92915050565b6000815190506130e981614785565b92915050565b600082601f83011261310057600080fd5b8135613110848260208601612fd5565b91505092915050565b600082601f83011261312a57600080fd5b813561313a848260208601613013565b91505092915050565b6000813590506131528161479c565b92915050565b600081359050613167816147b3565b92915050565b60006020828403121561317f57600080fd5b600061318d84828501613051565b91505092915050565b600080604083850312156131a957600080fd5b60006131b785828601613051565b92505060206131c885828601613051565b9150509250929050565b6000806000606084860312156131e757600080fd5b60006131f586828701613051565b935050602061320686828701613051565b925050604061321786828701613143565b9150509250925092565b6000806000806080858703121561323757600080fd5b600061324587828801613051565b945050602061325687828801613051565b935050604061326787828801613143565b925050606085013567ffffffffffffffff81111561328457600080fd5b613290878288016130ef565b91505092959194509250565b600080604083850312156132af57600080fd5b60006132bd85828601613051565b92505060206132ce858286016130b0565b9150509250929050565b600080604083850312156132eb57600080fd5b60006132f985828601613051565b925050602061330a85828601613143565b9150509250929050565b60008060006040848603121561332957600080fd5b600084013567ffffffffffffffff81111561334357600080fd5b61334f86828701613066565b9350935050602061336286828701613158565b9150509250925092565b60006020828403121561337e57600080fd5b600061338c848285016130b0565b91505092915050565b6000602082840312156133a757600080fd5b60006133b5848285016130c5565b91505092915050565b6000602082840312156133d057600080fd5b60006133de848285016130da565b91505092915050565b6000602082840312156133f957600080fd5b600082013567ffffffffffffffff81111561341357600080fd5b61341f84828501613119565b91505092915050565b60006020828403121561343a57600080fd5b600061344884828501613143565b91505092915050565b60006020828403121561346357600080fd5b600061347184828501613158565b91505092915050565b61348381613eb2565b82525050565b61349281613ec4565b82525050565b60006134a382613d26565b6134ad8185613d3c565b93506134bd818560208601613f42565b6134c68161410e565b840191505092915050565b60006134dc82613d31565b6134e68185613d4d565b93506134f6818560208601613f42565b6134ff8161410e565b840191505092915050565b600061351582613d31565b61351f8185613d5e565b935061352f818560208601613f42565b80840191505092915050565b6000613548602b83613d4d565b91506135538261411f565b604082019050919050565b600061356b603283613d4d565b91506135768261416e565b604082019050919050565b600061358e602683613d4d565b9150613599826141bd565b604082019050919050565b60006135b1602083613d4d565b91506135bc8261420c565b602082019050919050565b60006135d4601c83613d4d565b91506135df82614235565b602082019050919050565b60006135f7602483613d4d565b91506136028261425e565b604082019050919050565b600061361a601983613d4d565b9150613625826142ad565b602082019050919050565b600061363d601f83613d4d565b9150613648826142d6565b602082019050919050565b6000613660602c83613d4d565b915061366b826142ff565b604082019050919050565b6000613683603883613d4d565b915061368e8261434e565b604082019050919050565b60006136a6602a83613d4d565b91506136b18261439d565b604082019050919050565b60006136c9602983613d4d565b91506136d4826143ec565b604082019050919050565b60006136ec602083613d4d565b91506136f78261443b565b602082019050919050565b600061370f602c83613d4d565b915061371a82614464565b604082019050919050565b6000613732602083613d4d565b915061373d826144b3565b602082019050919050565b6000613755602983613d4d565b9150613760826144dc565b604082019050919050565b6000613778602f83613d4d565b91506137838261452b565b604082019050919050565b600061379b602283613d4d565b91506137a68261457a565b604082019050919050565b60006137be602183613d4d565b91506137c9826145c9565b604082019050919050565b60006137e1601b83613d4d565b91506137ec82614618565b602082019050919050565b6000613804602283613d4d565b915061380f82614641565b604082019050919050565b6000613827603183613d4d565b915061383282614690565b604082019050919050565b600061384a602c83613d4d565b9150613855826146df565b604082019050919050565b600061386d601883613d4d565b91506138788261472e565b602082019050919050565b61388c81613f1c565b82525050565b61389b81613f26565b82525050565b60006138ad828561350a565b91506138b9828461350a565b91508190509392505050565b60006020820190506138da600083018461347a565b92915050565b60006080820190506138f5600083018761347a565b613902602083018661347a565b61390f6040830185613883565b81810360608301526139218184613498565b905095945050505050565b60006020820190506139416000830184613489565b92915050565b6000602082019050818103600083015261396181846134d1565b905092915050565b600060208201905081810360008301526139828161353b565b9050919050565b600060208201905081810360008301526139a28161355e565b9050919050565b600060208201905081810360008301526139c281613581565b9050919050565b600060208201905081810360008301526139e2816135a4565b9050919050565b60006020820190508181036000830152613a02816135c7565b9050919050565b60006020820190508181036000830152613a22816135ea565b9050919050565b60006020820190508181036000830152613a428161360d565b9050919050565b60006020820190508181036000830152613a6281613630565b9050919050565b60006020820190508181036000830152613a8281613653565b9050919050565b60006020820190508181036000830152613aa281613676565b9050919050565b60006020820190508181036000830152613ac281613699565b9050919050565b60006020820190508181036000830152613ae2816136bc565b9050919050565b60006020820190508181036000830152613b02816136df565b9050919050565b60006020820190508181036000830152613b2281613702565b9050919050565b60006020820190508181036000830152613b4281613725565b9050919050565b60006020820190508181036000830152613b6281613748565b9050919050565b60006020820190508181036000830152613b828161376b565b9050919050565b60006020820190508181036000830152613ba28161378e565b9050919050565b60006020820190508181036000830152613bc2816137b1565b9050919050565b60006020820190508181036000830152613be2816137d4565b9050919050565b60006020820190508181036000830152613c02816137f7565b9050919050565b60006020820190508181036000830152613c228161381a565b9050919050565b60006020820190508181036000830152613c428161383d565b9050919050565b60006020820190508181036000830152613c6281613860565b9050919050565b6000602082019050613c7e6000830184613883565b92915050565b6000602082019050613c996000830184613892565b92915050565b6000613ca9613cba565b9050613cb58282613fa7565b919050565b6000604051905090565b600067ffffffffffffffff821115613cdf57613cde6140df565b5b613ce88261410e565b9050602081019050919050565b600067ffffffffffffffff821115613d1057613d0f6140df565b5b613d198261410e565b9050602081019050919050565b600081519050919050565b600081519050919050565b600082825260208201905092915050565b600082825260208201905092915050565b600081905092915050565b6000613d7482613f1c565b9150613d7f83613f1c565b9250827fffffffffffffffffffffffffffffffffffffffffffffffffffffffffffffffff03821115613db457613db3614052565b5b828201905092915050565b6000613dca82613f1c565b9150613dd583613f1c565b925082613de557613de4614081565b5b828204905092915050565b6000613dfb82613f1c565b9150613e0683613f1c565b9250817fffffffffffffffffffffffffffffffffffffffffffffffffffffffffffffffff0483118215151615613e3f57613e3e614052565b5b828202905092915050565b6000613e5582613f1c565b9150613e6083613f1c565b925082821015613e7357613e72614052565b5b828203905092915050565b6000613e8982613f26565b9150613e9483613f26565b925082821015613ea757613ea6614052565b5b828203905092915050565b6000613ebd82613efc565b9050919050565b60008115159050919050565b60007fffffffff0000000000000000000000000000000000000000000000000000000082169050919050565b600073ffffffffffffffffffffffffffffffffffffffff82169050919050565b6000819050919050565b600060ff82169050919050565b82818337600083830152505050565b60005b83811015613f60578082015181840152602081019050613f45565b83811115613f6f576000848401525b50505050565b60006002820490506001821680613f8d57607f821691505b60208210811415613fa157613fa06140b0565b5b50919050565b613fb08261410e565b810181811067ffffffffffffffff82111715613fcf57613fce6140df565b5b80604052505050565b6000613fe382613f1c565b91507fffffffffffffffffffffffffffffffffffffffffffffffffffffffffffffffff82141561401657614015614052565b5b600182019050919050565b600061402c82613f1c565b915061403783613f1c565b92508261404757614046614081565b5b828206905092915050565b7f4e487b7100000000000000000000000000000000000000000000000000000000600052601160045260246000fd5b7f4e487b7100000000000000000000000000000000000000000000000000000000600052601260045260246000fd5b7f4e487b7100000000000000000000000000000000000000000000000000000000600052602260045260246000fd5b7f4e487b7100000000000000000000000000000000000000000000000000000000600052604160045260246000fd5b6000601f19601f8301169050919050565b7f455243373231456e756d657261626c653a206f776e657220696e646578206f7560008201527f74206f6620626f756e6473000000000000000000000000000000000000000000602082015250565b7f4552433732313a207472616e7366657220746f206e6f6e20455243373231526560008201527f63656976657220696d706c656d656e7465720000000000000000000000000000602082015250565b7f4f776e61626c653a206e6577206f776e657220697320746865207a65726f206160008201527f6464726573730000000000000000000000000000000000000000000000000000602082015250565b7f507572636861736520776f756c6420657863656564206d617820746f6b656e73600082015250565b7f4552433732313a20746f6b656e20616c7265616479206d696e74656400000000600082015250565b7f4552433732313a207472616e7366657220746f20746865207a65726f2061646460008201527f7265737300000000000000000000000000000000000000000000000000000000602082015250565b7f4552433732313a20617070726f766520746f2063616c6c657200000000000000600082015250565b7f45746865722076616c75652073656e74206973206e6f7420636f727265637400600082015250565b7f4552433732313a206f70657261746f7220717565727920666f72206e6f6e657860008201527f697374656e7420746f6b656e0000000000000000000000000000000000000000602082015250565b7f4552433732313a20617070726f76652063616c6c6572206973206e6f74206f7760008201527f6e6572206e6f7220617070726f76656420666f7220616c6c0000000000000000602082015250565b7f4552433732313a2062616c616e636520717565727920666f7220746865207a6560008201527f726f206164647265737300000000000000000000000000000000000000000000602082015250565b7f4552433732313a206f776e657220717565727920666f72206e6f6e657869737460008201527f656e7420746f6b656e0000000000000000000000000000000000000000000000602082015250565b7f4552433732313a206d696e7420746f20746865207a65726f2061646472657373600082015250565b7f4552433732313a20617070726f76656420717565727920666f72206e6f6e657860008201527f697374656e7420746f6b656e0000000000000000000000000000000000000000602082015250565b7f4f776e61626c653a2063616c6c6572206973206e6f7420746865206f776e6572600082015250565b7f4552433732313a207472616e73666572206f6620746f6b656e2074686174206960008201527f73206e6f74206f776e0000000000000000000000000000000000000000000000602082015250565b7f4552433732314d657461646174613a2055524920717565727920666f72206e6f60008201527f6e6578697374656e7420746f6b656e0000000000000000000000000000000000602082015250565b7f53616c65206d7573742062652061637469766520746f206d696e7420746f6b6560008201527f6e73000000000000000000000000000000000000000000000000000000000000602082015250565b7f4552433732313a20617070726f76616c20746f2063757272656e74206f776e6560008201527f7200000000000000000000000000000000000000000000000000000000000000602082015250565b7f4578636565646564206d617820746f6b656e2070757263686173650000000000600082015250565b7f4578636565646564206d617820617661696c61626c6520746f2070757263686160008201527f7365000000000000000000000000000000000000000000000000000000000000602082015250565b7f4552433732313a207472616e736665722063616c6c6572206973206e6f74206f60008201527f776e6572206e6f7220617070726f766564000000000000000000000000000000602082015250565b7f455243373231456e756d657261626c653a20676c6f62616c20696e646578206f60008201527f7574206f6620626f756e64730000000000000000000000000000000000000000602082015250565b7f416c6c6f77206c697374206973206e6f74206163746976650000000000000000600082015250565b61476081613eb2565b811461476b57600080fd5b50565b61477781613ec4565b811461478257600080fd5b50565b61478e81613ed0565b811461479957600080fd5b50565b6147a581613f1c565b81146147b057600080fd5b50565b6147bc81613f26565b81146147c757600080fd5b5056fea2646970667358221220a53844624d81f2ac9d9e15aa8dd5cdc91c6d41346f5f061269389a78fbd4ef4964736f6c63430008030033",
  "immutableReferences": {},
  "source": "// SPDX-License-Identifier: MIT\r\n/*\r\n+ + + - - - - - - - - - - - - - - - - - - - - - - - - - - - ++ - - - - - - - - - - - - - - - - - - - - - - - - - - + + +\r\n+                                                                                                                      +\r\n+                                                                                                                      +\r\n.                                                                                                                      .\r\n.                                                    ####-                                                             .\r\n.                                        :*##:   .###-...:##                                                           .\r\n.                                        +#.:# :#+:........+#####+                                                     .\r\n.                                       .:#..#*=.................:#.                                                   .\r\n.                                     .#..*:.........:.........=-.-#                                                   .\r\n.                                      :+#-....:+**+^^+***__=**#:.*#                                                   .\r\n.                                      .#:.....:#              ^#.#                                                    .\r\n.                                      #:....-#^                 #                                                     .\r\n.                                      #-.....#    ++             +   ++                                               .\r\n.                                      .#.....+   +##+            .* +##+                                              .\r\n.                                       #.....#    ++  .######**.  #  ++                                               .\r\n.                                       #*  ^#^       *####--  ##. #                                                   .\r\n.                                      #:  #.         *####--  #*  #                                                   .\r\n.                                      #.   # :.       .###--  -# .+                                                   .\r\n.                                       #.   .#          ###--  # #                                                    .\r\n.                                        ^##^  #       .###--  =# *                                                    .\r\n.                                            #**#.     ###--  -*+**#                                                   .\r\n.                                            #***####**###--  +#****#                                                  .\r\n.                                           .##*********###--  #**##.                                                  .\r\n.                                          #************###--  #*****#                                                 .\r\n.                    ..:..                #*****#*******###--  #**#****###* *###                                       .\r\n.               .####*^^^^*###.          ##*****#******###--  #***#***#  :# #  :#                                      .\r\n.              :*             =#.        #******#*******##--  #***#***#  .# #  .#                 .####.               .\r\n.               ++#   ######.   #-  .*#####*****#*########--  #***#####  .# #  .#   .#######.   #*^   .^#+             .\r\n.                +#   #::::..#   #.#^^      ^#**#^       ^#- #**#^       .# #  .# +#^       ^# #+        #+            .\r\n.                .#   #      #   ##    .##.  .##.   .##.   # *#   .##.   .# #  .##.   -+#+.  # #   :######:            .\r\n.                .#   #     .#   #    #:::#   #.   #:::#   ###   #::::#  .# #  .##  :#####+  #.##     :...             .\r\n.                .#   #    .#.  :#   #   .#  .#   #    #   ##    #^   #  .# #  .##  .^     .##. *#+:.    .#            .\r\n.                .#   #####^    ##   #  :#.  .#   #  .#    ##    #   #.  .# #  .##   .=*######..##+###.   .#           .\r\n.                .#   ..      .###.   ###   .%#.   ###    *#-#    ###     # #  .##*   .      ####   ^     .#           .\r\n.                 #.   ..:-#####* #.      .*#  ##.      .##. :#._     _### ##.  #**#.     .:##. ##.     -##            .\r\n.                  ############*   =########    :########-     +#######^ ### ##### ^######++#^   ^#######+             .\r\n.                    ^*######*^      ^*##*^       ^*##*^         ^*###*^ ^##^ ^###^  ^*####*^      ^*##*^              .\r\n+                                                                                                                      +\r\n+                                                                                                                      +\r\n+ + + - - - - - - - - - - - - - - - - - - - - - - - - - - - ++ - - - - - - - - - - - - - - - - - - - - - - - - - - + + +\r\n*/\r\npragma solidity ^0.8.0;\r\n\r\nimport \"@openzeppelin/contracts/token/ERC721/ERC721.sol\";\r\nimport \"@openzeppelin/contracts/access/Ownable.sol\";\r\nimport \"@openzeppelin/contracts/token/ERC721/extensions/ERC721Enumerable.sol\";\r\n\r\ncontract Doodles is ERC721, ERC721Enumerable, Ownable {\r\n    string public PROVENANCE;\r\n    bool public saleIsActive = false;\r\n    string private _baseURIextended;\r\n\r\n    bool public isAllowListActive = false;\r\n    uint256 public constant MAX_SUPPLY = 10000;\r\n    uint256 public constant MAX_PUBLIC_MINT = 5;\r\n    uint256 public constant PRICE_PER_TOKEN = 0.00123 ether;\r\n\r\n    mapping(address => uint8) private _allowList;\r\n\r\n    constructor() ERC721(\"Doodles\", \"DOODLE\") {\r\n    }\r\n\r\n    function setIsAllowListActive(bool _isAllowListActive) external onlyOwner {\r\n        isAllowListActive = _isAllowListActive;\r\n    }\r\n\r\n    function setAllowList(address[] calldata addresses, uint8 numAllowedToMint) external onlyOwner {\r\n        for (uint256 i = 0; i < addresses.length; i++) {\r\n            _allowList[addresses[i]] = numAllowedToMint;\r\n        }\r\n    }\r\n\r\n    function numAvailableToMint(address addr) external view returns (uint8) {\r\n        return _allowList[addr];\r\n    }\r\n\r\n    function mintAllowList(uint8 numberOfTokens) external payable {\r\n        uint256 ts = totalSupply();\r\n        require(isAllowListActive, \"Allow list is not active\");\r\n        require(numberOfTokens <= _allowList[msg.sender], \"Exceeded max available to purchase\");\r\n        require(ts + numberOfTokens <= MAX_SUPPLY, \"Purchase would exceed max tokens\");\r\n        require(PRICE_PER_TOKEN * numberOfTokens <= msg.value, \"Ether value sent is not correct\");\r\n\r\n        _allowList[msg.sender] -= numberOfTokens;\r\n        for (uint256 i = 0; i < numberOfTokens; i++) {\r\n            _safeMint(msg.sender, ts + i);\r\n        }\r\n    }\r\n\r\n    function _beforeTokenTransfer(address from, address to, uint256 tokenId) internal override(ERC721, ERC721Enumerable) {\r\n        super._beforeTokenTransfer(from, to, tokenId);\r\n    }\r\n\r\n    function supportsInterface(bytes4 interfaceId) public view virtual override(ERC721, ERC721Enumerable) returns (bool) {\r\n        return super.supportsInterface(interfaceId);\r\n    }\r\n\r\n    function setBaseURI(string memory baseURI_) external onlyOwner() {\r\n        _baseURIextended = baseURI_;\r\n    }\r\n\r\n    function _baseURI() internal view virtual override returns (string memory) {\r\n        return _baseURIextended;\r\n    }\r\n\r\n    function setProvenance(string memory provenance) public onlyOwner {\r\n        PROVENANCE = provenance;\r\n    }\r\n\r\n    function reserve(uint256 n) public onlyOwner {\r\n      uint supply = totalSupply();\r\n      uint i;\r\n      for (i = 0; i < n; i++) {\r\n          _safeMint(msg.sender, supply + i);\r\n      }\r\n    }\r\n\r\n    function setSaleState(bool newState) public onlyOwner {\r\n        saleIsActive = newState;\r\n    }\r\n\r\n    function mint(uint numberOfTokens) public payable {\r\n        uint256 ts = totalSupply();\r\n        require(saleIsActive, \"Sale must be active to mint tokens\");\r\n        require(numberOfTokens <= MAX_PUBLIC_MINT, \"Exceeded max token purchase\");\r\n        require(ts + numberOfTokens <= MAX_SUPPLY, \"Purchase would exceed max tokens\");\r\n        require(PRICE_PER_TOKEN * numberOfTokens <= msg.value, \"Ether value sent is not correct\");\r\n\r\n        for (uint256 i = 0; i < numberOfTokens; i++) {\r\n            _safeMint(msg.sender, ts + i);\r\n        }\r\n    }\r\n\r\n    function withdraw() public onlyOwner {\r\n        uint balance = address(this).balance;\r\n        payable(msg.sender).transfer(balance);\r\n    }\r\n}",
  "sourcePath": "/Users/alexho/Documents/GitHub/plp-smart-contracts/contracts/ERC721_no_need_to_audit.sol",
  "compiler": {
    "name": "solc",
    "version": "0.8.3+commit.8d00100c.Emscripten.clang"
  },
  "schemaVersion": "3.4.4",
  "updatedAt": "2022-01-29T17:47:32.770Z",
  "devdoc": {
    "kind": "dev",
    "methods": {
      "approve(address,uint256)": {
        "details": "See {IERC721-approve}."
      },
      "balanceOf(address)": {
        "details": "See {IERC721-balanceOf}."
      },
      "getApproved(uint256)": {
        "details": "See {IERC721-getApproved}."
      },
      "isApprovedForAll(address,address)": {
        "details": "See {IERC721-isApprovedForAll}."
      },
      "name()": {
        "details": "See {IERC721Metadata-name}."
      },
      "owner()": {
        "details": "Returns the address of the current owner."
      },
      "ownerOf(uint256)": {
        "details": "See {IERC721-ownerOf}."
      },
      "renounceOwnership()": {
        "details": "Leaves the contract without owner. It will not be possible to call `onlyOwner` functions anymore. Can only be called by the current owner. NOTE: Renouncing ownership will leave the contract without an owner, thereby removing any functionality that is only available to the owner."
      },
      "safeTransferFrom(address,address,uint256)": {
        "details": "See {IERC721-safeTransferFrom}."
      },
      "safeTransferFrom(address,address,uint256,bytes)": {
        "details": "See {IERC721-safeTransferFrom}."
      },
      "setApprovalForAll(address,bool)": {
        "details": "See {IERC721-setApprovalForAll}."
      },
      "symbol()": {
        "details": "See {IERC721Metadata-symbol}."
      },
      "tokenByIndex(uint256)": {
        "details": "See {IERC721Enumerable-tokenByIndex}."
      },
      "tokenOfOwnerByIndex(address,uint256)": {
        "details": "See {IERC721Enumerable-tokenOfOwnerByIndex}."
      },
      "tokenURI(uint256)": {
        "details": "See {IERC721Metadata-tokenURI}."
      },
      "totalSupply()": {
        "details": "See {IERC721Enumerable-totalSupply}."
      },
      "transferFrom(address,address,uint256)": {
        "details": "See {IERC721-transferFrom}."
      },
      "transferOwnership(address)": {
        "details": "Transfers ownership of the contract to a new account (`newOwner`). Can only be called by the current owner."
      }
    },
    "version": 1
  },
  "userdoc": {
    "kind": "user",
    "methods": {},
    "version": 1
  }
}