{
  "contractName": "ERC721LendingPoolETH20_01",
  "abi": [
    {
      "anonymous": false,
      "inputs": [
        {
          "indexed": true,
          "internalType": "address",
          "name": "user",
          "type": "address"
        },
        {
          "indexed": true,
          "internalType": "address",
          "name": "erc721",
          "type": "address"
        },
        {
          "indexed": true,
          "internalType": "uint256",
          "name": "nftID",
          "type": "uint256"
        },
        {
          "indexed": false,
          "internalType": "uint256",
          "name": "liquidated_at",
          "type": "uint256"
        },
        {
          "indexed": false,
          "internalType": "address",
          "name": "liquidator",
          "type": "address"
        },
        {
          "indexed": false,
          "internalType": "uint256",
          "name": "reason",
          "type": "uint256"
        }
      ],
      "name": "Liquidation",
      "type": "event"
    },
    {
      "anonymous": false,
      "inputs": [
        {
          "indexed": true,
          "internalType": "address",
          "name": "user",
          "type": "address"
        },
        {
          "indexed": true,
          "internalType": "address",
          "name": "erc721",
          "type": "address"
        },
        {
          "indexed": true,
          "internalType": "uint256",
          "name": "nftID",
          "type": "uint256"
        },
        {
          "components": [
            {
              "internalType": "uint256",
              "name": "loanStartBlock",
              "type": "uint256"
            },
            {
              "internalType": "uint256",
              "name": "loanExpireTimestamp",
              "type": "uint256"
            },
            {
              "internalType": "uint32",
              "name": "interestBPS1000000XBlock",
              "type": "uint32"
            },
            {
              "internalType": "uint32",
              "name": "maxLTVBPS",
              "type": "uint32"
            },
            {
              "internalType": "uint256",
              "name": "borrowedWei",
              "type": "uint256"
            },
            {
              "internalType": "uint256",
              "name": "returnedWei",
              "type": "uint256"
            },
            {
              "internalType": "uint256",
              "name": "accuredInterestWei",
              "type": "uint256"
            },
            {
              "internalType": "uint256",
              "name": "repaidInterestWei",
              "type": "uint256"
            },
            {
              "internalType": "address",
              "name": "borrower",
              "type": "address"
            }
          ],
          "indexed": false,
          "internalType": "struct ERC721LendingPoolETH20_01.LoanTerms",
          "name": "loan",
          "type": "tuple"
        }
      ],
      "name": "LoanInitiated",
      "type": "event"
    },
    {
      "anonymous": false,
      "inputs": [
        {
          "indexed": true,
          "internalType": "address",
          "name": "user",
          "type": "address"
        },
        {
          "indexed": true,
          "internalType": "address",
          "name": "erc721",
          "type": "address"
        },
        {
          "indexed": true,
          "internalType": "uint256",
          "name": "nftID",
          "type": "uint256"
        },
        {
          "components": [
            {
              "internalType": "uint256",
              "name": "loanStartBlock",
              "type": "uint256"
            },
            {
              "internalType": "uint256",
              "name": "loanExpireTimestamp",
              "type": "uint256"
            },
            {
              "internalType": "uint32",
              "name": "interestBPS1000000XBlock",
              "type": "uint32"
            },
            {
              "internalType": "uint32",
              "name": "maxLTVBPS",
              "type": "uint32"
            },
            {
              "internalType": "uint256",
              "name": "borrowedWei",
              "type": "uint256"
            },
            {
              "internalType": "uint256",
              "name": "returnedWei",
              "type": "uint256"
            },
            {
              "internalType": "uint256",
              "name": "accuredInterestWei",
              "type": "uint256"
            },
            {
              "internalType": "uint256",
              "name": "repaidInterestWei",
              "type": "uint256"
            },
            {
              "internalType": "address",
              "name": "borrower",
              "type": "address"
            }
          ],
          "indexed": false,
          "internalType": "struct ERC721LendingPoolETH20_01.LoanTerms",
          "name": "oldTerms",
          "type": "tuple"
        },
        {
          "components": [
            {
              "internalType": "uint256",
              "name": "loanStartBlock",
              "type": "uint256"
            },
            {
              "internalType": "uint256",
              "name": "loanExpireTimestamp",
              "type": "uint256"
            },
            {
              "internalType": "uint32",
              "name": "interestBPS1000000XBlock",
              "type": "uint32"
            },
            {
              "internalType": "uint32",
              "name": "maxLTVBPS",
              "type": "uint32"
            },
            {
              "internalType": "uint256",
              "name": "borrowedWei",
              "type": "uint256"
            },
            {
              "internalType": "uint256",
              "name": "returnedWei",
              "type": "uint256"
            },
            {
              "internalType": "uint256",
              "name": "accuredInterestWei",
              "type": "uint256"
            },
            {
              "internalType": "uint256",
              "name": "repaidInterestWei",
              "type": "uint256"
            },
            {
              "internalType": "address",
              "name": "borrower",
              "type": "address"
            }
          ],
          "indexed": false,
          "internalType": "struct ERC721LendingPoolETH20_01.LoanTerms",
          "name": "newTerms",
          "type": "tuple"
        }
      ],
      "name": "LoanTermsChanged",
      "type": "event"
    },
    {
      "anonymous": false,
      "inputs": [
        {
          "indexed": true,
          "internalType": "address",
          "name": "previousOwner",
          "type": "address"
        },
        {
          "indexed": true,
          "internalType": "address",
          "name": "newOwner",
          "type": "address"
        }
      ],
      "name": "OwnershipTransferred",
      "type": "event"
    },
    {
      "anonymous": false,
      "inputs": [
        {
          "indexed": false,
          "internalType": "address",
          "name": "account",
          "type": "address"
        }
      ],
      "name": "Paused",
      "type": "event"
    },
    {
      "anonymous": false,
      "inputs": [
        {
          "indexed": false,
          "internalType": "address",
          "name": "account",
          "type": "address"
        }
      ],
      "name": "Unpaused",
      "type": "event"
    },
    {
      "inputs": [
        {
          "internalType": "uint256",
          "name": "",
          "type": "uint256"
        }
      ],
      "name": "_loans",
      "outputs": [
        {
          "internalType": "uint256",
          "name": "loanStartBlock",
          "type": "uint256"
        },
        {
          "internalType": "uint256",
          "name": "loanExpireTimestamp",
          "type": "uint256"
        },
        {
          "internalType": "uint32",
          "name": "interestBPS1000000XBlock",
          "type": "uint32"
        },
        {
          "internalType": "uint32",
          "name": "maxLTVBPS",
          "type": "uint32"
        },
        {
          "internalType": "uint256",
          "name": "borrowedWei",
          "type": "uint256"
        },
        {
          "internalType": "uint256",
          "name": "returnedWei",
          "type": "uint256"
        },
        {
          "internalType": "uint256",
          "name": "accuredInterestWei",
          "type": "uint256"
        },
        {
          "internalType": "uint256",
          "name": "repaidInterestWei",
          "type": "uint256"
        },
        {
          "internalType": "address",
          "name": "borrower",
          "type": "address"
        }
      ],
      "stateMutability": "view",
      "type": "function"
    },
    {
      "inputs": [],
      "name": "_supportedCollection",
      "outputs": [
        {
          "internalType": "address",
          "name": "",
          "type": "address"
        }
      ],
      "stateMutability": "view",
      "type": "function"
    },
    {
      "inputs": [],
      "name": "_supportedCurrency",
      "outputs": [
        {
          "internalType": "address",
          "name": "",
          "type": "address"
        }
      ],
      "stateMutability": "view",
      "type": "function"
    },
    {
      "inputs": [],
      "name": "_valuationSigner",
      "outputs": [
        {
          "internalType": "address",
          "name": "",
          "type": "address"
        }
      ],
      "stateMutability": "view",
      "type": "function"
    },
    {
      "inputs": [
        {
          "internalType": "uint256",
          "name": "",
          "type": "uint256"
        }
      ],
      "name": "durationSeconds_poolParam",
      "outputs": [
        {
          "internalType": "uint32",
          "name": "interestBPS1000000XBlock",
          "type": "uint32"
        },
        {
          "internalType": "uint32",
          "name": "collateralFactorBPS",
          "type": "uint32"
        }
      ],
      "stateMutability": "view",
      "type": "function"
    },
    {
      "inputs": [
        {
          "internalType": "bytes32",
          "name": "_messageHash",
          "type": "bytes32"
        }
      ],
      "name": "getEthSignedMessageHash",
      "outputs": [
        {
          "internalType": "bytes32",
          "name": "",
          "type": "bytes32"
        }
      ],
      "stateMutability": "pure",
      "type": "function"
    },
    {
      "inputs": [
        {
          "internalType": "address",
          "name": "nft",
          "type": "address"
        },
        {
          "internalType": "uint256",
          "name": "punkID",
          "type": "uint256"
        },
        {
          "internalType": "uint256",
          "name": "valuation",
          "type": "uint256"
        },
        {
          "internalType": "uint256",
          "name": "expireAtBlock",
          "type": "uint256"
        }
      ],
      "name": "getMessageHash",
      "outputs": [
        {
          "internalType": "bytes32",
          "name": "",
          "type": "bytes32"
        }
      ],
      "stateMutability": "pure",
      "type": "function"
    },
    {
      "inputs": [],
      "name": "owner",
      "outputs": [
        {
          "internalType": "address",
          "name": "",
          "type": "address"
        }
      ],
      "stateMutability": "view",
      "type": "function"
    },
    {
      "inputs": [],
      "name": "paused",
      "outputs": [
        {
          "internalType": "bool",
          "name": "",
          "type": "bool"
        }
      ],
      "stateMutability": "view",
      "type": "function"
    },
    {
      "inputs": [],
      "name": "renounceOwnership",
      "outputs": [],
      "stateMutability": "nonpayable",
      "type": "function"
    },
    {
      "inputs": [
        {
          "internalType": "address",
          "name": "newOwner",
          "type": "address"
        }
      ],
      "name": "transferOwnership",
      "outputs": [],
      "stateMutability": "nonpayable",
      "type": "function"
    },
    {
      "inputs": [
        {
          "internalType": "address",
          "name": "nft",
          "type": "address"
        },
        {
          "internalType": "uint256",
          "name": "punkID",
          "type": "uint256"
        },
        {
          "internalType": "uint256",
          "name": "valuation",
          "type": "uint256"
        },
        {
          "internalType": "uint256",
          "name": "expireAtBlock",
          "type": "uint256"
        },
        {
          "internalType": "address",
          "name": "_signer",
          "type": "address"
        },
        {
          "internalType": "bytes",
          "name": "signature",
          "type": "bytes"
        }
      ],
      "name": "verify",
      "outputs": [
        {
          "internalType": "bool",
          "name": "",
          "type": "bool"
        }
      ],
      "stateMutability": "pure",
      "type": "function"
    },
    {
      "stateMutability": "payable",
      "type": "receive"
    },
    {
      "inputs": [
        {
          "internalType": "address",
          "name": "operator",
          "type": "address"
        },
        {
          "internalType": "address",
          "name": "from",
          "type": "address"
        },
        {
          "internalType": "uint256",
          "name": "tokenId",
          "type": "uint256"
        },
        {
          "internalType": "bytes",
          "name": "data",
          "type": "bytes"
        }
      ],
      "name": "onERC721Received",
      "outputs": [
        {
          "internalType": "bytes4",
          "name": "",
          "type": "bytes4"
        }
      ],
      "stateMutability": "pure",
      "type": "function"
    },
    {
      "inputs": [
        {
          "internalType": "address",
          "name": "supportedCollection",
          "type": "address"
        }
      ],
      "name": "initialize",
      "outputs": [],
      "stateMutability": "nonpayable",
      "type": "function"
    },
    {
      "inputs": [
        {
          "internalType": "uint256",
          "name": "duration",
          "type": "uint256"
        },
        {
          "components": [
            {
              "internalType": "uint32",
              "name": "interestBPS1000000XBlock",
              "type": "uint32"
            },
            {
              "internalType": "uint32",
              "name": "collateralFactorBPS",
              "type": "uint32"
            }
          ],
          "internalType": "struct ERC721LendingPoolETH20_01.PoolParams",
          "name": "ppm",
          "type": "tuple"
        }
      ],
      "name": "setDurationParam",
      "outputs": [],
      "stateMutability": "nonpayable",
      "type": "function"
    },
    {
      "inputs": [
        {
          "internalType": "address",
          "name": "valuationSigner",
          "type": "address"
        }
      ],
      "name": "setValuationSigner",
      "outputs": [],
      "stateMutability": "nonpayable",
      "type": "function"
    },
    {
      "inputs": [
        {
          "internalType": "address",
          "name": "supportedCurrency",
          "type": "address"
        }
      ],
      "name": "setSupportedCurrency",
      "outputs": [],
      "stateMutability": "nonpayable",
      "type": "function"
    },
    {
      "inputs": [],
      "name": "pause",
      "outputs": [],
      "stateMutability": "nonpayable",
      "type": "function"
    },
    {
      "inputs": [],
      "name": "unpause",
      "outputs": [],
      "stateMutability": "nonpayable",
      "type": "function"
    },
    {
      "inputs": [
        {
          "internalType": "uint256",
          "name": "nftID",
          "type": "uint256"
        }
      ],
      "name": "outstanding",
      "outputs": [
        {
          "internalType": "uint256",
          "name": "",
          "type": "uint256"
        }
      ],
      "stateMutability": "view",
      "type": "function"
    },
    {
      "inputs": [
        {
          "internalType": "uint256",
          "name": "nftID",
          "type": "uint256"
        }
      ],
      "name": "isUnHealthyLoan",
      "outputs": [
        {
          "internalType": "bool",
          "name": "",
          "type": "bool"
        },
        {
          "internalType": "uint256",
          "name": "",
          "type": "uint256"
        }
      ],
      "stateMutability": "view",
      "type": "function"
    },
    {
      "inputs": [
        {
          "internalType": "uint256",
          "name": "valuation",
          "type": "uint256"
        },
        {
          "internalType": "uint256",
          "name": "nftID",
          "type": "uint256"
        },
        {
          "internalType": "uint256",
          "name": "loanDurationSeconds",
          "type": "uint256"
        },
        {
          "internalType": "uint256",
          "name": "expireAtBlock",
          "type": "uint256"
        },
        {
          "internalType": "uint256",
          "name": "borrowedAmount",
          "type": "uint256"
        },
        {
          "internalType": "bytes",
          "name": "signature",
          "type": "bytes"
        }
      ],
      "name": "borrow",
      "outputs": [],
      "stateMutability": "nonpayable",
      "type": "function"
    },
    {
      "inputs": [
        {
          "internalType": "uint256",
          "name": "nftID",
          "type": "uint256"
        },
        {
          "internalType": "uint256",
          "name": "repayAmount",
          "type": "uint256"
        }
      ],
      "name": "repay",
      "outputs": [],
      "stateMutability": "nonpayable",
      "type": "function"
    },
    {
      "inputs": [
        {
          "internalType": "uint256",
          "name": "nftID",
          "type": "uint256"
        }
      ],
      "name": "liquidateLoan",
      "outputs": [],
      "stateMutability": "nonpayable",
      "type": "function"
    },
    {
      "inputs": [
        {
          "internalType": "uint256",
          "name": "amount",
          "type": "uint256"
        }
      ],
      "name": "withdraw",
      "outputs": [],
      "stateMutability": "nonpayable",
      "type": "function"
    },
    {
      "inputs": [
        {
          "internalType": "address",
          "name": "currency",
          "type": "address"
        },
        {
          "internalType": "uint256",
          "name": "amount",
          "type": "uint256"
        }
      ],
      "name": "withdrawERC20",
      "outputs": [],
      "stateMutability": "nonpayable",
      "type": "function"
    },
    {
      "inputs": [
        {
          "internalType": "address",
          "name": "collection",
          "type": "address"
        },
        {
          "internalType": "uint256",
          "name": "nftID",
          "type": "uint256"
        }
      ],
      "name": "withdrawERC721",
      "outputs": [],
      "stateMutability": "nonpayable",
      "type": "function"
    },
    {
      "inputs": [
        {
          "internalType": "uint256",
          "name": "nftID",
          "type": "uint256"
        },
        {
          "internalType": "bytes",
          "name": "signature",
          "type": "bytes"
        },
        {
          "internalType": "uint8",
          "name": "withdrawToOwner",
          "type": "uint8"
        }
      ],
      "name": "emergencyWithdrawLoanCollateral",
      "outputs": [],
      "stateMutability": "nonpayable",
      "type": "function"
    }
  ],
  "bytecode": "0x608060405234801561001057600080fd5b50614db2806100206000396000f3fe6080604052600436106101bb5760003560e01c806394bfd7b0116100ec578063d8aed1451161008a578063f3e414f811610064578063f3e414f8146105f3578063f440be041461061c578063fa54080114610659578063fd9147ae14610696576101c2565b8063d8aed14514610578578063e3f1aa94146105a1578063f2fde38b146105ca576101c2565b8063c4d66de8116100c6578063c4d66de8146104d4578063c6600e9a146104fd578063cad0f91414610526578063ccdd9f5d1461054f576101c2565b806394bfd7b01461043b578063a1db978214610466578063bd5c569b1461048f576101c2565b80634b5f01bf11610159578063715018a611610133578063715018a6146103a55780638456cb59146103bc578063874a0e73146103d35780638da5cb5b14610410576101c2565b80634b5f01bf146103135780634fa224481461033c5780635c975abb1461037a576101c2565b80632e1a7d4d116101955780632e1a7d4d1461027f5780633e22c008146102a85780633f4ba83a146102d357806345f2c776146102ea576101c2565b80630f3f9bbf146101c7578063150b7a02146102045780631e7d925714610241576101c2565b366101c257005b600080fd5b3480156101d357600080fd5b506101ee60048036038101906101e991906133bb565b6106c1565b6040516101fb9190613d95565b60405180910390f35b34801561021057600080fd5b5061022b6004803603810190610226919061329c565b610725565b6040516102389190613e39565b60405180910390f35b34801561024d57600080fd5b50610268600480360381019061026391906134ae565b610753565b604051610276929190613db0565b60405180910390f35b34801561028b57600080fd5b506102a660048036038101906102a191906134ae565b6107dc565b005b3480156102b457600080fd5b506102bd61090f565b6040516102ca9190613d1a565b60405180910390f35b3480156102df57600080fd5b506102e8610935565b005b3480156102f657600080fd5b50610311600480360381019061030c919061324a565b6109bb565b005b34801561031f57600080fd5b5061033a6004803603810190610335919061324a565b610a7b565b005b34801561034857600080fd5b50610363600480360381019061035e91906134ae565b610b3b565b60405161037192919061425a565b60405180910390f35b34801561038657600080fd5b5061038f610b7f565b60405161039c9190613d95565b60405180910390f35b3480156103b157600080fd5b506103ba610b96565b005b3480156103c857600080fd5b506103d1610c1e565b005b3480156103df57600080fd5b506103fa60048036038101906103f591906134ae565b610ca4565b604051610407919061417b565b60405180910390f35b34801561041c57600080fd5b50610425610e1f565b6040516104329190613d1a565b60405180910390f35b34801561044757600080fd5b50610450610e49565b60405161045d9190613d1a565b60405180910390f35b34801561047257600080fd5b5061048d6004803603810190610488919061331c565b610e6f565b005b34801561049b57600080fd5b506104b660048036038101906104b191906134ae565b610f84565b6040516104cb999897969594939291906141cd565b60405180910390f35b3480156104e057600080fd5b506104fb60048036038101906104f6919061324a565b611012565b005b34801561050957600080fd5b50610524600480360381019061051f9190613567565b611148565b005b34801561053257600080fd5b5061054d60048036038101906105489190613500565b6111eb565b005b34801561055b57600080fd5b50610576600480360381019061057191906134ae565b61154a565b005b34801561058457600080fd5b5061059f600480360381019061059a91906135a3565b6119c2565b005b3480156105ad57600080fd5b506105c860048036038101906105c391906135df565b612106565b005b3480156105d657600080fd5b506105f160048036038101906105ec919061324a565b6128a5565b005b3480156105ff57600080fd5b5061061a6004803603810190610615919061331c565b61299d565b005b34801561062857600080fd5b50610643600480360381019061063e9190613358565b612b35565b6040516106509190613dd9565b60405180910390f35b34801561066557600080fd5b50610680600480360381019061067b9190613485565b612b6e565b60405161068d9190613dd9565b60405180910390f35b3480156106a257600080fd5b506106ab612b9e565b6040516106b89190613d1a565b60405180910390f35b6000806106d088888888612b35565b905060006106dd82612b6e565b90508473ffffffffffffffffffffffffffffffffffffffff166107008286612bc4565b73ffffffffffffffffffffffffffffffffffffffff1614925050509695505050505050565b60007f150b7a023d4804d13e8c85fb27262cb750cf6ba9f9dd3bb30d90f482ceeb4b1f905095945050505050565b60008061075f83612c33565b61079e576040517f08c379a000000000000000000000000000000000000000000000000000000000815260040161079590613ed4565b60405180910390fd5b6000609b600085815260200190815260200160002060010154421180156107cd575060006107cb85610ca4565b115b90508060009250925050915091565b6107e4612c6b565b73ffffffffffffffffffffffffffffffffffffffff16610802610e1f565b73ffffffffffffffffffffffffffffffffffffffff1614610858576040517f08c379a000000000000000000000000000000000000000000000000000000000815260040161084f90613ff4565b60405180910390fd5b6000610862610e1f565b73ffffffffffffffffffffffffffffffffffffffff168260405161088590613d05565b60006040518083038185875af1925050503d80600081146108c2576040519150601f19603f3d011682016040523d82523d6000602084013e6108c7565b606091505b505090508061090b576040517f08c379a000000000000000000000000000000000000000000000000000000000815260040161090290613f74565b60405180910390fd5b5050565b609760009054906101000a900473ffffffffffffffffffffffffffffffffffffffff1681565b61093d612c6b565b73ffffffffffffffffffffffffffffffffffffffff1661095b610e1f565b73ffffffffffffffffffffffffffffffffffffffff16146109b1576040517f08c379a00000000000000000000000000000000000000000000000000000000081526004016109a890613ff4565b60405180910390fd5b6109b9612c73565b565b6109c3612c6b565b73ffffffffffffffffffffffffffffffffffffffff166109e1610e1f565b73ffffffffffffffffffffffffffffffffffffffff1614610a37576040517f08c379a0000000000000000000000000000000000000000000000000000000008152600401610a2e90613ff4565b60405180910390fd5b80609960006101000a81548173ffffffffffffffffffffffffffffffffffffffff021916908373ffffffffffffffffffffffffffffffffffffffff16021790555050565b610a83612c6b565b73ffffffffffffffffffffffffffffffffffffffff16610aa1610e1f565b73ffffffffffffffffffffffffffffffffffffffff1614610af7576040517f08c379a0000000000000000000000000000000000000000000000000000000008152600401610aee90613ff4565b60405180910390fd5b80609760006101000a81548173ffffffffffffffffffffffffffffffffffffffff021916908373ffffffffffffffffffffffffffffffffffffffff16021790555050565b609a6020528060005260406000206000915090508060000160009054906101000a900463ffffffff16908060000160049054906101000a900463ffffffff16905082565b6000606560009054906101000a900460ff16905090565b610b9e612c6b565b73ffffffffffffffffffffffffffffffffffffffff16610bbc610e1f565b73ffffffffffffffffffffffffffffffffffffffff1614610c12576040517f08c379a0000000000000000000000000000000000000000000000000000000008152600401610c0990613ff4565b60405180910390fd5b610c1c6000612d15565b565b610c26612c6b565b73ffffffffffffffffffffffffffffffffffffffff16610c44610e1f565b73ffffffffffffffffffffffffffffffffffffffff1614610c9a576040517f08c379a0000000000000000000000000000000000000000000000000000000008152600401610c9190613ff4565b60405180910390fd5b610ca2612ddb565b565b6000609b600083815260200190815260200160002060040154609b60008481526020019081526020016000206003015411610ce25760009050610e1a565b60006402540be400609b600085815260200190815260200160002060020160009054906101000a900463ffffffff1663ffffffff16609b600086815260200190815260200160002060040154609b600087815260200190815260200160002060030154610d4f919061441a565b609b60008781526020019081526020016000206000015443610d71919061441a565b610d7b91906143c0565b610d8591906143c0565b610d8f919061438f565b905080609b600085815260200190815260200160002060060154609b600086815260200190815260200160002060050154610dca919061441a565b609b600086815260200190815260200160002060040154609b600087815260200190815260200160002060030154610e02919061441a565b610e0c9190614339565b610e169190614339565b9150505b919050565b6000603360009054906101000a900473ffffffffffffffffffffffffffffffffffffffff16905090565b609860009054906101000a900473ffffffffffffffffffffffffffffffffffffffff1681565b610e77612c6b565b73ffffffffffffffffffffffffffffffffffffffff16610e95610e1f565b73ffffffffffffffffffffffffffffffffffffffff1614610eeb576040517f08c379a0000000000000000000000000000000000000000000000000000000008152600401610ee290613ff4565b60405180910390fd5b8173ffffffffffffffffffffffffffffffffffffffff1663a9059cbb610f0f610e1f565b836040518363ffffffff1660e01b8152600401610f2d929190613d6c565b602060405180830381600087803b158015610f4757600080fd5b505af1158015610f5b573d6000803e3d6000fd5b505050506040513d601f19601f82011682018060405250810190610f7f919061345c565b505050565b609b6020528060005260406000206000915090508060000154908060010154908060020160009054906101000a900463ffffffff16908060020160049054906101000a900463ffffffff16908060030154908060040154908060050154908060060154908060070160009054906101000a900473ffffffffffffffffffffffffffffffffffffffff16905089565b600060019054906101000a900460ff1661103a5760008054906101000a900460ff1615611043565b611042612e7e565b5b611082576040517f08c379a000000000000000000000000000000000000000000000000000000000815260040161107990613f94565b60405180910390fd5b60008060019054906101000a900460ff1615905080156110d2576001600060016101000a81548160ff02191690831515021790555060016000806101000a81548160ff0219169083151502179055505b6110da612e8f565b6110e2612ef0565b81609860006101000a81548173ffffffffffffffffffffffffffffffffffffffff021916908373ffffffffffffffffffffffffffffffffffffffff16021790555080156111445760008060016101000a81548160ff0219169083151502179055505b5050565b611150612c6b565b73ffffffffffffffffffffffffffffffffffffffff1661116e610e1f565b73ffffffffffffffffffffffffffffffffffffffff16146111c4576040517f08c379a00000000000000000000000000000000000000000000000000000000081526004016111bb90613ff4565b60405180910390fd5b80609a600084815260200190815260200160002081816111e49190614c9e565b9050505050565b6111f3610b7f565b611232576040517f08c379a000000000000000000000000000000000000000000000000000000000815260040161122990613e74565b60405180910390fd5b61123a612c6b565b73ffffffffffffffffffffffffffffffffffffffff16611258610e1f565b73ffffffffffffffffffffffffffffffffffffffff16146112ae576040517f08c379a00000000000000000000000000000000000000000000000000000000081526004016112a590613ff4565b60405180910390fd5b6112b783612c33565b6112f6576040517f08c379a00000000000000000000000000000000000000000000000000000000081526004016112ed90614034565b60405180910390fd5b611388609860009054906101000a900473ffffffffffffffffffffffffffffffffffffffff16848360ff166203a52861132f9190614300565b62ffffff168460ff166203a5286113469190614300565b62ffffff16609b600089815260200190815260200160002060070160009054906101000a900473ffffffffffffffffffffffffffffffffffffffff16876106c1565b6113c7576040517f08c379a00000000000000000000000000000000000000000000000000000000081526004016113be90613f14565b60405180910390fd5b60018160ff16141561147057609860009054906101000a900473ffffffffffffffffffffffffffffffffffffffff1673ffffffffffffffffffffffffffffffffffffffff166342842e0e3061141a610e1f565b866040518463ffffffff1660e01b815260040161143993929190613d35565b600060405180830381600087803b15801561145357600080fd5b505af1158015611467573d6000803e3d6000fd5b50505050611545565b60008160ff16141561154457609860009054906101000a900473ffffffffffffffffffffffffffffffffffffffff1673ffffffffffffffffffffffffffffffffffffffff166342842e0e30609b600087815260200190815260200160002060070160009054906101000a900473ffffffffffffffffffffffffffffffffffffffff16866040518463ffffffff1660e01b815260040161151193929190613d35565b600060405180830381600087803b15801561152b57600080fd5b505af115801561153f573d6000803e3d6000fd5b505050505b5b505050565b611552612c6b565b73ffffffffffffffffffffffffffffffffffffffff16611570610e1f565b73ffffffffffffffffffffffffffffffffffffffff16146115c6576040517f08c379a00000000000000000000000000000000000000000000000000000000081526004016115bd90613ff4565b60405180910390fd5b6115cf81612c33565b61160e576040517f08c379a000000000000000000000000000000000000000000000000000000000815260040161160590613ed4565b60405180910390fd5b60008061161a83610753565b915091508161165e576040517f08c379a0000000000000000000000000000000000000000000000000000000008152600401611655906140b4565b60405180910390fd5b6000609b60008581526020019081526020016000206040518061012001604052908160008201548152602001600182015481526020016002820160009054906101000a900463ffffffff1663ffffffff1663ffffffff1681526020016002820160049054906101000a900463ffffffff1663ffffffff1663ffffffff168152602001600382015481526020016004820154815260200160058201548152602001600682015481526020016007820160009054906101000a900473ffffffffffffffffffffffffffffffffffffffff1673ffffffffffffffffffffffffffffffffffffffff1673ffffffffffffffffffffffffffffffffffffffff16815250509050609b600085815260200190815260200160002060030154609b60008681526020019081526020016000206004018190555083609860009054906101000a900473ffffffffffffffffffffffffffffffffffffffff1673ffffffffffffffffffffffffffffffffffffffff16609b600087815260200190815260200160002060070160009054906101000a900473ffffffffffffffffffffffffffffffffffffffff1673ffffffffffffffffffffffffffffffffffffffff167f680ce85e4f810f64123666acc47e4075544c11a42dbed669dd30fbb7b0b83f0642338760405161184a93929190614196565b60405180910390a4609860009054906101000a900473ffffffffffffffffffffffffffffffffffffffff1673ffffffffffffffffffffffffffffffffffffffff166342842e0e30611899610e1f565b876040518463ffffffff1660e01b81526004016118b893929190613d35565b600060405180830381600087803b1580156118d257600080fd5b505af11580156118e6573d6000803e3d6000fd5b5050505083609860009054906101000a900473ffffffffffffffffffffffffffffffffffffffff1673ffffffffffffffffffffffffffffffffffffffff16609b600087815260200190815260200160002060070160009054906101000a900473ffffffffffffffffffffffffffffffffffffffff1673ffffffffffffffffffffffffffffffffffffffff167fb7faaf58a53a3a4bdfdd90dff44b713036c882f23772663c180bf72866f44c1c84609b60008a81526020019081526020016000206040516119b4929190614134565b60405180910390a450505050565b6119ca610b7f565b15611a0a576040517f08c379a0000000000000000000000000000000000000000000000000000000008152600401611a0190613f34565b60405180910390fd5b611a1382612c33565b611a52576040517f08c379a0000000000000000000000000000000000000000000000000000000008152600401611a4990613ef4565b60405180910390fd5b609960009054906101000a900473ffffffffffffffffffffffffffffffffffffffff1673ffffffffffffffffffffffffffffffffffffffff166323b872dd3330846040518463ffffffff1660e01b8152600401611ab193929190613d35565b602060405180830381600087803b158015611acb57600080fd5b505af1158015611adf573d6000803e3d6000fd5b505050506040513d601f19601f82011682018060405250810190611b03919061345c565b611b42576040517f08c379a0000000000000000000000000000000000000000000000000000000008152600401611b3990614114565b60405180910390fd5b6000609b60008481526020019081526020016000206040518061012001604052908160008201548152602001600182015481526020016002820160009054906101000a900463ffffffff1663ffffffff1663ffffffff1681526020016002820160049054906101000a900463ffffffff1663ffffffff1663ffffffff168152602001600382015481526020016004820154815260200160058201548152602001600682015481526020016007820160009054906101000a900473ffffffffffffffffffffffffffffffffffffffff1673ffffffffffffffffffffffffffffffffffffffff1673ffffffffffffffffffffffffffffffffffffffff16815250509050611c4c83610ca4565b8210611e5b57609960009054906101000a900473ffffffffffffffffffffffffffffffffffffffff1673ffffffffffffffffffffffffffffffffffffffff1663a9059cbb33611c9a86610ca4565b85611ca5919061441a565b6040518363ffffffff1660e01b8152600401611cc2929190613d6c565b602060405180830381600087803b158015611cdc57600080fd5b505af1158015611cf0573d6000803e3d6000fd5b505050506040513d601f19601f82011682018060405250810190611d14919061345c565b611d53576040517f08c379a0000000000000000000000000000000000000000000000000000000008152600401611d4a90613e94565b60405180910390fd5b611d5c83610ca4565b9150609b600084815260200190815260200160002060030154609b600085815260200190815260200160002060040181905550609860009054906101000a900473ffffffffffffffffffffffffffffffffffffffff1673ffffffffffffffffffffffffffffffffffffffff166323b872dd30609b600087815260200190815260200160002060070160009054906101000a900473ffffffffffffffffffffffffffffffffffffffff16866040518463ffffffff1660e01b8152600401611e2493929190613d35565b600060405180830381600087803b158015611e3e57600080fd5b505af1158015611e52573d6000803e3d6000fd5b5050505061202f565b6402540be400609b600085815260200190815260200160002060020160009054906101000a900463ffffffff1663ffffffff16609b600086815260200190815260200160002060040154609b600087815260200190815260200160002060030154611ec6919061441a565b609b60008781526020019081526020016000206000015443611ee8919061441a565b611ef291906143c0565b611efc91906143c0565b611f06919061438f565b609b60008581526020019081526020016000206005016000828254611f2b9190614339565b925050819055506000609b600085815260200190815260200160002060060154609b600086815260200190815260200160002060050154611f6c919061441a565b905080831115611fe457609b600085815260200190815260200160002060050154609b6000868152602001908152602001600020600601819055508083611fb3919061441a565b609b60008681526020019081526020016000206004016000828254611fd89190614339565b92505081905550612012565b82609b6000868152602001908152602001600020600601600082825461200a9190614339565b925050819055505b43609b600086815260200190815260200160002060000181905550505b82609860009054906101000a900473ffffffffffffffffffffffffffffffffffffffff1673ffffffffffffffffffffffffffffffffffffffff16609b600086815260200190815260200160002060070160009054906101000a900473ffffffffffffffffffffffffffffffffffffffff1673ffffffffffffffffffffffffffffffffffffffff167fb7faaf58a53a3a4bdfdd90dff44b713036c882f23772663c180bf72866f44c1c84609b60008981526020019081526020016000206040516120f9929190614134565b60405180910390a4505050565b61210e610b7f565b1561214e576040517f08c379a000000000000000000000000000000000000000000000000000000000815260040161214590613f34565b60405180910390fd5b6121a0609860009054906101000a900473ffffffffffffffffffffffffffffffffffffffff16868886609760009054906101000a900473ffffffffffffffffffffffffffffffffffffffff16866106c1565b6121df576040517f08c379a00000000000000000000000000000000000000000000000000000000081526004016121d690614014565b60405180910390fd5b6121e885612c33565b15612228576040517f08c379a000000000000000000000000000000000000000000000000000000000815260040161221f90613e54565b60405180910390fd5b6000609a600086815260200190815260200160002060000160049054906101000a900463ffffffff16905060008163ffffffff161161229c576040517f08c379a000000000000000000000000000000000000000000000000000000000815260040161229390613fb4565b60405180910390fd5b3373ffffffffffffffffffffffffffffffffffffffff16609860009054906101000a900473ffffffffffffffffffffffffffffffffffffffff1673ffffffffffffffffffffffffffffffffffffffff16636352211e886040518263ffffffff1660e01b815260040161230e919061417b565b60206040518083038186803b15801561232657600080fd5b505afa15801561233a573d6000803e3d6000fd5b505050506040513d601f19601f8201168201806040525081019061235e9190613273565b73ffffffffffffffffffffffffffffffffffffffff16146123b4576040517f08c379a00000000000000000000000000000000000000000000000000000000081526004016123ab90614094565b60405180910390fd5b8343106123f6576040517f08c379a00000000000000000000000000000000000000000000000000000000081526004016123ed90613fd4565b60405180910390fd5b6127108163ffffffff168861240b91906143c0565b612415919061438f565b831115612457576040517f08c379a000000000000000000000000000000000000000000000000000000000815260040161244e90614074565b60405180910390fd5b609960009054906101000a900473ffffffffffffffffffffffffffffffffffffffff1673ffffffffffffffffffffffffffffffffffffffff166370a08231306040518263ffffffff1660e01b81526004016124b29190613d1a565b60206040518083038186803b1580156124ca57600080fd5b505afa1580156124de573d6000803e3d6000fd5b505050506040513d601f19601f8201168201806040525081019061250291906134d7565b8310612543576040517f08c379a000000000000000000000000000000000000000000000000000000000815260040161253a90614054565b60405180910390fd5b609960009054906101000a900473ffffffffffffffffffffffffffffffffffffffff1673ffffffffffffffffffffffffffffffffffffffff1663a9059cbb33856040518363ffffffff1660e01b81526004016125a0929190613d6c565b602060405180830381600087803b1580156125ba57600080fd5b505af11580156125ce573d6000803e3d6000fd5b505050506040513d601f19601f820116820180604052508101906125f2919061345c565b5060405180610120016040528043815260200186426126119190614339565b8152602001609a600088815260200190815260200160002060000160009054906101000a900463ffffffff1663ffffffff1681526020018263ffffffff1681526020018481526020016000815260200160008152602001600081526020013373ffffffffffffffffffffffffffffffffffffffff16815250609b6000888152602001908152602001600020600082015181600001556020820151816001015560408201518160020160006101000a81548163ffffffff021916908363ffffffff16021790555060608201518160020160046101000a81548163ffffffff021916908363ffffffff1602179055506080820151816003015560a0820151816004015560c0820151816005015560e082015181600601556101008201518160070160006101000a81548173ffffffffffffffffffffffffffffffffffffffff021916908373ffffffffffffffffffffffffffffffffffffffff160217905550905050609860009054906101000a900473ffffffffffffffffffffffffffffffffffffffff1673ffffffffffffffffffffffffffffffffffffffff166323b872dd3330896040518463ffffffff1660e01b81526004016127d093929190613d35565b600060405180830381600087803b1580156127ea57600080fd5b505af11580156127fe573d6000803e3d6000fd5b5050505085609860009054906101000a900473ffffffffffffffffffffffffffffffffffffffff1673ffffffffffffffffffffffffffffffffffffffff163373ffffffffffffffffffffffffffffffffffffffff167f872dc93aead2083e073cc885fd9a73e19b414626890d68c6251f12ba51f8a3bd609b60008b8152602001908152602001600020604051612894919061415f565b60405180910390a450505050505050565b6128ad612c6b565b73ffffffffffffffffffffffffffffffffffffffff166128cb610e1f565b73ffffffffffffffffffffffffffffffffffffffff1614612921576040517f08c379a000000000000000000000000000000000000000000000000000000000815260040161291890613ff4565b60405180910390fd5b600073ffffffffffffffffffffffffffffffffffffffff168173ffffffffffffffffffffffffffffffffffffffff161415612991576040517f08c379a000000000000000000000000000000000000000000000000000000000815260040161298890613eb4565b60405180910390fd5b61299a81612d15565b50565b6129a5612c6b565b73ffffffffffffffffffffffffffffffffffffffff166129c3610e1f565b73ffffffffffffffffffffffffffffffffffffffff1614612a19576040517f08c379a0000000000000000000000000000000000000000000000000000000008152600401612a1090613ff4565b60405180910390fd5b609860009054906101000a900473ffffffffffffffffffffffffffffffffffffffff1673ffffffffffffffffffffffffffffffffffffffff168273ffffffffffffffffffffffffffffffffffffffff16148015612a7b5750612a7a81612c33565b5b15612abb576040517f08c379a0000000000000000000000000000000000000000000000000000000008152600401612ab290613f54565b60405180910390fd5b8173ffffffffffffffffffffffffffffffffffffffff166342842e0e30612ae0610e1f565b846040518463ffffffff1660e01b8152600401612aff93929190613d35565b600060405180830381600087803b158015612b1957600080fd5b505af1158015612b2d573d6000803e3d6000fd5b505050505050565b600084848484604051602001612b4e9493929190613c91565b604051602081830303815290604052805190602001209050949350505050565b600081604051602001612b819190613cdf565b604051602081830303815290604052805190602001209050919050565b609960009054906101000a900473ffffffffffffffffffffffffffffffffffffffff1681565b600080600080612bd385612f51565b92509250925060018682858560405160008152602001604052604051612bfc9493929190613df4565b6020604051602081039080840390855afa158015612c1e573d6000803e3d6000fd5b50505060206040510351935050505092915050565b6000609b600083815260200190815260200160002060040154609b600084815260200190815260200160002060030154119050919050565b600033905090565b612c7b610b7f565b612cba576040517f08c379a0000000000000000000000000000000000000000000000000000000008152600401612cb190613e74565b60405180910390fd5b6000606560006101000a81548160ff0219169083151502179055507f5db9ee0a495bf2e6ff9c91a7834c1ba4fdd244a5e8aa4e537bd38aeae4b073aa612cfe612c6b565b604051612d0b9190613d1a565b60405180910390a1565b6000603360009054906101000a900473ffffffffffffffffffffffffffffffffffffffff16905081603360006101000a81548173ffffffffffffffffffffffffffffffffffffffff021916908373ffffffffffffffffffffffffffffffffffffffff1602179055508173ffffffffffffffffffffffffffffffffffffffff168173ffffffffffffffffffffffffffffffffffffffff167f8be0079c531659141344cd1fd0a4f28419497f9722a3daafe3b4186f6b6457e060405160405180910390a35050565b612de3610b7f565b15612e23576040517f08c379a0000000000000000000000000000000000000000000000000000000008152600401612e1a90613f34565b60405180910390fd5b6001606560006101000a81548160ff0219169083151502179055507f62e78cea01bee320cd4e420270b5ea74000d11b0c9f74754ebdbfc544b05a258612e67612c6b565b604051612e749190613d1a565b60405180910390a1565b6000612e8930612fb9565b15905090565b600060019054906101000a900460ff16612ede576040517f08c379a0000000000000000000000000000000000000000000000000000000008152600401612ed5906140d4565b60405180910390fd5b612ee6612fcc565b612eee61301d565b565b600060019054906101000a900460ff16612f3f576040517f08c379a0000000000000000000000000000000000000000000000000000000008152600401612f36906140d4565b60405180910390fd5b612f47612fcc565b612f4f61307e565b565b60008060006041845114612f9a576040517f08c379a0000000000000000000000000000000000000000000000000000000008152600401612f91906140f4565b60405180910390fd5b6020840151925060408401519150606084015160001a90509193909250565b600080823b905060008111915050919050565b600060019054906101000a900460ff1661301b576040517f08c379a0000000000000000000000000000000000000000000000000000000008152600401613012906140d4565b60405180910390fd5b565b600060019054906101000a900460ff1661306c576040517f08c379a0000000000000000000000000000000000000000000000000000000008152600401613063906140d4565b60405180910390fd5b61307c613077612c6b565b612d15565b565b600060019054906101000a900460ff166130cd576040517f08c379a00000000000000000000000000000000000000000000000000000000081526004016130c4906140d4565b60405180910390fd5b6000606560006101000a81548160ff021916908315150217905550565b60006130fd6130f8846142a8565b614283565b90508281526020810184848401111561311557600080fd5b613120848285614544565b509392505050565b60008135905061313781614cf2565b92915050565b60008151905061314c81614cf2565b92915050565b60008151905061316181614d09565b92915050565b60008135905061317681614d20565b92915050565b60008083601f84011261318e57600080fd5b8235905067ffffffffffffffff8111156131a757600080fd5b6020830191508360018202830111156131bf57600080fd5b9250929050565b600082601f8301126131d757600080fd5b81356131e78482602086016130ea565b91505092915050565b60006040828403121561320257600080fd5b81905092915050565b60008135905061321a81614d37565b92915050565b60008151905061322f81614d37565b92915050565b60008135905061324481614d65565b92915050565b60006020828403121561325c57600080fd5b600061326a84828501613128565b91505092915050565b60006020828403121561328557600080fd5b60006132938482850161313d565b91505092915050565b6000806000806000608086880312156132b457600080fd5b60006132c288828901613128565b95505060206132d388828901613128565b94505060406132e48882890161320b565b935050606086013567ffffffffffffffff81111561330157600080fd5b61330d8882890161317c565b92509250509295509295909350565b6000806040838503121561332f57600080fd5b600061333d85828601613128565b925050602061334e8582860161320b565b9150509250929050565b6000806000806080858703121561336e57600080fd5b600061337c87828801613128565b945050602061338d8782880161320b565b935050604061339e8782880161320b565b92505060606133af8782880161320b565b91505092959194509250565b60008060008060008060c087890312156133d457600080fd5b60006133e289828a01613128565b96505060206133f389828a0161320b565b955050604061340489828a0161320b565b945050606061341589828a0161320b565b935050608061342689828a01613128565b92505060a087013567ffffffffffffffff81111561344357600080fd5b61344f89828a016131c6565b9150509295509295509295565b60006020828403121561346e57600080fd5b600061347c84828501613152565b91505092915050565b60006020828403121561349757600080fd5b60006134a584828501613167565b91505092915050565b6000602082840312156134c057600080fd5b60006134ce8482850161320b565b91505092915050565b6000602082840312156134e957600080fd5b60006134f784828501613220565b91505092915050565b60008060006060848603121561351557600080fd5b60006135238682870161320b565b935050602084013567ffffffffffffffff81111561354057600080fd5b61354c868287016131c6565b925050604061355d86828701613235565b9150509250925092565b6000806060838503121561357a57600080fd5b60006135888582860161320b565b9250506020613599858286016131f0565b9150509250929050565b600080604083850312156135b657600080fd5b60006135c48582860161320b565b92505060206135d58582860161320b565b9150509250929050565b60008060008060008060c087890312156135f857600080fd5b600061360689828a0161320b565b965050602061361789828a0161320b565b955050604061362889828a0161320b565b945050606061363989828a0161320b565b935050608061364a89828a0161320b565b92505060a087013567ffffffffffffffff81111561366757600080fd5b61367389828a016131c6565b9150509295509295509295565b61368981614488565b82525050565b61369881614488565b82525050565b6136af6136aa82614488565b614632565b82525050565b6136be8161449a565b82525050565b6136cd816144a6565b82525050565b6136e46136df826144a6565b614644565b82525050565b6136f3816144b0565b82525050565b60006137066015836142e4565b915061371182614769565b602082019050919050565b60006137296014836142e4565b915061373482614792565b602082019050919050565b600061374c6023836142e4565b9150613757826147bb565b604082019050919050565b600061376f601c836142f5565b915061377a8261480a565b601c82019050919050565b60006137926026836142e4565b915061379d82614833565b604082019050919050565b60006137b5601d836142e4565b91506137c082614882565b602082019050919050565b60006137d8601d836142e4565b91506137e3826148ab565b602082019050919050565b60006137fb602b836142e4565b9150613806826148d4565b604082019050919050565b600061381e6010836142e4565b915061382982614923565b602082019050919050565b6000613841600b836142e4565b915061384c8261494c565b602082019050919050565b60006138646011836142e4565b915061386f82614975565b602082019050919050565b6000613887602e836142e4565b91506138928261499e565b604082019050919050565b60006138aa6016836142e4565b91506138b5826149ed565b602082019050919050565b60006138cd6011836142e4565b91506138d882614a16565b602082019050919050565b60006138f06020836142e4565b91506138fb82614a3f565b602082019050919050565b6000613913602b836142e4565b915061391e82614a68565b604082019050919050565b60006139366027836142e4565b915061394182614ab7565b604082019050919050565b60006139596010836142e4565b915061396482614b06565b602082019050919050565b600061397c601e836142e4565b915061398782614b2f565b602082019050919050565b600061399f6000836142d9565b91506139aa82614b58565b600082019050919050565b60006139c26008836142e4565b91506139cd82614b5b565b602082019050919050565b60006139e56019836142e4565b91506139f082614b84565b602082019050919050565b6000613a08602b836142e4565b9150613a1382614bad565b604082019050919050565b6000613a2b6018836142e4565b9150613a3682614bfc565b602082019050919050565b6000613a4e601a836142e4565b9150613a5982614c25565b602082019050919050565b61012082016000820151613a7b6000850182613c2f565b506020820151613a8e6020850182613c2f565b506040820151613aa16040850182613c64565b506060820151613ab46060850182613c64565b506080820151613ac76080850182613c2f565b5060a0820151613ada60a0850182613c2f565b5060c0820151613aed60c0850182613c2f565b5060e0820151613b0060e0850182613c2f565b50610100820151613b15610100850182613680565b50505050565b61012082016000808301549050613b31816145b3565b613b3e6000860182613c2f565b5060018301549050613b4f816145b3565b613b5c6020860182613c2f565b5060028301549050613b6d816145cd565b613b7a6040860182613c64565b50613b84816145e7565b613b916060860182613c64565b5060038301549050613ba2816145b3565b613baf6080860182613c2f565b5060048301549050613bc0816145b3565b613bcd60a0860182613c2f565b5060058301549050613bde816145b3565b613beb60c0860182613c2f565b5060068301549050613bfc816145b3565b613c0960e0860182613c2f565b5060078301549050613c1a81614599565b613c28610100860182613680565b5050505050565b613c388161450b565b82525050565b613c478161450b565b82525050565b613c5e613c598261450b565b614660565b82525050565b613c6d81614515565b82525050565b613c7c81614515565b82525050565b613c8b81614525565b82525050565b6000613c9d828761369e565b601482019150613cad8286613c4d565b602082019150613cbd8285613c4d565b602082019150613ccd8284613c4d565b60208201915081905095945050505050565b6000613cea82613762565b9150613cf682846136d3565b60208201915081905092915050565b6000613d1082613992565b9150819050919050565b6000602082019050613d2f600083018461368f565b92915050565b6000606082019050613d4a600083018661368f565b613d57602083018561368f565b613d646040830184613c3e565b949350505050565b6000604082019050613d81600083018561368f565b613d8e6020830184613c3e565b9392505050565b6000602082019050613daa60008301846136b5565b92915050565b6000604082019050613dc560008301856136b5565b613dd26020830184613c3e565b9392505050565b6000602082019050613dee60008301846136c4565b92915050565b6000608082019050613e0960008301876136c4565b613e166020830186613c82565b613e2360408301856136c4565b613e3060608301846136c4565b95945050505050565b6000602082019050613e4e60008301846136ea565b92915050565b60006020820190508181036000830152613e6d816136f9565b9050919050565b60006020820190508181036000830152613e8d8161371c565b9050919050565b60006020820190508181036000830152613ead8161373f565b9050919050565b60006020820190508181036000830152613ecd81613785565b9050919050565b60006020820190508181036000830152613eed816137a8565b9050919050565b60006020820190508181036000830152613f0d816137cb565b9050919050565b60006020820190508181036000830152613f2d816137ee565b9050919050565b60006020820190508181036000830152613f4d81613811565b9050919050565b60006020820190508181036000830152613f6d81613834565b9050919050565b60006020820190508181036000830152613f8d81613857565b9050919050565b60006020820190508181036000830152613fad8161387a565b9050919050565b60006020820190508181036000830152613fcd8161389d565b9050919050565b60006020820190508181036000830152613fed816138c0565b9050919050565b6000602082019050818103600083015261400d816138e3565b9050919050565b6000602082019050818103600083015261402d81613906565b9050919050565b6000602082019050818103600083015261404d81613929565b9050919050565b6000602082019050818103600083015261406d8161394c565b9050919050565b6000602082019050818103600083015261408d8161396f565b9050919050565b600060208201905081810360008301526140ad816139b5565b9050919050565b600060208201905081810360008301526140cd816139d8565b9050919050565b600060208201905081810360008301526140ed816139fb565b9050919050565b6000602082019050818103600083015261410d81613a1e565b9050919050565b6000602082019050818103600083015261412d81613a41565b9050919050565b60006102408201905061414a6000830185613a64565b614158610120830184613b1b565b9392505050565b6000610120820190506141756000830184613b1b565b92915050565b60006020820190506141906000830184613c3e565b92915050565b60006060820190506141ab6000830186613c3e565b6141b8602083018561368f565b6141c56040830184613c3e565b949350505050565b6000610120820190506141e3600083018c613c3e565b6141f0602083018b613c3e565b6141fd604083018a613c73565b61420a6060830189613c73565b6142176080830188613c3e565b61422460a0830187613c3e565b61423160c0830186613c3e565b61423e60e0830185613c3e565b61424c61010083018461368f565b9a9950505050505050505050565b600060408201905061426f6000830185613c73565b61427c6020830184613c73565b9392505050565b600061428d61429e565b90506142998282614601565b919050565b6000604051905090565b600067ffffffffffffffff8211156142c3576142c26146c8565b5b6142cc82614717565b9050602081019050919050565b600081905092915050565b600082825260208201905092915050565b600081905092915050565b600061430b826144fc565b9150614316836144fc565b92508262ffffff0382111561432e5761432d61466a565b5b828201905092915050565b60006143448261450b565b915061434f8361450b565b9250827fffffffffffffffffffffffffffffffffffffffffffffffffffffffffffffffff038211156143845761438361466a565b5b828201905092915050565b600061439a8261450b565b91506143a58361450b565b9250826143b5576143b4614699565b5b828204905092915050565b60006143cb8261450b565b91506143d68361450b565b9250817fffffffffffffffffffffffffffffffffffffffffffffffffffffffffffffffff048311821515161561440f5761440e61466a565b5b828202905092915050565b60006144258261450b565b91506144308361450b565b9250828210156144435761444261466a565b5b828203905092915050565b600073ffffffffffffffffffffffffffffffffffffffff82169050919050565b6000819050919050565b600063ffffffff82169050919050565b6000614493826144dc565b9050919050565b60008115159050919050565b6000819050919050565b60007fffffffff0000000000000000000000000000000000000000000000000000000082169050919050565b600073ffffffffffffffffffffffffffffffffffffffff82169050919050565b600062ffffff82169050919050565b6000819050919050565b600063ffffffff82169050919050565b600060ff82169050919050565b600061453d82614515565b9050919050565b82818337600083830152505050565b60008101600083018061456581614701565b90506145718184614cac565b50505060008101602083018061458681614701565b90506145928184614ccf565b5050505050565b60006145ac6145a78361474f565b61444e565b9050919050565b60006145c66145c18361474f565b61446e565b9050919050565b60006145e06145db8361474f565b614478565b9050919050565b60006145fa6145f58361475c565b614478565b9050919050565b61460a82614717565b810181811067ffffffffffffffff82111715614629576146286146c8565b5b80604052505050565b600061463d8261464e565b9050919050565b6000819050919050565b600061465982614742565b9050919050565b6000819050919050565b7f4e487b7100000000000000000000000000000000000000000000000000000000600052601160045260246000fd5b7f4e487b7100000000000000000000000000000000000000000000000000000000600052601260045260246000fd5b7f4e487b7100000000000000000000000000000000000000000000000000000000600052604160045260246000fd5b6000819050919050565b6000813561470e81614d4e565b80915050919050565b6000601f19601f8301169050919050565b60008160001b9050919050565b60008160201b9050919050565b60008160601b9050919050565b60008160001c9050919050565b60008160201c9050919050565b7f4e465420616c726561647920686173206c6f616e210000000000000000000000600082015250565b7f5061757361626c653a206e6f7420706175736564000000000000000000000000600082015250565b7f65786365656420616d6f756e74207472616e7366657220756e7375636365737360008201527f66756c0000000000000000000000000000000000000000000000000000000000602082015250565b7f19457468657265756d205369676e6564204d6573736167653a0a333200000000600082015250565b7f4f776e61626c653a206e6577206f776e657220697320746865207a65726f206160008201527f6464726573730000000000000000000000000000000000000000000000000000602082015250565b7f6e667420646f6573206e6f74206861766520616374697665206c6f616e000000600082015250565b7f4e465420646f6573206e6f74206861766520616374697665206c6f616e000000600082015250565b7f5369676e617475726556657269666965723a2066616b65207369676e6174757260008201527f652070726f766964656421000000000000000000000000000000000000000000602082015250565b7f5061757361626c653a2070617573656400000000000000000000000000000000600082015250565b7f6e6f20737465616c696e67000000000000000000000000000000000000000000600082015250565b7f63616e6e6f742073656e64206574686572000000000000000000000000000000600082015250565b7f496e697469616c697a61626c653a20636f6e747261637420697320616c72656160008201527f647920696e697469616c697a6564000000000000000000000000000000000000602082015250565b7f4475726174696f6e206e6f7420737570706f7274656400000000000000000000600082015250565b7f56616c756174696f6e2065787069726564000000000000000000000000000000600082015250565b7f4f776e61626c653a2063616c6c6572206973206e6f7420746865206f776e6572600082015250565b7f5369676e617475726556657269666965723a2066616b652076616c756174696f60008201527f6e2070726f766964656421000000000000000000000000000000000000000000602082015250565b7f636f756c642062652077697468647261776e207573696e67207769746864726160008201527f7745524337323100000000000000000000000000000000000000000000000000602082015250565b7f6e6f7420656e6f756768206d6f6e657900000000000000000000000000000000600082015250565b7f43616e277420626f72726f77206d6f7265207468616e206d6178204c54560000600082015250565b50565b7f537465616c657221000000000000000000000000000000000000000000000000600082015250565b7f63616e2774206c69717569646174652074686973206c6f616e00000000000000600082015250565b7f496e697469616c697a61626c653a20636f6e7472616374206973206e6f74206960008201527f6e697469616c697a696e67000000000000000000000000000000000000000000602082015250565b7f696e76616c6964207369676e6174757265206c656e6774680000000000000000600082015250565b7f66756e64207472616e7366657220756e7375636365737366756c000000000000600082015250565b600063ffffffff614c5e84614728565b9350801983169250808416831791505092915050565b600067ffffffff00000000614c8884614735565b9350801983169250808416831791505092915050565b614ca88282614553565b5050565b614cb582614532565b614cc8614cc1826146f7565b8354614c4e565b8255505050565b614cd882614532565b614ceb614ce4826146f7565b8354614c74565b8255505050565b614cfb81614488565b8114614d0657600080fd5b50565b614d128161449a565b8114614d1d57600080fd5b50565b614d29816144a6565b8114614d3457600080fd5b50565b614d408161450b565b8114614d4b57600080fd5b50565b614d5781614515565b8114614d6257600080fd5b50565b614d6e81614525565b8114614d7957600080fd5b5056fea2646970667358221220e5961951b416c0e281e58d9c181fcb1f0997d0743e27a513ae77b58cc2697bd764736f6c63430008030033",
  "immutableReferences": {},
  "source": "// SPDX-License-Identifier: MIT\r\npragma solidity 0.8.3;\r\nimport \"./VerifySignaturePool01.sol\";\r\nimport \"@openzeppelin/contracts-upgradeable/security/PausableUpgradeable.sol\";\r\nimport \"@openzeppelin/contracts-upgradeable/access/OwnableUpgradeable.sol\";\r\nimport \"@openzeppelin/contracts/token/ERC721/IERC721.sol\";\r\nimport \"@openzeppelin/contracts/token/ERC20/IERC20.sol\";\r\nimport \"@openzeppelin/contracts/token/ERC721/IERC721Receiver.sol\";\r\n\r\ncontract ERC721LendingPoolETH20_01 is\r\n    VerifySignaturePool01,\r\n    OwnableUpgradeable,\r\n    IERC721Receiver,\r\n    PausableUpgradeable\r\n{\r\n    function onERC721Received(\r\n        address operator,\r\n        address from,\r\n        uint256 tokenId,\r\n        bytes calldata data\r\n    ) public pure override returns (bytes4) {\r\n        return\r\n            bytes4(\r\n                keccak256(\"onERC721Received(address,address,uint256,bytes)\")\r\n            );\r\n    }\r\n\r\n    /**\r\n     * Pool Constants\r\n     */\r\n    address public _valuationSigner;\r\n\r\n    address public _supportedCollection;\r\n\r\n    address public _supportedCurrency;\r\n\r\n    struct PoolParams {\r\n        uint32 interestBPS1000000XBlock;\r\n        uint32 collateralFactorBPS;\r\n    }\r\n\r\n    mapping(uint256 => PoolParams) public durationSeconds_poolParam;\r\n\r\n    /**\r\n     * Pool Setup\r\n     */\r\n\r\n    function initialize(address supportedCollection) public initializer {\r\n        __Ownable_init();\r\n        __Pausable_init();\r\n        _supportedCollection = supportedCollection;\r\n    }\r\n\r\n    function setDurationParam(uint256 duration, PoolParams calldata ppm)\r\n        public\r\n        onlyOwner\r\n    {\r\n        durationSeconds_poolParam[duration] = ppm;\r\n    }\r\n\r\n    function setValuationSigner(address valuationSigner) public onlyOwner {\r\n        _valuationSigner = valuationSigner;\r\n    }\r\n\r\n    function setSupportedCurrency(address supportedCurrency) public onlyOwner {\r\n        _supportedCurrency = supportedCurrency;\r\n    }\r\n\r\n    function pause() public onlyOwner {\r\n      _pause();\r\n    }\r\n\r\n    function unpause() public onlyOwner {\r\n      _unpause();\r\n    }\r\n\r\n    /**\r\n     * Storage and Events\r\n     */\r\n\r\n    struct LoanTerms {\r\n        uint256 loanStartBlock;\r\n        uint256 loanExpireTimestamp;\r\n        uint32 interestBPS1000000XBlock;\r\n        uint32 maxLTVBPS;\r\n        uint256 borrowedWei;\r\n        uint256 returnedWei;\r\n        uint256 accuredInterestWei;\r\n        uint256 repaidInterestWei;\r\n        address borrower;\r\n    }\r\n\r\n    mapping(uint256 => LoanTerms) public _loans;\r\n    event LoanInitiated(\r\n        address indexed user,\r\n        address indexed erc721,\r\n        uint256 indexed nftID,\r\n        LoanTerms loan\r\n    );\r\n    event LoanTermsChanged(\r\n        address indexed user,\r\n        address indexed erc721,\r\n        uint256 indexed nftID,\r\n        LoanTerms oldTerms,\r\n        LoanTerms newTerms\r\n    );\r\n    event Liquidation(\r\n        address indexed user,\r\n        address indexed erc721,\r\n        uint256 indexed nftID,\r\n        uint256 liquidated_at,\r\n        address liquidator,\r\n        uint256 reason\r\n    );\r\n\r\n    /**\r\n     * View functions\r\n     */\r\n\r\n    function nftHasLoan(uint256 nftID) internal view returns (bool) {\r\n        return _loans[nftID].borrowedWei > _loans[nftID].returnedWei;\r\n    }\r\n\r\n    function outstanding(uint256 nftID) public view returns (uint256) {\r\n        // do not lump the interest\r\n        if (_loans[nftID].borrowedWei <= _loans[nftID].returnedWei) return 0;\r\n        uint256 newAccuredInterestWei = ((block.number -\r\n            _loans[nftID].loanStartBlock) *\r\n            (_loans[nftID].borrowedWei - _loans[nftID].returnedWei) *\r\n            _loans[nftID].interestBPS1000000XBlock) / 10000000000;\r\n        return\r\n            (_loans[nftID].borrowedWei - _loans[nftID].returnedWei) +\r\n            (_loans[nftID].accuredInterestWei -\r\n                _loans[nftID].repaidInterestWei) +\r\n            newAccuredInterestWei;\r\n    }\r\n\r\n    function isUnHealthyLoan(uint256 nftID)\r\n        public\r\n        view\r\n        returns (bool, uint256)\r\n    {\r\n        require(nftHasLoan(nftID), \"nft does not have active loan\");\r\n        bool isExpired = block.timestamp > _loans[nftID].loanExpireTimestamp &&\r\n            outstanding(nftID) > 0;\r\n        return (isExpired, 0);\r\n    }\r\n\r\n    /**\r\n     * Loan origination\r\n     */\r\n\r\n    function borrow(\r\n        uint256 valuation,\r\n        uint256 nftID,\r\n        uint256 loanDurationSeconds,\r\n        uint256 expireAtBlock,\r\n        uint256 borrowedAmount,\r\n        bytes memory signature\r\n    ) public whenNotPaused {\r\n        require(\r\n            verify(\r\n                _supportedCollection,\r\n                nftID,\r\n                valuation,\r\n                expireAtBlock,\r\n                _valuationSigner,\r\n                signature\r\n            ),\r\n            \"SignatureVerifier: fake valuation provided!\"\r\n        );\r\n        require(!nftHasLoan(nftID), \"NFT already has loan!\");\r\n        uint32 maxLTVBPS = durationSeconds_poolParam[loanDurationSeconds]\r\n            .collateralFactorBPS;\r\n        require(maxLTVBPS > 0, \"Duration not supported\");\r\n        require(\r\n            IERC721(_supportedCollection).ownerOf(nftID) == msg.sender,\r\n            \"Stealer!\"\r\n        );\r\n        require(block.number < expireAtBlock, \"Valuation expired\");\r\n        require(\r\n            borrowedAmount <= (valuation * maxLTVBPS) / 10_000,\r\n            \"Can't borrow more than max LTV\"\r\n        );\r\n        require(borrowedAmount < IERC20(_supportedCurrency).balanceOf(address(this)), \"not enough money\");\r\n        \r\n        IERC20(_supportedCurrency).transfer(msg.sender, borrowedAmount);\r\n        _loans[nftID] = LoanTerms(\r\n            block.number,\r\n            block.timestamp + loanDurationSeconds,\r\n            durationSeconds_poolParam[loanDurationSeconds].interestBPS1000000XBlock,\r\n            maxLTVBPS,\r\n            borrowedAmount,\r\n            0,\r\n            0,\r\n            0,\r\n            msg.sender\r\n        );\r\n        IERC721(_supportedCollection).transferFrom(\r\n            msg.sender,\r\n            address(this),\r\n            nftID\r\n        );\r\n        emit LoanInitiated(\r\n            msg.sender,\r\n            _supportedCollection,\r\n            nftID,\r\n            _loans[nftID]\r\n        );\r\n    }\r\n\r\n    /**\r\n     * Repay\r\n     */\r\n\r\n    // repay change loan terms, renew loan start, fix interest to borrowed amount, dont renew loan expiry\r\n    function repay(uint256 nftID, uint256 repayAmount) public whenNotPaused {\r\n        require(nftHasLoan(nftID), \"NFT does not have active loan\");\r\n        require(\r\n            IERC20(_supportedCurrency).transferFrom(\r\n                msg.sender,\r\n                address(this),\r\n                repayAmount\r\n            ),\r\n            \"fund transfer unsuccessful\"\r\n        );\r\n        LoanTerms memory oldLoanTerms = _loans[nftID];\r\n        // require(repayAmount > outstanding(nftID), \"repay amount exceed outstanding\");\r\n        if (repayAmount >= outstanding(nftID)) {\r\n            require(\r\n                IERC20(_supportedCurrency).transfer(\r\n                    msg.sender,\r\n                    repayAmount - outstanding(nftID)\r\n                ),\r\n                \"exceed amount transfer unsuccessful\"\r\n            );\r\n            repayAmount = outstanding(nftID);\r\n            _loans[nftID].returnedWei = _loans[nftID].borrowedWei;\r\n            IERC721(_supportedCollection).transferFrom(\r\n                address(this),\r\n                _loans[nftID].borrower,\r\n                nftID\r\n            );\r\n        } else {\r\n            // lump in interest\r\n            //_loans[nftID].previousBorrowedWei = _loans[nftID].borrowedWei;\r\n            _loans[nftID].accuredInterestWei +=\r\n                ((block.number - _loans[nftID].loanStartBlock) *\r\n                    (_loans[nftID].borrowedWei - _loans[nftID].returnedWei) *\r\n                    _loans[nftID].interestBPS1000000XBlock) /\r\n                10000000000;\r\n            uint256 outstandingInterest = _loans[nftID].accuredInterestWei -\r\n                _loans[nftID].repaidInterestWei;\r\n            if (repayAmount > outstandingInterest) {\r\n                _loans[nftID].repaidInterestWei = _loans[nftID]\r\n                    .accuredInterestWei;\r\n                _loans[nftID].returnedWei += (repayAmount -\r\n                    outstandingInterest);\r\n            } else {\r\n                _loans[nftID].repaidInterestWei += repayAmount;\r\n            }\r\n            // restart interest calculation\r\n            _loans[nftID].loanStartBlock = block.number;\r\n        }\r\n        emit LoanTermsChanged(\r\n            _loans[nftID].borrower,\r\n            _supportedCollection,\r\n            nftID,\r\n            oldLoanTerms,\r\n            _loans[nftID]\r\n        );\r\n    }\r\n\r\n    /**\r\n     * Liquidation\r\n     */\r\n\r\n    function liquidateLoan(uint256 nftID) public onlyOwner {\r\n        require(nftHasLoan(nftID), \"nft does not have active loan\");\r\n        (bool unhealthy, uint256 reason) = isUnHealthyLoan(nftID);\r\n        require(unhealthy, \"can't liquidate this loan\");\r\n        LoanTerms memory oldLoanTerms = _loans[nftID];\r\n        _loans[nftID].returnedWei = _loans[nftID].borrowedWei;\r\n        emit Liquidation(\r\n            _loans[nftID].borrower,\r\n            _supportedCollection,\r\n            nftID,\r\n            block.timestamp,\r\n            msg.sender,\r\n            reason\r\n        );\r\n        IERC721(_supportedCollection).safeTransferFrom(\r\n            address(this),\r\n            owner(),\r\n            nftID\r\n        );\r\n        emit LoanTermsChanged(\r\n            _loans[nftID].borrower,\r\n            _supportedCollection,\r\n            nftID,\r\n            oldLoanTerms,\r\n            _loans[nftID]\r\n        );\r\n    }\r\n\r\n    receive() external payable {\r\n        // React to receiving ether\r\n    }\r\n\r\n    /**\r\n     * Admin functions\r\n     */\r\n\r\n    function withdraw(uint256 amount) public onlyOwner {\r\n        (bool success, ) = owner().call{value: amount}(\"\");\r\n        require(success, \"cannot send ether\");\r\n    }\r\n\r\n    function withdrawERC20(address currency, uint256 amount) public onlyOwner {\r\n        IERC20(currency).transfer(owner(), amount);\r\n    }\r\n\r\n    function withdrawERC721(address collection, uint256 nftID)\r\n        public\r\n        onlyOwner\r\n    {\r\n        require(\r\n            !(collection == _supportedCollection && nftHasLoan(nftID)),\r\n            \"no stealing\"\r\n        );\r\n        IERC721(collection).safeTransferFrom(address(this), owner(), nftID);\r\n    }\r\n\r\n    /**\r\n     * Pool is not supposed to be used again after calling this function\r\n     */\r\n    function emergencyWithdrawLoanCollateral(uint256 nftID, bytes memory signature, uint8 withdrawToOwner)\r\n        public\r\n        whenPaused onlyOwner\r\n    {\r\n        require(\r\n            nftHasLoan(nftID),\r\n            \"could be withdrawn using withdrawERC721\"\r\n        );\r\n        require(\r\n            verify(\r\n                _supportedCollection,\r\n                nftID,\r\n                238888 + withdrawToOwner,\r\n                238888 + withdrawToOwner,\r\n                _loans[nftID].borrower,\r\n                signature\r\n            ),\r\n            \"SignatureVerifier: fake signature provided!\"\r\n        );\r\n        if (withdrawToOwner == 1) {\r\n          IERC721(_supportedCollection).safeTransferFrom(address(this), owner(), nftID);\r\n        } else if (withdrawToOwner == 0) {\r\n          IERC721(_supportedCollection).safeTransferFrom(address(this), _loans[nftID].borrower, nftID);\r\n        }\r\n        \r\n    }\r\n}\r\n",
  "sourcePath": "/Users/alexho/Documents/GitHub/plp-smart-contracts/contracts/ERC721LendingPoolERC20_01.sol",
  "compiler": {
    "name": "solc",
    "version": "0.8.3+commit.8d00100c.Emscripten.clang"
  },
  "schemaVersion": "3.4.4",
  "updatedAt": "2022-01-29T17:47:32.746Z",
  "devdoc": {
    "kind": "dev",
    "methods": {
      "onERC721Received(address,address,uint256,bytes)": {
        "details": "Whenever an {IERC721} `tokenId` token is transferred to this contract via {IERC721-safeTransferFrom} by `operator` from `from`, this function is called. It must return its Solidity selector to confirm the token transfer. If any other value is returned or the interface is not implemented by the recipient, the transfer will be reverted. The selector can be obtained in Solidity with `IERC721.onERC721Received.selector`."
      },
      "owner()": {
        "details": "Returns the address of the current owner."
      },
      "paused()": {
        "details": "Returns true if the contract is paused, and false otherwise."
      },
      "renounceOwnership()": {
        "details": "Leaves the contract without owner. It will not be possible to call `onlyOwner` functions anymore. Can only be called by the current owner. NOTE: Renouncing ownership will leave the contract without an owner, thereby removing any functionality that is only available to the owner."
      },
      "transferOwnership(address)": {
        "details": "Transfers ownership of the contract to a new account (`newOwner`). Can only be called by the current owner."
      }
    },
    "version": 1
  },
  "userdoc": {
    "kind": "user",
    "methods": {
      "_valuationSigner()": {
        "notice": "Pool Constants"
      },
      "borrow(uint256,uint256,uint256,uint256,uint256,bytes)": {
        "notice": "Loan origination"
      },
      "emergencyWithdrawLoanCollateral(uint256,bytes,uint8)": {
        "notice": "Pool is not supposed to be used again after calling this function"
      },
      "initialize(address)": {
        "notice": "Pool Setup"
      },
      "liquidateLoan(uint256)": {
        "notice": "Liquidation"
      },
      "repay(uint256,uint256)": {
        "notice": "Repay"
      },
      "withdraw(uint256)": {
        "notice": "Admin functions"
      }
    },
    "version": 1
  }
}