{
  "contractName": "ERC721LendingPoolETH01",
  "abi": [
    {
      "anonymous": false,
      "inputs": [
        {
          "indexed": true,
          "internalType": "address",
          "name": "user",
          "type": "address"
        },
        {
          "indexed": true,
          "internalType": "address",
          "name": "erc721",
          "type": "address"
        },
        {
          "indexed": true,
          "internalType": "uint256",
          "name": "nftID",
          "type": "uint256"
        },
        {
          "indexed": false,
          "internalType": "uint256",
          "name": "liquidated_at",
          "type": "uint256"
        },
        {
          "indexed": false,
          "internalType": "address",
          "name": "liquidator",
          "type": "address"
        },
        {
          "indexed": false,
          "internalType": "uint256",
          "name": "reason",
          "type": "uint256"
        }
      ],
      "name": "Liquidation",
      "type": "event"
    },
    {
      "anonymous": false,
      "inputs": [
        {
          "indexed": true,
          "internalType": "address",
          "name": "user",
          "type": "address"
        },
        {
          "indexed": true,
          "internalType": "address",
          "name": "erc721",
          "type": "address"
        },
        {
          "indexed": true,
          "internalType": "uint256",
          "name": "nftID",
          "type": "uint256"
        },
        {
          "components": [
            {
              "internalType": "uint256",
              "name": "loanStartBlock",
              "type": "uint256"
            },
            {
              "internalType": "uint256",
              "name": "loanExpireTimestamp",
              "type": "uint256"
            },
            {
              "internalType": "uint32",
              "name": "interestBPS1000000XBlock",
              "type": "uint32"
            },
            {
              "internalType": "uint32",
              "name": "maxLTVBPS",
              "type": "uint32"
            },
            {
              "internalType": "uint256",
              "name": "borrowedWei",
              "type": "uint256"
            },
            {
              "internalType": "uint256",
              "name": "returnedWei",
              "type": "uint256"
            },
            {
              "internalType": "uint256",
              "name": "accuredInterestWei",
              "type": "uint256"
            },
            {
              "internalType": "uint256",
              "name": "repaidInterestWei",
              "type": "uint256"
            },
            {
              "internalType": "address",
              "name": "borrower",
              "type": "address"
            }
          ],
          "indexed": false,
          "internalType": "struct ERC721LendingPoolETH01.LoanTerms",
          "name": "loan",
          "type": "tuple"
        }
      ],
      "name": "LoanInitiated",
      "type": "event"
    },
    {
      "anonymous": false,
      "inputs": [
        {
          "indexed": true,
          "internalType": "address",
          "name": "user",
          "type": "address"
        },
        {
          "indexed": true,
          "internalType": "address",
          "name": "erc721",
          "type": "address"
        },
        {
          "indexed": true,
          "internalType": "uint256",
          "name": "nftID",
          "type": "uint256"
        },
        {
          "components": [
            {
              "internalType": "uint256",
              "name": "loanStartBlock",
              "type": "uint256"
            },
            {
              "internalType": "uint256",
              "name": "loanExpireTimestamp",
              "type": "uint256"
            },
            {
              "internalType": "uint32",
              "name": "interestBPS1000000XBlock",
              "type": "uint32"
            },
            {
              "internalType": "uint32",
              "name": "maxLTVBPS",
              "type": "uint32"
            },
            {
              "internalType": "uint256",
              "name": "borrowedWei",
              "type": "uint256"
            },
            {
              "internalType": "uint256",
              "name": "returnedWei",
              "type": "uint256"
            },
            {
              "internalType": "uint256",
              "name": "accuredInterestWei",
              "type": "uint256"
            },
            {
              "internalType": "uint256",
              "name": "repaidInterestWei",
              "type": "uint256"
            },
            {
              "internalType": "address",
              "name": "borrower",
              "type": "address"
            }
          ],
          "indexed": false,
          "internalType": "struct ERC721LendingPoolETH01.LoanTerms",
          "name": "oldTerms",
          "type": "tuple"
        },
        {
          "components": [
            {
              "internalType": "uint256",
              "name": "loanStartBlock",
              "type": "uint256"
            },
            {
              "internalType": "uint256",
              "name": "loanExpireTimestamp",
              "type": "uint256"
            },
            {
              "internalType": "uint32",
              "name": "interestBPS1000000XBlock",
              "type": "uint32"
            },
            {
              "internalType": "uint32",
              "name": "maxLTVBPS",
              "type": "uint32"
            },
            {
              "internalType": "uint256",
              "name": "borrowedWei",
              "type": "uint256"
            },
            {
              "internalType": "uint256",
              "name": "returnedWei",
              "type": "uint256"
            },
            {
              "internalType": "uint256",
              "name": "accuredInterestWei",
              "type": "uint256"
            },
            {
              "internalType": "uint256",
              "name": "repaidInterestWei",
              "type": "uint256"
            },
            {
              "internalType": "address",
              "name": "borrower",
              "type": "address"
            }
          ],
          "indexed": false,
          "internalType": "struct ERC721LendingPoolETH01.LoanTerms",
          "name": "newTerms",
          "type": "tuple"
        }
      ],
      "name": "LoanTermsChanged",
      "type": "event"
    },
    {
      "anonymous": false,
      "inputs": [
        {
          "indexed": true,
          "internalType": "address",
          "name": "previousOwner",
          "type": "address"
        },
        {
          "indexed": true,
          "internalType": "address",
          "name": "newOwner",
          "type": "address"
        }
      ],
      "name": "OwnershipTransferred",
      "type": "event"
    },
    {
      "anonymous": false,
      "inputs": [
        {
          "indexed": false,
          "internalType": "address",
          "name": "account",
          "type": "address"
        }
      ],
      "name": "Paused",
      "type": "event"
    },
    {
      "anonymous": false,
      "inputs": [
        {
          "indexed": false,
          "internalType": "address",
          "name": "account",
          "type": "address"
        }
      ],
      "name": "Unpaused",
      "type": "event"
    },
    {
      "inputs": [
        {
          "internalType": "uint256",
          "name": "",
          "type": "uint256"
        }
      ],
      "name": "_loans",
      "outputs": [
        {
          "internalType": "uint256",
          "name": "loanStartBlock",
          "type": "uint256"
        },
        {
          "internalType": "uint256",
          "name": "loanExpireTimestamp",
          "type": "uint256"
        },
        {
          "internalType": "uint32",
          "name": "interestBPS1000000XBlock",
          "type": "uint32"
        },
        {
          "internalType": "uint32",
          "name": "maxLTVBPS",
          "type": "uint32"
        },
        {
          "internalType": "uint256",
          "name": "borrowedWei",
          "type": "uint256"
        },
        {
          "internalType": "uint256",
          "name": "returnedWei",
          "type": "uint256"
        },
        {
          "internalType": "uint256",
          "name": "accuredInterestWei",
          "type": "uint256"
        },
        {
          "internalType": "uint256",
          "name": "repaidInterestWei",
          "type": "uint256"
        },
        {
          "internalType": "address",
          "name": "borrower",
          "type": "address"
        }
      ],
      "stateMutability": "view",
      "type": "function"
    },
    {
      "inputs": [],
      "name": "_supportedCollection",
      "outputs": [
        {
          "internalType": "address",
          "name": "",
          "type": "address"
        }
      ],
      "stateMutability": "view",
      "type": "function"
    },
    {
      "inputs": [],
      "name": "_valuationSigner",
      "outputs": [
        {
          "internalType": "address",
          "name": "",
          "type": "address"
        }
      ],
      "stateMutability": "view",
      "type": "function"
    },
    {
      "inputs": [
        {
          "internalType": "uint256",
          "name": "",
          "type": "uint256"
        }
      ],
      "name": "durationSeconds_poolParam",
      "outputs": [
        {
          "internalType": "uint32",
          "name": "interestBPS1000000XBlock",
          "type": "uint32"
        },
        {
          "internalType": "uint32",
          "name": "collateralFactorBPS",
          "type": "uint32"
        }
      ],
      "stateMutability": "view",
      "type": "function"
    },
    {
      "inputs": [
        {
          "internalType": "bytes32",
          "name": "_messageHash",
          "type": "bytes32"
        }
      ],
      "name": "getEthSignedMessageHash",
      "outputs": [
        {
          "internalType": "bytes32",
          "name": "",
          "type": "bytes32"
        }
      ],
      "stateMutability": "pure",
      "type": "function"
    },
    {
      "inputs": [
        {
          "internalType": "address",
          "name": "nft",
          "type": "address"
        },
        {
          "internalType": "uint256",
          "name": "punkID",
          "type": "uint256"
        },
        {
          "internalType": "uint256",
          "name": "valuation",
          "type": "uint256"
        },
        {
          "internalType": "uint256",
          "name": "expireAtBlock",
          "type": "uint256"
        }
      ],
      "name": "getMessageHash",
      "outputs": [
        {
          "internalType": "bytes32",
          "name": "",
          "type": "bytes32"
        }
      ],
      "stateMutability": "pure",
      "type": "function"
    },
    {
      "inputs": [],
      "name": "owner",
      "outputs": [
        {
          "internalType": "address",
          "name": "",
          "type": "address"
        }
      ],
      "stateMutability": "view",
      "type": "function"
    },
    {
      "inputs": [],
      "name": "paused",
      "outputs": [
        {
          "internalType": "bool",
          "name": "",
          "type": "bool"
        }
      ],
      "stateMutability": "view",
      "type": "function"
    },
    {
      "inputs": [],
      "name": "renounceOwnership",
      "outputs": [],
      "stateMutability": "nonpayable",
      "type": "function"
    },
    {
      "inputs": [
        {
          "internalType": "address",
          "name": "newOwner",
          "type": "address"
        }
      ],
      "name": "transferOwnership",
      "outputs": [],
      "stateMutability": "nonpayable",
      "type": "function"
    },
    {
      "inputs": [
        {
          "internalType": "address",
          "name": "nft",
          "type": "address"
        },
        {
          "internalType": "uint256",
          "name": "punkID",
          "type": "uint256"
        },
        {
          "internalType": "uint256",
          "name": "valuation",
          "type": "uint256"
        },
        {
          "internalType": "uint256",
          "name": "expireAtBlock",
          "type": "uint256"
        },
        {
          "internalType": "address",
          "name": "_signer",
          "type": "address"
        },
        {
          "internalType": "bytes",
          "name": "signature",
          "type": "bytes"
        }
      ],
      "name": "verify",
      "outputs": [
        {
          "internalType": "bool",
          "name": "",
          "type": "bool"
        }
      ],
      "stateMutability": "pure",
      "type": "function"
    },
    {
      "stateMutability": "payable",
      "type": "receive"
    },
    {
      "inputs": [
        {
          "internalType": "address",
          "name": "operator",
          "type": "address"
        },
        {
          "internalType": "address",
          "name": "from",
          "type": "address"
        },
        {
          "internalType": "uint256",
          "name": "tokenId",
          "type": "uint256"
        },
        {
          "internalType": "bytes",
          "name": "data",
          "type": "bytes"
        }
      ],
      "name": "onERC721Received",
      "outputs": [
        {
          "internalType": "bytes4",
          "name": "",
          "type": "bytes4"
        }
      ],
      "stateMutability": "pure",
      "type": "function"
    },
    {
      "inputs": [
        {
          "internalType": "address",
          "name": "supportedCollection",
          "type": "address"
        }
      ],
      "name": "initialize",
      "outputs": [],
      "stateMutability": "nonpayable",
      "type": "function"
    },
    {
      "inputs": [
        {
          "internalType": "uint256",
          "name": "duration",
          "type": "uint256"
        },
        {
          "components": [
            {
              "internalType": "uint32",
              "name": "interestBPS1000000XBlock",
              "type": "uint32"
            },
            {
              "internalType": "uint32",
              "name": "collateralFactorBPS",
              "type": "uint32"
            }
          ],
          "internalType": "struct ERC721LendingPoolETH01.PoolParams",
          "name": "ppm",
          "type": "tuple"
        }
      ],
      "name": "setDurationParam",
      "outputs": [],
      "stateMutability": "nonpayable",
      "type": "function"
    },
    {
      "inputs": [
        {
          "internalType": "address",
          "name": "valuationSigner",
          "type": "address"
        }
      ],
      "name": "setValuationSigner",
      "outputs": [],
      "stateMutability": "nonpayable",
      "type": "function"
    },
    {
      "inputs": [],
      "name": "pause",
      "outputs": [],
      "stateMutability": "nonpayable",
      "type": "function"
    },
    {
      "inputs": [],
      "name": "unpause",
      "outputs": [],
      "stateMutability": "nonpayable",
      "type": "function"
    },
    {
      "inputs": [
        {
          "internalType": "uint256",
          "name": "nftID",
          "type": "uint256"
        }
      ],
      "name": "outstanding",
      "outputs": [
        {
          "internalType": "uint256",
          "name": "",
          "type": "uint256"
        }
      ],
      "stateMutability": "view",
      "type": "function"
    },
    {
      "inputs": [
        {
          "internalType": "uint256",
          "name": "nftID",
          "type": "uint256"
        }
      ],
      "name": "isUnHealthyLoan",
      "outputs": [
        {
          "internalType": "bool",
          "name": "",
          "type": "bool"
        },
        {
          "internalType": "uint256",
          "name": "",
          "type": "uint256"
        }
      ],
      "stateMutability": "view",
      "type": "function"
    },
    {
      "inputs": [
        {
          "internalType": "uint256",
          "name": "valuation",
          "type": "uint256"
        },
        {
          "internalType": "uint256",
          "name": "nftID",
          "type": "uint256"
        },
        {
          "internalType": "uint256",
          "name": "loanDurationSeconds",
          "type": "uint256"
        },
        {
          "internalType": "uint256",
          "name": "expireAtBlock",
          "type": "uint256"
        },
        {
          "internalType": "uint256",
          "name": "borrowedWei",
          "type": "uint256"
        },
        {
          "internalType": "bytes",
          "name": "signature",
          "type": "bytes"
        }
      ],
      "name": "borrowETH",
      "outputs": [],
      "stateMutability": "nonpayable",
      "type": "function"
    },
    {
      "inputs": [
        {
          "internalType": "uint256",
          "name": "nftID",
          "type": "uint256"
        }
      ],
      "name": "repayETH",
      "outputs": [],
      "stateMutability": "payable",
      "type": "function"
    },
    {
      "inputs": [
        {
          "internalType": "uint256",
          "name": "nftID",
          "type": "uint256"
        }
      ],
      "name": "liquidateLoan",
      "outputs": [],
      "stateMutability": "nonpayable",
      "type": "function"
    },
    {
      "inputs": [
        {
          "internalType": "uint256",
          "name": "amount",
          "type": "uint256"
        }
      ],
      "name": "withdraw",
      "outputs": [],
      "stateMutability": "nonpayable",
      "type": "function"
    },
    {
      "inputs": [
        {
          "internalType": "address",
          "name": "currency",
          "type": "address"
        },
        {
          "internalType": "uint256",
          "name": "amount",
          "type": "uint256"
        }
      ],
      "name": "withdrawERC20",
      "outputs": [],
      "stateMutability": "nonpayable",
      "type": "function"
    },
    {
      "inputs": [
        {
          "internalType": "address",
          "name": "collection",
          "type": "address"
        },
        {
          "internalType": "uint256",
          "name": "nftID",
          "type": "uint256"
        }
      ],
      "name": "withdrawERC721",
      "outputs": [],
      "stateMutability": "nonpayable",
      "type": "function"
    },
    {
      "inputs": [
        {
          "internalType": "uint256",
          "name": "nftID",
          "type": "uint256"
        },
        {
          "internalType": "bytes",
          "name": "signature",
          "type": "bytes"
        },
        {
          "internalType": "uint8",
          "name": "withdrawToOwner",
          "type": "uint8"
        }
      ],
      "name": "emergencyWithdrawLoanCollateral",
      "outputs": [],
      "stateMutability": "nonpayable",
      "type": "function"
    }
  ],
  "bytecode": "0x608060405234801561001057600080fd5b506148ea806100206000396000f3fe6080604052600436106101855760003560e01c8063874a0e73116100d1578063c6600e9a1161008a578063f2fde38b11610064578063f2fde38b1461055e578063f3e414f814610587578063f440be04146105b0578063fa540801146105ed5761018c565b8063c6600e9a146104e3578063cad0f9141461050c578063ccdd9f5d146105355761018c565b8063874a0e73146103b95780638da5cb5b146103f657806394bfd7b014610421578063a1db97821461044c578063bd5c569b14610475578063c4d66de8146104ba5761018c565b80633f4ba83a1161013e578063562f2f1a11610118578063562f2f1a146103375780635c975abb14610360578063715018a61461038b5780638456cb59146103a25761018c565b80633f4ba83a146102b95780634b5f01bf146102d05780634fa22448146102f95761018c565b80630f3f9bbf14610191578063150b7a02146101ce5780631e7d92571461020b5780632247463e146102495780632e1a7d4d146102655780633e22c0081461028e5761018c565b3661018c57005b600080fd5b34801561019d57600080fd5b506101b860048036038101906101b39190613056565b61062a565b6040516101c59190613985565b60405180910390f35b3480156101da57600080fd5b506101f560048036038101906101f09190612f37565b61068e565b6040516102029190613a29565b60405180910390f35b34801561021757600080fd5b50610232600480360381019061022d9190613149565b6106bc565b6040516102409291906139a0565b60405180910390f35b610263600480360381019061025e9190613149565b610745565b005b34801561027157600080fd5b5061028c60048036038101906102879190613149565b610d63565b005b34801561029a57600080fd5b506102a3610e96565b6040516102b0919061390a565b60405180910390f35b3480156102c557600080fd5b506102ce610ebc565b005b3480156102dc57600080fd5b506102f760048036038101906102f29190612ee5565b610f42565b005b34801561030557600080fd5b50610320600480360381019061031b9190613149565b611002565b60405161032e929190613e0a565b60405180910390f35b34801561034357600080fd5b5061035e60048036038101906103599190613215565b611046565b005b34801561036c57600080fd5b50610375611738565b6040516103829190613985565b60405180910390f35b34801561039757600080fd5b506103a061174f565b005b3480156103ae57600080fd5b506103b76117d7565b005b3480156103c557600080fd5b506103e060048036038101906103db9190613149565b61185d565b6040516103ed9190613d2b565b60405180910390f35b34801561040257600080fd5b5061040b6119d8565b604051610418919061390a565b60405180910390f35b34801561042d57600080fd5b50610436611a02565b604051610443919061390a565b60405180910390f35b34801561045857600080fd5b50610473600480360381019061046e9190612fb7565b611a28565b005b34801561048157600080fd5b5061049c60048036038101906104979190613149565b611b3d565b6040516104b199989796959493929190613d7d565b60405180910390f35b3480156104c657600080fd5b506104e160048036038101906104dc9190612ee5565b611bcb565b005b3480156104ef57600080fd5b5061050a600480360381019061050591906131d9565b611d01565b005b34801561051857600080fd5b50610533600480360381019061052e9190613172565b611da4565b005b34801561054157600080fd5b5061055c60048036038101906105579190613149565b612103565b005b34801561056a57600080fd5b5061058560048036038101906105809190612ee5565b61257b565b005b34801561059357600080fd5b506105ae60048036038101906105a99190612fb7565b612673565b005b3480156105bc57600080fd5b506105d760048036038101906105d29190612ff3565b61280b565b6040516105e491906139c9565b60405180910390f35b3480156105f957600080fd5b50610614600480360381019061060f9190613120565b612844565b60405161062191906139c9565b60405180910390f35b6000806106398888888861280b565b9050600061064682612844565b90508473ffffffffffffffffffffffffffffffffffffffff166106698286612874565b73ffffffffffffffffffffffffffffffffffffffff1614925050509695505050505050565b60007f150b7a023d4804d13e8c85fb27262cb750cf6ba9f9dd3bb30d90f482ceeb4b1f905095945050505050565b6000806106c8836128e3565b610707576040517f08c379a00000000000000000000000000000000000000000000000000000000081526004016106fe90613aa4565b60405180910390fd5b6000609a60008581526020019081526020016000206001015442118015610736575060006107348561185d565b115b90508060009250925050915091565b61074d611738565b1561078d576040517f08c379a000000000000000000000000000000000000000000000000000000000815260040161078490613b04565b60405180910390fd5b610796816128e3565b6107d5576040517f08c379a00000000000000000000000000000000000000000000000000000000081526004016107cc90613ac4565b60405180910390fd5b60003490506000609a60008481526020019081526020016000206040518061012001604052908160008201548152602001600182015481526020016002820160009054906101000a900463ffffffff1663ffffffff1663ffffffff1681526020016002820160049054906101000a900463ffffffff1663ffffffff1663ffffffff168152602001600382015481526020016004820154815260200160058201548152602001600682015481526020016007820160009054906101000a900473ffffffffffffffffffffffffffffffffffffffff1673ffffffffffffffffffffffffffffffffffffffff1673ffffffffffffffffffffffffffffffffffffffff168152505090506108e48361185d565b8210610ab85760006108f58461185d565b836109009190613fca565b905061090b8461185d565b9250609a600085815260200190815260200160002060030154609a600086815260200190815260200160002060040181905550609860009054906101000a900473ffffffffffffffffffffffffffffffffffffffff1673ffffffffffffffffffffffffffffffffffffffff166323b872dd30609a600088815260200190815260200160002060070160009054906101000a900473ffffffffffffffffffffffffffffffffffffffff16876040518463ffffffff1660e01b81526004016109d393929190613925565b600060405180830381600087803b1580156109ed57600080fd5b505af1158015610a01573d6000803e3d6000fd5b5050505060003373ffffffffffffffffffffffffffffffffffffffff1682604051610a2b906138f5565b60006040518083038185875af1925050503d8060008114610a68576040519150601f19603f3d011682016040523d82523d6000602084013e610a6d565b606091505b5050905080610ab1576040517f08c379a0000000000000000000000000000000000000000000000000000000008152600401610aa890613b44565b60405180910390fd5b5050610c8c565b6402540be400609a600085815260200190815260200160002060020160009054906101000a900463ffffffff1663ffffffff16609a600086815260200190815260200160002060040154609a600087815260200190815260200160002060030154610b239190613fca565b609a60008781526020019081526020016000206000015443610b459190613fca565b610b4f9190613f70565b610b599190613f70565b610b639190613f3f565b609a60008581526020019081526020016000206005016000828254610b889190613ee9565b925050819055506000609a600085815260200190815260200160002060060154609a600086815260200190815260200160002060050154610bc99190613fca565b905080831115610c4157609a600085815260200190815260200160002060050154609a6000868152602001908152602001600020600601819055508083610c109190613fca565b609a60008681526020019081526020016000206004016000828254610c359190613ee9565b92505081905550610c6f565b82609a60008681526020019081526020016000206006016000828254610c679190613ee9565b925050819055505b43609a600086815260200190815260200160002060000181905550505b82609860009054906101000a900473ffffffffffffffffffffffffffffffffffffffff1673ffffffffffffffffffffffffffffffffffffffff16609a600086815260200190815260200160002060070160009054906101000a900473ffffffffffffffffffffffffffffffffffffffff1673ffffffffffffffffffffffffffffffffffffffff167fb7faaf58a53a3a4bdfdd90dff44b713036c882f23772663c180bf72866f44c1c84609a6000898152602001908152602001600020604051610d56929190613ce4565b60405180910390a4505050565b610d6b61291b565b73ffffffffffffffffffffffffffffffffffffffff16610d896119d8565b73ffffffffffffffffffffffffffffffffffffffff1614610ddf576040517f08c379a0000000000000000000000000000000000000000000000000000000008152600401610dd690613bc4565b60405180910390fd5b6000610de96119d8565b73ffffffffffffffffffffffffffffffffffffffff1682604051610e0c906138f5565b60006040518083038185875af1925050503d8060008114610e49576040519150601f19603f3d011682016040523d82523d6000602084013e610e4e565b606091505b5050905080610e92576040517f08c379a0000000000000000000000000000000000000000000000000000000008152600401610e8990613b44565b60405180910390fd5b5050565b609760009054906101000a900473ffffffffffffffffffffffffffffffffffffffff1681565b610ec461291b565b73ffffffffffffffffffffffffffffffffffffffff16610ee26119d8565b73ffffffffffffffffffffffffffffffffffffffff1614610f38576040517f08c379a0000000000000000000000000000000000000000000000000000000008152600401610f2f90613bc4565b60405180910390fd5b610f40612923565b565b610f4a61291b565b73ffffffffffffffffffffffffffffffffffffffff16610f686119d8565b73ffffffffffffffffffffffffffffffffffffffff1614610fbe576040517f08c379a0000000000000000000000000000000000000000000000000000000008152600401610fb590613bc4565b60405180910390fd5b80609760006101000a81548173ffffffffffffffffffffffffffffffffffffffff021916908373ffffffffffffffffffffffffffffffffffffffff16021790555050565b60996020528060005260406000206000915090508060000160009054906101000a900463ffffffff16908060000160049054906101000a900463ffffffff16905082565b61104e611738565b1561108e576040517f08c379a000000000000000000000000000000000000000000000000000000000815260040161108590613b04565b60405180910390fd5b6110e0609860009054906101000a900473ffffffffffffffffffffffffffffffffffffffff16868886609760009054906101000a900473ffffffffffffffffffffffffffffffffffffffff168661062a565b61111f576040517f08c379a000000000000000000000000000000000000000000000000000000000815260040161111690613be4565b60405180910390fd5b611128856128e3565b15611168576040517f08c379a000000000000000000000000000000000000000000000000000000000815260040161115f90613a44565b60405180910390fd5b60006099600086815260200190815260200160002060000160049054906101000a900463ffffffff16905060008163ffffffff16116111dc576040517f08c379a00000000000000000000000000000000000000000000000000000000081526004016111d390613b84565b60405180910390fd5b3373ffffffffffffffffffffffffffffffffffffffff16609860009054906101000a900473ffffffffffffffffffffffffffffffffffffffff1673ffffffffffffffffffffffffffffffffffffffff16636352211e886040518263ffffffff1660e01b815260040161124e9190613d2b565b60206040518083038186803b15801561126657600080fd5b505afa15801561127a573d6000803e3d6000fd5b505050506040513d601f19601f8201168201806040525081019061129e9190612f0e565b73ffffffffffffffffffffffffffffffffffffffff16146112f4576040517f08c379a00000000000000000000000000000000000000000000000000000000081526004016112eb90613c64565b60405180910390fd5b834310611336576040517f08c379a000000000000000000000000000000000000000000000000000000000815260040161132d90613ba4565b60405180910390fd5b6127108163ffffffff168861134b9190613f70565b6113559190613f3f565b831115611397576040517f08c379a000000000000000000000000000000000000000000000000000000000815260040161138e90613c44565b60405180910390fd5b4783106113d9576040517f08c379a00000000000000000000000000000000000000000000000000000000081526004016113d090613c24565b60405180910390fd5b60405180610120016040528043815260200186426113f79190613ee9565b81526020016099600088815260200190815260200160002060000160009054906101000a900463ffffffff1663ffffffff1681526020018263ffffffff1681526020018481526020016000815260200160008152602001600081526020013373ffffffffffffffffffffffffffffffffffffffff16815250609a6000888152602001908152602001600020600082015181600001556020820151816001015560408201518160020160006101000a81548163ffffffff021916908363ffffffff16021790555060608201518160020160046101000a81548163ffffffff021916908363ffffffff1602179055506080820151816003015560a0820151816004015560c0820151816005015560e082015181600601556101008201518160070160006101000a81548173ffffffffffffffffffffffffffffffffffffffff021916908373ffffffffffffffffffffffffffffffffffffffff16021790555090505085609860009054906101000a900473ffffffffffffffffffffffffffffffffffffffff1673ffffffffffffffffffffffffffffffffffffffff163373ffffffffffffffffffffffffffffffffffffffff167f872dc93aead2083e073cc885fd9a73e19b414626890d68c6251f12ba51f8a3bd609a60008b81526020019081526020016000206040516115e99190613d0f565b60405180910390a4609860009054906101000a900473ffffffffffffffffffffffffffffffffffffffff1673ffffffffffffffffffffffffffffffffffffffff166323b872dd3330896040518463ffffffff1660e01b815260040161165093929190613925565b600060405180830381600087803b15801561166a57600080fd5b505af115801561167e573d6000803e3d6000fd5b5050505060003373ffffffffffffffffffffffffffffffffffffffff16846040516116a8906138f5565b60006040518083038185875af1925050503d80600081146116e5576040519150601f19603f3d011682016040523d82523d6000602084013e6116ea565b606091505b505090508061172e576040517f08c379a000000000000000000000000000000000000000000000000000000000815260040161172590613b44565b60405180910390fd5b5050505050505050565b6000606560009054906101000a900460ff16905090565b61175761291b565b73ffffffffffffffffffffffffffffffffffffffff166117756119d8565b73ffffffffffffffffffffffffffffffffffffffff16146117cb576040517f08c379a00000000000000000000000000000000000000000000000000000000081526004016117c290613bc4565b60405180910390fd5b6117d560006129c5565b565b6117df61291b565b73ffffffffffffffffffffffffffffffffffffffff166117fd6119d8565b73ffffffffffffffffffffffffffffffffffffffff1614611853576040517f08c379a000000000000000000000000000000000000000000000000000000000815260040161184a90613bc4565b60405180910390fd5b61185b612a8b565b565b6000609a600083815260200190815260200160002060040154609a6000848152602001908152602001600020600301541161189b57600090506119d3565b60006402540be400609a600085815260200190815260200160002060020160009054906101000a900463ffffffff1663ffffffff16609a600086815260200190815260200160002060040154609a6000878152602001908152602001600020600301546119089190613fca565b609a6000878152602001908152602001600020600001544361192a9190613fca565b6119349190613f70565b61193e9190613f70565b6119489190613f3f565b905080609a600085815260200190815260200160002060060154609a6000868152602001908152602001600020600501546119839190613fca565b609a600086815260200190815260200160002060040154609a6000878152602001908152602001600020600301546119bb9190613fca565b6119c59190613ee9565b6119cf9190613ee9565b9150505b919050565b6000603360009054906101000a900473ffffffffffffffffffffffffffffffffffffffff16905090565b609860009054906101000a900473ffffffffffffffffffffffffffffffffffffffff1681565b611a3061291b565b73ffffffffffffffffffffffffffffffffffffffff16611a4e6119d8565b73ffffffffffffffffffffffffffffffffffffffff1614611aa4576040517f08c379a0000000000000000000000000000000000000000000000000000000008152600401611a9b90613bc4565b60405180910390fd5b8173ffffffffffffffffffffffffffffffffffffffff1663a9059cbb611ac86119d8565b836040518363ffffffff1660e01b8152600401611ae692919061395c565b602060405180830381600087803b158015611b0057600080fd5b505af1158015611b14573d6000803e3d6000fd5b505050506040513d601f19601f82011682018060405250810190611b3891906130f7565b505050565b609a6020528060005260406000206000915090508060000154908060010154908060020160009054906101000a900463ffffffff16908060020160049054906101000a900463ffffffff16908060030154908060040154908060050154908060060154908060070160009054906101000a900473ffffffffffffffffffffffffffffffffffffffff16905089565b600060019054906101000a900460ff16611bf35760008054906101000a900460ff1615611bfc565b611bfb612b2e565b5b611c3b576040517f08c379a0000000000000000000000000000000000000000000000000000000008152600401611c3290613b64565b60405180910390fd5b60008060019054906101000a900460ff161590508015611c8b576001600060016101000a81548160ff02191690831515021790555060016000806101000a81548160ff0219169083151502179055505b611c93612b3f565b611c9b612ba0565b81609860006101000a81548173ffffffffffffffffffffffffffffffffffffffff021916908373ffffffffffffffffffffffffffffffffffffffff1602179055508015611cfd5760008060016101000a81548160ff0219169083151502179055505b5050565b611d0961291b565b73ffffffffffffffffffffffffffffffffffffffff16611d276119d8565b73ffffffffffffffffffffffffffffffffffffffff1614611d7d576040517f08c379a0000000000000000000000000000000000000000000000000000000008152600401611d7490613bc4565b60405180910390fd5b80609960008481526020019081526020016000208181611d9d91906147d6565b9050505050565b611dac611738565b611deb576040517f08c379a0000000000000000000000000000000000000000000000000000000008152600401611de290613a64565b60405180910390fd5b611df361291b565b73ffffffffffffffffffffffffffffffffffffffff16611e116119d8565b73ffffffffffffffffffffffffffffffffffffffff1614611e67576040517f08c379a0000000000000000000000000000000000000000000000000000000008152600401611e5e90613bc4565b60405180910390fd5b611e70836128e3565b611eaf576040517f08c379a0000000000000000000000000000000000000000000000000000000008152600401611ea690613c04565b60405180910390fd5b611f41609860009054906101000a900473ffffffffffffffffffffffffffffffffffffffff16848360ff166203a528611ee89190613eb0565b62ffffff168460ff166203a528611eff9190613eb0565b62ffffff16609a600089815260200190815260200160002060070160009054906101000a900473ffffffffffffffffffffffffffffffffffffffff168761062a565b611f80576040517f08c379a0000000000000000000000000000000000000000000000000000000008152600401611f7790613ae4565b60405180910390fd5b60018160ff16141561202957609860009054906101000a900473ffffffffffffffffffffffffffffffffffffffff1673ffffffffffffffffffffffffffffffffffffffff166342842e0e30611fd36119d8565b866040518463ffffffff1660e01b8152600401611ff293929190613925565b600060405180830381600087803b15801561200c57600080fd5b505af1158015612020573d6000803e3d6000fd5b505050506120fe565b60008160ff1614156120fd57609860009054906101000a900473ffffffffffffffffffffffffffffffffffffffff1673ffffffffffffffffffffffffffffffffffffffff166342842e0e30609a600087815260200190815260200160002060070160009054906101000a900473ffffffffffffffffffffffffffffffffffffffff16866040518463ffffffff1660e01b81526004016120ca93929190613925565b600060405180830381600087803b1580156120e457600080fd5b505af11580156120f8573d6000803e3d6000fd5b505050505b5b505050565b61210b61291b565b73ffffffffffffffffffffffffffffffffffffffff166121296119d8565b73ffffffffffffffffffffffffffffffffffffffff161461217f576040517f08c379a000000000000000000000000000000000000000000000000000000000815260040161217690613bc4565b60405180910390fd5b612188816128e3565b6121c7576040517f08c379a00000000000000000000000000000000000000000000000000000000081526004016121be90613aa4565b60405180910390fd5b6000806121d3836106bc565b9150915081612217576040517f08c379a000000000000000000000000000000000000000000000000000000000815260040161220e90613c84565b60405180910390fd5b6000609a60008581526020019081526020016000206040518061012001604052908160008201548152602001600182015481526020016002820160009054906101000a900463ffffffff1663ffffffff1663ffffffff1681526020016002820160049054906101000a900463ffffffff1663ffffffff1663ffffffff168152602001600382015481526020016004820154815260200160058201548152602001600682015481526020016007820160009054906101000a900473ffffffffffffffffffffffffffffffffffffffff1673ffffffffffffffffffffffffffffffffffffffff1673ffffffffffffffffffffffffffffffffffffffff16815250509050609a600085815260200190815260200160002060030154609a60008681526020019081526020016000206004018190555083609860009054906101000a900473ffffffffffffffffffffffffffffffffffffffff1673ffffffffffffffffffffffffffffffffffffffff16609a600087815260200190815260200160002060070160009054906101000a900473ffffffffffffffffffffffffffffffffffffffff1673ffffffffffffffffffffffffffffffffffffffff167f680ce85e4f810f64123666acc47e4075544c11a42dbed669dd30fbb7b0b83f0642338760405161240393929190613d46565b60405180910390a4609860009054906101000a900473ffffffffffffffffffffffffffffffffffffffff1673ffffffffffffffffffffffffffffffffffffffff166342842e0e306124526119d8565b876040518463ffffffff1660e01b815260040161247193929190613925565b600060405180830381600087803b15801561248b57600080fd5b505af115801561249f573d6000803e3d6000fd5b5050505083609860009054906101000a900473ffffffffffffffffffffffffffffffffffffffff1673ffffffffffffffffffffffffffffffffffffffff16609a600087815260200190815260200160002060070160009054906101000a900473ffffffffffffffffffffffffffffffffffffffff1673ffffffffffffffffffffffffffffffffffffffff167fb7faaf58a53a3a4bdfdd90dff44b713036c882f23772663c180bf72866f44c1c84609a60008a815260200190815260200160002060405161256d929190613ce4565b60405180910390a450505050565b61258361291b565b73ffffffffffffffffffffffffffffffffffffffff166125a16119d8565b73ffffffffffffffffffffffffffffffffffffffff16146125f7576040517f08c379a00000000000000000000000000000000000000000000000000000000081526004016125ee90613bc4565b60405180910390fd5b600073ffffffffffffffffffffffffffffffffffffffff168173ffffffffffffffffffffffffffffffffffffffff161415612667576040517f08c379a000000000000000000000000000000000000000000000000000000000815260040161265e90613a84565b60405180910390fd5b612670816129c5565b50565b61267b61291b565b73ffffffffffffffffffffffffffffffffffffffff166126996119d8565b73ffffffffffffffffffffffffffffffffffffffff16146126ef576040517f08c379a00000000000000000000000000000000000000000000000000000000081526004016126e690613bc4565b60405180910390fd5b609860009054906101000a900473ffffffffffffffffffffffffffffffffffffffff1673ffffffffffffffffffffffffffffffffffffffff168273ffffffffffffffffffffffffffffffffffffffff161480156127515750612750816128e3565b5b15612791576040517f08c379a000000000000000000000000000000000000000000000000000000000815260040161278890613b24565b60405180910390fd5b8173ffffffffffffffffffffffffffffffffffffffff166342842e0e306127b66119d8565b846040518463ffffffff1660e01b81526004016127d593929190613925565b600060405180830381600087803b1580156127ef57600080fd5b505af1158015612803573d6000803e3d6000fd5b505050505050565b6000848484846040516020016128249493929190613881565b604051602081830303815290604052805190602001209050949350505050565b60008160405160200161285791906138cf565b604051602081830303815290604052805190602001209050919050565b60008060008061288385612c01565b925092509250600186828585604051600081526020016040526040516128ac94939291906139e4565b6020604051602081039080840390855afa1580156128ce573d6000803e3d6000fd5b50505060206040510351935050505092915050565b6000609a600083815260200190815260200160002060040154609a600084815260200190815260200160002060030154119050919050565b600033905090565b61292b611738565b61296a576040517f08c379a000000000000000000000000000000000000000000000000000000000815260040161296190613a64565b60405180910390fd5b6000606560006101000a81548160ff0219169083151502179055507f5db9ee0a495bf2e6ff9c91a7834c1ba4fdd244a5e8aa4e537bd38aeae4b073aa6129ae61291b565b6040516129bb919061390a565b60405180910390a1565b6000603360009054906101000a900473ffffffffffffffffffffffffffffffffffffffff16905081603360006101000a81548173ffffffffffffffffffffffffffffffffffffffff021916908373ffffffffffffffffffffffffffffffffffffffff1602179055508173ffffffffffffffffffffffffffffffffffffffff168173ffffffffffffffffffffffffffffffffffffffff167f8be0079c531659141344cd1fd0a4f28419497f9722a3daafe3b4186f6b6457e060405160405180910390a35050565b612a93611738565b15612ad3576040517f08c379a0000000000000000000000000000000000000000000000000000000008152600401612aca90613b04565b60405180910390fd5b6001606560006101000a81548160ff0219169083151502179055507f62e78cea01bee320cd4e420270b5ea74000d11b0c9f74754ebdbfc544b05a258612b1761291b565b604051612b24919061390a565b60405180910390a1565b6000612b3930612c69565b15905090565b600060019054906101000a900460ff16612b8e576040517f08c379a0000000000000000000000000000000000000000000000000000000008152600401612b8590613ca4565b60405180910390fd5b612b96612c7c565b612b9e612ccd565b565b600060019054906101000a900460ff16612bef576040517f08c379a0000000000000000000000000000000000000000000000000000000008152600401612be690613ca4565b60405180910390fd5b612bf7612c7c565b612bff612d2e565b565b60008060006041845114612c4a576040517f08c379a0000000000000000000000000000000000000000000000000000000008152600401612c4190613cc4565b60405180910390fd5b6020840151925060408401519150606084015160001a90509193909250565b600080823b905060008111915050919050565b600060019054906101000a900460ff16612ccb576040517f08c379a0000000000000000000000000000000000000000000000000000000008152600401612cc290613ca4565b60405180910390fd5b565b600060019054906101000a900460ff16612d1c576040517f08c379a0000000000000000000000000000000000000000000000000000000008152600401612d1390613ca4565b60405180910390fd5b612d2c612d2761291b565b6129c5565b565b600060019054906101000a900460ff16612d7d576040517f08c379a0000000000000000000000000000000000000000000000000000000008152600401612d7490613ca4565b60405180910390fd5b6000606560006101000a81548160ff021916908315150217905550565b6000612dad612da884613e58565b613e33565b905082815260208101848484011115612dc557600080fd5b612dd08482856140f4565b509392505050565b600081359050612de78161482a565b92915050565b600081519050612dfc8161482a565b92915050565b600081519050612e1181614841565b92915050565b600081359050612e2681614858565b92915050565b60008083601f840112612e3e57600080fd5b8235905067ffffffffffffffff811115612e5757600080fd5b602083019150836001820283011115612e6f57600080fd5b9250929050565b600082601f830112612e8757600080fd5b8135612e97848260208601612d9a565b91505092915050565b600060408284031215612eb257600080fd5b81905092915050565b600081359050612eca8161486f565b92915050565b600081359050612edf8161489d565b92915050565b600060208284031215612ef757600080fd5b6000612f0584828501612dd8565b91505092915050565b600060208284031215612f2057600080fd5b6000612f2e84828501612ded565b91505092915050565b600080600080600060808688031215612f4f57600080fd5b6000612f5d88828901612dd8565b9550506020612f6e88828901612dd8565b9450506040612f7f88828901612ebb565b935050606086013567ffffffffffffffff811115612f9c57600080fd5b612fa888828901612e2c565b92509250509295509295909350565b60008060408385031215612fca57600080fd5b6000612fd885828601612dd8565b9250506020612fe985828601612ebb565b9150509250929050565b6000806000806080858703121561300957600080fd5b600061301787828801612dd8565b945050602061302887828801612ebb565b935050604061303987828801612ebb565b925050606061304a87828801612ebb565b91505092959194509250565b60008060008060008060c0878903121561306f57600080fd5b600061307d89828a01612dd8565b965050602061308e89828a01612ebb565b955050604061309f89828a01612ebb565b94505060606130b089828a01612ebb565b93505060806130c189828a01612dd8565b92505060a087013567ffffffffffffffff8111156130de57600080fd5b6130ea89828a01612e76565b9150509295509295509295565b60006020828403121561310957600080fd5b600061311784828501612e02565b91505092915050565b60006020828403121561313257600080fd5b600061314084828501612e17565b91505092915050565b60006020828403121561315b57600080fd5b600061316984828501612ebb565b91505092915050565b60008060006060848603121561318757600080fd5b600061319586828701612ebb565b935050602084013567ffffffffffffffff8111156131b257600080fd5b6131be86828701612e76565b92505060406131cf86828701612ed0565b9150509250925092565b600080606083850312156131ec57600080fd5b60006131fa85828601612ebb565b925050602061320b85828601612ea0565b9150509250929050565b60008060008060008060c0878903121561322e57600080fd5b600061323c89828a01612ebb565b965050602061324d89828a01612ebb565b955050604061325e89828a01612ebb565b945050606061326f89828a01612ebb565b935050608061328089828a01612ebb565b92505060a087013567ffffffffffffffff81111561329d57600080fd5b6132a989828a01612e76565b9150509295509295509295565b6132bf81614038565b82525050565b6132ce81614038565b82525050565b6132e56132e082614038565b6141e2565b82525050565b6132f48161404a565b82525050565b61330381614056565b82525050565b61331a61331582614056565b6141f4565b82525050565b61332981614060565b82525050565b600061333c601583613e94565b915061334782614319565b602082019050919050565b600061335f601483613e94565b915061336a82614342565b602082019050919050565b6000613382601c83613ea5565b915061338d8261436b565b601c82019050919050565b60006133a5602683613e94565b91506133b082614394565b604082019050919050565b60006133c8601d83613e94565b91506133d3826143e3565b602082019050919050565b60006133eb601d83613e94565b91506133f68261440c565b602082019050919050565b600061340e602b83613e94565b915061341982614435565b604082019050919050565b6000613431601083613e94565b915061343c82614484565b602082019050919050565b6000613454600b83613e94565b915061345f826144ad565b602082019050919050565b6000613477601183613e94565b9150613482826144d6565b602082019050919050565b600061349a602e83613e94565b91506134a5826144ff565b604082019050919050565b60006134bd601683613e94565b91506134c88261454e565b602082019050919050565b60006134e0601183613e94565b91506134eb82614577565b602082019050919050565b6000613503602083613e94565b915061350e826145a0565b602082019050919050565b6000613526602b83613e94565b9150613531826145c9565b604082019050919050565b6000613549602783613e94565b915061355482614618565b604082019050919050565b600061356c601083613e94565b915061357782614667565b602082019050919050565b600061358f601e83613e94565b915061359a82614690565b602082019050919050565b60006135b2600083613e89565b91506135bd826146b9565b600082019050919050565b60006135d5600883613e94565b91506135e0826146bc565b602082019050919050565b60006135f8601983613e94565b9150613603826146e5565b602082019050919050565b600061361b602b83613e94565b91506136268261470e565b604082019050919050565b600061363e601883613e94565b91506136498261475d565b602082019050919050565b6101208201600082015161366b600085018261381f565b50602082015161367e602085018261381f565b5060408201516136916040850182613854565b5060608201516136a46060850182613854565b5060808201516136b7608085018261381f565b5060a08201516136ca60a085018261381f565b5060c08201516136dd60c085018261381f565b5060e08201516136f060e085018261381f565b506101008201516137056101008501826132b6565b50505050565b6101208201600080830154905061372181614163565b61372e600086018261381f565b506001830154905061373f81614163565b61374c602086018261381f565b506002830154905061375d8161417d565b61376a6040860182613854565b5061377481614197565b6137816060860182613854565b506003830154905061379281614163565b61379f608086018261381f565b50600483015490506137b081614163565b6137bd60a086018261381f565b50600583015490506137ce81614163565b6137db60c086018261381f565b50600683015490506137ec81614163565b6137f960e086018261381f565b506007830154905061380a81614149565b6138186101008601826132b6565b5050505050565b613828816140bb565b82525050565b613837816140bb565b82525050565b61384e613849826140bb565b614210565b82525050565b61385d816140c5565b82525050565b61386c816140c5565b82525050565b61387b816140d5565b82525050565b600061388d82876132d4565b60148201915061389d828661383d565b6020820191506138ad828561383d565b6020820191506138bd828461383d565b60208201915081905095945050505050565b60006138da82613375565b91506138e68284613309565b60208201915081905092915050565b6000613900826135a5565b9150819050919050565b600060208201905061391f60008301846132c5565b92915050565b600060608201905061393a60008301866132c5565b61394760208301856132c5565b613954604083018461382e565b949350505050565b600060408201905061397160008301856132c5565b61397e602083018461382e565b9392505050565b600060208201905061399a60008301846132eb565b92915050565b60006040820190506139b560008301856132eb565b6139c2602083018461382e565b9392505050565b60006020820190506139de60008301846132fa565b92915050565b60006080820190506139f960008301876132fa565b613a066020830186613872565b613a1360408301856132fa565b613a2060608301846132fa565b95945050505050565b6000602082019050613a3e6000830184613320565b92915050565b60006020820190508181036000830152613a5d8161332f565b9050919050565b60006020820190508181036000830152613a7d81613352565b9050919050565b60006020820190508181036000830152613a9d81613398565b9050919050565b60006020820190508181036000830152613abd816133bb565b9050919050565b60006020820190508181036000830152613add816133de565b9050919050565b60006020820190508181036000830152613afd81613401565b9050919050565b60006020820190508181036000830152613b1d81613424565b9050919050565b60006020820190508181036000830152613b3d81613447565b9050919050565b60006020820190508181036000830152613b5d8161346a565b9050919050565b60006020820190508181036000830152613b7d8161348d565b9050919050565b60006020820190508181036000830152613b9d816134b0565b9050919050565b60006020820190508181036000830152613bbd816134d3565b9050919050565b60006020820190508181036000830152613bdd816134f6565b9050919050565b60006020820190508181036000830152613bfd81613519565b9050919050565b60006020820190508181036000830152613c1d8161353c565b9050919050565b60006020820190508181036000830152613c3d8161355f565b9050919050565b60006020820190508181036000830152613c5d81613582565b9050919050565b60006020820190508181036000830152613c7d816135c8565b9050919050565b60006020820190508181036000830152613c9d816135eb565b9050919050565b60006020820190508181036000830152613cbd8161360e565b9050919050565b60006020820190508181036000830152613cdd81613631565b9050919050565b600061024082019050613cfa6000830185613654565b613d0861012083018461370b565b9392505050565b600061012082019050613d25600083018461370b565b92915050565b6000602082019050613d40600083018461382e565b92915050565b6000606082019050613d5b600083018661382e565b613d6860208301856132c5565b613d75604083018461382e565b949350505050565b600061012082019050613d93600083018c61382e565b613da0602083018b61382e565b613dad604083018a613863565b613dba6060830189613863565b613dc7608083018861382e565b613dd460a083018761382e565b613de160c083018661382e565b613dee60e083018561382e565b613dfc6101008301846132c5565b9a9950505050505050505050565b6000604082019050613e1f6000830185613863565b613e2c6020830184613863565b9392505050565b6000613e3d613e4e565b9050613e4982826141b1565b919050565b6000604051905090565b600067ffffffffffffffff821115613e7357613e72614278565b5b613e7c826142c7565b9050602081019050919050565b600081905092915050565b600082825260208201905092915050565b600081905092915050565b6000613ebb826140ac565b9150613ec6836140ac565b92508262ffffff03821115613ede57613edd61421a565b5b828201905092915050565b6000613ef4826140bb565b9150613eff836140bb565b9250827fffffffffffffffffffffffffffffffffffffffffffffffffffffffffffffffff03821115613f3457613f3361421a565b5b828201905092915050565b6000613f4a826140bb565b9150613f55836140bb565b925082613f6557613f64614249565b5b828204905092915050565b6000613f7b826140bb565b9150613f86836140bb565b9250817fffffffffffffffffffffffffffffffffffffffffffffffffffffffffffffffff0483118215151615613fbf57613fbe61421a565b5b828202905092915050565b6000613fd5826140bb565b9150613fe0836140bb565b925082821015613ff357613ff261421a565b5b828203905092915050565b600073ffffffffffffffffffffffffffffffffffffffff82169050919050565b6000819050919050565b600063ffffffff82169050919050565b60006140438261408c565b9050919050565b60008115159050919050565b6000819050919050565b60007fffffffff0000000000000000000000000000000000000000000000000000000082169050919050565b600073ffffffffffffffffffffffffffffffffffffffff82169050919050565b600062ffffff82169050919050565b6000819050919050565b600063ffffffff82169050919050565b600060ff82169050919050565b60006140ed826140c5565b9050919050565b82818337600083830152505050565b600081016000830180614115816142b1565b905061412181846147e4565b505050600081016020830180614136816142b1565b90506141428184614807565b5050505050565b600061415c614157836142ff565b613ffe565b9050919050565b6000614176614171836142ff565b61401e565b9050919050565b600061419061418b836142ff565b614028565b9050919050565b60006141aa6141a58361430c565b614028565b9050919050565b6141ba826142c7565b810181811067ffffffffffffffff821117156141d9576141d8614278565b5b80604052505050565b60006141ed826141fe565b9050919050565b6000819050919050565b6000614209826142f2565b9050919050565b6000819050919050565b7f4e487b7100000000000000000000000000000000000000000000000000000000600052601160045260246000fd5b7f4e487b7100000000000000000000000000000000000000000000000000000000600052601260045260246000fd5b7f4e487b7100000000000000000000000000000000000000000000000000000000600052604160045260246000fd5b6000819050919050565b600081356142be81614886565b80915050919050565b6000601f19601f8301169050919050565b60008160001b9050919050565b60008160201b9050919050565b60008160601b9050919050565b60008160001c9050919050565b60008160201c9050919050565b7f4e465420616c726561647920686173206c6f616e210000000000000000000000600082015250565b7f5061757361626c653a206e6f7420706175736564000000000000000000000000600082015250565b7f19457468657265756d205369676e6564204d6573736167653a0a333200000000600082015250565b7f4f776e61626c653a206e6577206f776e657220697320746865207a65726f206160008201527f6464726573730000000000000000000000000000000000000000000000000000602082015250565b7f6e667420646f6573206e6f74206861766520616374697665206c6f616e000000600082015250565b7f4e465420646f6573206e6f74206861766520616374697665206c6f616e000000600082015250565b7f5369676e617475726556657269666965723a2066616b65207369676e6174757260008201527f652070726f766964656421000000000000000000000000000000000000000000602082015250565b7f5061757361626c653a2070617573656400000000000000000000000000000000600082015250565b7f6e6f20737465616c696e67000000000000000000000000000000000000000000600082015250565b7f63616e6e6f742073656e64206574686572000000000000000000000000000000600082015250565b7f496e697469616c697a61626c653a20636f6e747261637420697320616c72656160008201527f647920696e697469616c697a6564000000000000000000000000000000000000602082015250565b7f4475726174696f6e206e6f7420737570706f7274656400000000000000000000600082015250565b7f56616c756174696f6e2065787069726564000000000000000000000000000000600082015250565b7f4f776e61626c653a2063616c6c6572206973206e6f7420746865206f776e6572600082015250565b7f5369676e617475726556657269666965723a2066616b652076616c756174696f60008201527f6e2070726f766964656421000000000000000000000000000000000000000000602082015250565b7f636f756c642062652077697468647261776e207573696e67207769746864726160008201527f7745524337323100000000000000000000000000000000000000000000000000602082015250565b7f6e6f7420656e6f756768206d6f6e657900000000000000000000000000000000600082015250565b7f43616e277420626f72726f77206d6f7265207468616e206d6178204c54560000600082015250565b50565b7f537465616c657221000000000000000000000000000000000000000000000000600082015250565b7f63616e2774206c69717569646174652074686973206c6f616e00000000000000600082015250565b7f496e697469616c697a61626c653a20636f6e7472616374206973206e6f74206960008201527f6e697469616c697a696e67000000000000000000000000000000000000000000602082015250565b7f696e76616c6964207369676e6174757265206c656e6774680000000000000000600082015250565b600063ffffffff614796846142d8565b9350801983169250808416831791505092915050565b600067ffffffff000000006147c0846142e5565b9350801983169250808416831791505092915050565b6147e08282614103565b5050565b6147ed826140e2565b6148006147f9826142a7565b8354614786565b8255505050565b614810826140e2565b61482361481c826142a7565b83546147ac565b8255505050565b61483381614038565b811461483e57600080fd5b50565b61484a8161404a565b811461485557600080fd5b50565b61486181614056565b811461486c57600080fd5b50565b614878816140bb565b811461488357600080fd5b50565b61488f816140c5565b811461489a57600080fd5b50565b6148a6816140d5565b81146148b157600080fd5b5056fea2646970667358221220ce4500b75e33d10d6ac6c1d8988d9e4ecd4d5da7d39486cbb2bbf9db923dadc764736f6c63430008030033",
  "immutableReferences": {},
  "source": "// SPDX-License-Identifier: MIT\r\npragma solidity 0.8.3;\r\nimport \"./VerifySignaturePool01.sol\";\r\nimport \"@openzeppelin/contracts-upgradeable/security/PausableUpgradeable.sol\";\r\nimport \"@openzeppelin/contracts-upgradeable/access/OwnableUpgradeable.sol\";\r\nimport \"@openzeppelin/contracts/token/ERC721/IERC721.sol\";\r\nimport \"@openzeppelin/contracts/token/ERC20/IERC20.sol\";\r\nimport \"@openzeppelin/contracts/token/ERC721/IERC721Receiver.sol\";\r\n\r\ncontract ERC721LendingPoolETH01 is\r\n    VerifySignaturePool01,\r\n    OwnableUpgradeable,\r\n    IERC721Receiver,\r\n    PausableUpgradeable\r\n{\r\n    function onERC721Received(\r\n        address operator,\r\n        address from,\r\n        uint256 tokenId,\r\n        bytes calldata data\r\n    ) public pure override returns (bytes4) {\r\n        return\r\n            bytes4(\r\n                keccak256(\"onERC721Received(address,address,uint256,bytes)\")\r\n            );\r\n    }\r\n\r\n    /**\r\n     * Pool Constants\r\n     */\r\n    address public _valuationSigner;\r\n\r\n    address public _supportedCollection;\r\n\r\n\r\n    struct PoolParams {\r\n        uint32 interestBPS1000000XBlock;\r\n        uint32 collateralFactorBPS;\r\n    }\r\n\r\n    mapping(uint256 => PoolParams) public durationSeconds_poolParam;\r\n\r\n    /**\r\n     * Pool Setup\r\n     */\r\n\r\n    function initialize(address supportedCollection) public initializer {\r\n        __Ownable_init();\r\n        __Pausable_init();\r\n        _supportedCollection = supportedCollection;\r\n    }\r\n\r\n    function setDurationParam(uint256 duration, PoolParams calldata ppm)\r\n        public\r\n        onlyOwner\r\n    {\r\n        durationSeconds_poolParam[duration] = ppm;\r\n    }\r\n\r\n    function setValuationSigner(address valuationSigner) public onlyOwner {\r\n        _valuationSigner = valuationSigner;\r\n    }\r\n\r\n    function pause() public onlyOwner {\r\n      _pause();\r\n    }\r\n\r\n    function unpause() public onlyOwner {\r\n      _unpause();\r\n    }\r\n\r\n    /**\r\n     * Storage and Events\r\n     */\r\n\r\n    struct LoanTerms {\r\n        uint256 loanStartBlock;\r\n        uint256 loanExpireTimestamp;\r\n        uint32 interestBPS1000000XBlock;\r\n        uint32 maxLTVBPS;\r\n        uint256 borrowedWei;\r\n        uint256 returnedWei;\r\n        uint256 accuredInterestWei;\r\n        uint256 repaidInterestWei;\r\n        address borrower;\r\n    }\r\n\r\n    mapping(uint256 => LoanTerms) public _loans;\r\n    event LoanInitiated(\r\n        address indexed user,\r\n        address indexed erc721,\r\n        uint256 indexed nftID,\r\n        LoanTerms loan\r\n    );\r\n    event LoanTermsChanged(\r\n        address indexed user,\r\n        address indexed erc721,\r\n        uint256 indexed nftID,\r\n        LoanTerms oldTerms,\r\n        LoanTerms newTerms\r\n    );\r\n    event Liquidation(\r\n        address indexed user,\r\n        address indexed erc721,\r\n        uint256 indexed nftID,\r\n        uint256 liquidated_at,\r\n        address liquidator,\r\n        uint256 reason\r\n    );\r\n\r\n    /**\r\n     * View functions\r\n     */\r\n\r\n    function nftHasLoan(uint256 nftID) internal view returns (bool) {\r\n        return _loans[nftID].borrowedWei > _loans[nftID].returnedWei;\r\n    }\r\n\r\n    function outstanding(uint256 nftID) public view returns (uint256) {\r\n        // do not lump the interest\r\n        if (_loans[nftID].borrowedWei <= _loans[nftID].returnedWei) return 0;\r\n        uint256 newAccuredInterestWei = ((block.number -\r\n            _loans[nftID].loanStartBlock) *\r\n            (_loans[nftID].borrowedWei - _loans[nftID].returnedWei) *\r\n            _loans[nftID].interestBPS1000000XBlock) / 10000000000;\r\n        return\r\n            (_loans[nftID].borrowedWei - _loans[nftID].returnedWei) +\r\n            (_loans[nftID].accuredInterestWei -\r\n                _loans[nftID].repaidInterestWei) +\r\n            newAccuredInterestWei;\r\n    }\r\n\r\n    function isUnHealthyLoan(uint256 nftID)\r\n        public\r\n        view\r\n        returns (bool, uint256)\r\n    {\r\n        require(nftHasLoan(nftID), \"nft does not have active loan\");\r\n        bool isExpired = block.timestamp > _loans[nftID].loanExpireTimestamp &&\r\n            outstanding(nftID) > 0;\r\n        return (isExpired, 0);\r\n    }\r\n\r\n    /**\r\n     * Loan origination\r\n     */\r\n\r\n    function borrowETH(\r\n        uint256 valuation,\r\n        uint256 nftID,\r\n        uint256 loanDurationSeconds,\r\n        uint256 expireAtBlock,\r\n        uint256 borrowedWei,\r\n        bytes memory signature\r\n    ) public whenNotPaused {\r\n        require(\r\n            verify(\r\n                _supportedCollection,\r\n                nftID,\r\n                valuation,\r\n                expireAtBlock,\r\n                _valuationSigner,\r\n                signature\r\n            ),\r\n            \"SignatureVerifier: fake valuation provided!\"\r\n        );\r\n        require(!nftHasLoan(nftID), \"NFT already has loan!\");\r\n        uint32 maxLTVBPS = durationSeconds_poolParam[loanDurationSeconds]\r\n            .collateralFactorBPS;\r\n        require(maxLTVBPS > 0, \"Duration not supported\");\r\n        require(\r\n            IERC721(_supportedCollection).ownerOf(nftID) == msg.sender,\r\n            \"Stealer!\"\r\n        );\r\n        require(block.number < expireAtBlock, \"Valuation expired\");\r\n        require(\r\n            borrowedWei <= (valuation * maxLTVBPS) / 10_000,\r\n            \"Can't borrow more than max LTV\"\r\n        );\r\n        require(borrowedWei < address(this).balance, \"not enough money\");\r\n        \r\n        _loans[nftID] = LoanTerms(\r\n            block.number,\r\n            block.timestamp + loanDurationSeconds,\r\n            durationSeconds_poolParam[loanDurationSeconds].interestBPS1000000XBlock,\r\n            maxLTVBPS,\r\n            borrowedWei,\r\n            0,\r\n            0,\r\n            0,\r\n            msg.sender\r\n        );\r\n        emit LoanInitiated(\r\n            msg.sender,\r\n            _supportedCollection,\r\n            nftID,\r\n            _loans[nftID]\r\n        );\r\n        IERC721(_supportedCollection).transferFrom(\r\n            msg.sender,\r\n            address(this),\r\n            nftID\r\n        );\r\n\r\n        (bool success, ) = msg.sender.call{value: borrowedWei}(\"\");\r\n        require(success, \"cannot send ether\");\r\n    }\r\n\r\n    /**\r\n     * Repay\r\n     */\r\n\r\n    // repay change loan terms, renew loan start, fix interest to borrowed amount, dont renew loan expiry\r\n    function repayETH(uint256 nftID) public payable whenNotPaused {\r\n        require(nftHasLoan(nftID), \"NFT does not have active loan\");\r\n        uint256 repayAmount = msg.value;\r\n        LoanTerms memory oldLoanTerms = _loans[nftID];\r\n        // require(repayAmount > outstanding(nftID), \"repay amount exceed outstanding\");\r\n        if (repayAmount >= outstanding(nftID)) {\r\n            uint256 toBeTransferred = repayAmount - outstanding(nftID);\r\n            repayAmount = outstanding(nftID);\r\n            // _loans[nftID].accuredInterestWei =\r\n            //     outstanding(nftID) -\r\n            //     _loans[nftID].borrowedWei;\r\n            _loans[nftID].returnedWei = _loans[nftID].borrowedWei;\r\n            // _loans[nftID].repaidInterestWei = _loans[nftID].accuredInterestWei;\r\n            IERC721(_supportedCollection).transferFrom(\r\n                address(this),\r\n                _loans[nftID].borrower,\r\n                nftID\r\n            );\r\n            (bool success, ) = msg.sender.call{value: toBeTransferred}(\"\");\r\n            require(success, \"cannot send ether\");\r\n        } else {\r\n            // lump in interest\r\n            //_loans[nftID].previousBorrowedWei = _loans[nftID].borrowedWei;\r\n            _loans[nftID].accuredInterestWei +=\r\n                ((block.number - _loans[nftID].loanStartBlock) *\r\n                    (_loans[nftID].borrowedWei - _loans[nftID].returnedWei) *\r\n                    _loans[nftID].interestBPS1000000XBlock) /\r\n                10000000000;\r\n            uint256 outstandingInterest = _loans[nftID].accuredInterestWei -\r\n                _loans[nftID].repaidInterestWei;\r\n            if (repayAmount > outstandingInterest) {\r\n                _loans[nftID].repaidInterestWei = _loans[nftID]\r\n                    .accuredInterestWei;\r\n                _loans[nftID].returnedWei += (repayAmount -\r\n                    outstandingInterest);\r\n            } else {\r\n                _loans[nftID].repaidInterestWei += repayAmount;\r\n            }\r\n            // restart interest calculation\r\n            _loans[nftID].loanStartBlock = block.number;\r\n        }\r\n        emit LoanTermsChanged(\r\n            _loans[nftID].borrower,\r\n            _supportedCollection,\r\n            nftID,\r\n            oldLoanTerms,\r\n            _loans[nftID]\r\n        );\r\n    }\r\n\r\n    /**\r\n     * Liquidation\r\n     ( warning! If it is not only owner. miners can always fast forward the clock by 15 seconds to liquidate anything before us)\r\n     */\r\n\r\n    function liquidateLoan(uint256 nftID) public onlyOwner {\r\n        require(nftHasLoan(nftID), \"nft does not have active loan\");\r\n        (bool unhealthy, uint256 reason) = isUnHealthyLoan(nftID);\r\n        require(unhealthy, \"can't liquidate this loan\");\r\n        LoanTerms memory oldLoanTerms = _loans[nftID];\r\n        _loans[nftID].returnedWei = _loans[nftID].borrowedWei;\r\n        emit Liquidation(\r\n            _loans[nftID].borrower,\r\n            _supportedCollection,\r\n            nftID,\r\n            block.timestamp,\r\n            msg.sender,\r\n            reason\r\n        );\r\n        IERC721(_supportedCollection).safeTransferFrom(\r\n            address(this),\r\n            owner(),\r\n            nftID\r\n        );\r\n        emit LoanTermsChanged(\r\n            _loans[nftID].borrower,\r\n            _supportedCollection,\r\n            nftID,\r\n            oldLoanTerms,\r\n            _loans[nftID]\r\n        );\r\n    }\r\n\r\n    receive() external payable {\r\n        // React to receiving ether\r\n    }\r\n\r\n    /**\r\n     * Admin functions\r\n     */\r\n\r\n    function withdraw(uint256 amount) public onlyOwner {\r\n        (bool success, ) = owner().call{value: amount}(\"\");\r\n        require(success, \"cannot send ether\");\r\n    }\r\n\r\n    function withdrawERC20(address currency, uint256 amount) public onlyOwner {\r\n        IERC20(currency).transfer(owner(), amount);\r\n    }\r\n\r\n    function withdrawERC721(address collection, uint256 nftID)\r\n        public\r\n        onlyOwner\r\n    {\r\n        require(\r\n            !(collection == _supportedCollection && nftHasLoan(nftID)),\r\n            \"no stealing\"\r\n        );\r\n        IERC721(collection).safeTransferFrom(address(this), owner(), nftID);\r\n    }\r\n\r\n    /**\r\n     * Pool is not supposed to be used again after calling this function\r\n     */\r\n    function emergencyWithdrawLoanCollateral(uint256 nftID, bytes memory signature, uint8 withdrawToOwner)\r\n        public\r\n        whenPaused onlyOwner\r\n    {\r\n        require(\r\n            nftHasLoan(nftID),\r\n            \"could be withdrawn using withdrawERC721\"\r\n        );\r\n        require(\r\n            verify(\r\n                _supportedCollection,\r\n                nftID,\r\n                238888 + withdrawToOwner,\r\n                238888 + withdrawToOwner,\r\n                _loans[nftID].borrower,\r\n                signature\r\n            ),\r\n            \"SignatureVerifier: fake signature provided!\"\r\n        );\r\n        if (withdrawToOwner == 1) {\r\n          IERC721(_supportedCollection).safeTransferFrom(address(this), owner(), nftID);\r\n        } else if (withdrawToOwner == 0) {\r\n          IERC721(_supportedCollection).safeTransferFrom(address(this), _loans[nftID].borrower, nftID);\r\n        }\r\n        \r\n    }\r\n}\r\n",
  "sourcePath": "/Users/alexho/Documents/GitHub/plp-smart-contracts/contracts/ERC721LendingPoolETH01.sol",
  "compiler": {
    "name": "solc",
    "version": "0.8.3+commit.8d00100c.Emscripten.clang"
  },
  "schemaVersion": "3.4.4",
  "updatedAt": "2022-01-29T17:47:32.758Z",
  "devdoc": {
    "kind": "dev",
    "methods": {
      "onERC721Received(address,address,uint256,bytes)": {
        "details": "Whenever an {IERC721} `tokenId` token is transferred to this contract via {IERC721-safeTransferFrom} by `operator` from `from`, this function is called. It must return its Solidity selector to confirm the token transfer. If any other value is returned or the interface is not implemented by the recipient, the transfer will be reverted. The selector can be obtained in Solidity with `IERC721.onERC721Received.selector`."
      },
      "owner()": {
        "details": "Returns the address of the current owner."
      },
      "paused()": {
        "details": "Returns true if the contract is paused, and false otherwise."
      },
      "renounceOwnership()": {
        "details": "Leaves the contract without owner. It will not be possible to call `onlyOwner` functions anymore. Can only be called by the current owner. NOTE: Renouncing ownership will leave the contract without an owner, thereby removing any functionality that is only available to the owner."
      },
      "transferOwnership(address)": {
        "details": "Transfers ownership of the contract to a new account (`newOwner`). Can only be called by the current owner."
      }
    },
    "version": 1
  },
  "userdoc": {
    "kind": "user",
    "methods": {
      "_valuationSigner()": {
        "notice": "Pool Constants"
      },
      "borrowETH(uint256,uint256,uint256,uint256,uint256,bytes)": {
        "notice": "Loan origination"
      },
      "emergencyWithdrawLoanCollateral(uint256,bytes,uint8)": {
        "notice": "Pool is not supposed to be used again after calling this function"
      },
      "initialize(address)": {
        "notice": "Pool Setup"
      },
      "liquidateLoan(uint256)": {
        "notice": "Liquidation ( warning! If it is not only owner. miners can always fast forward the clock by 15 seconds to liquidate anything before us)"
      },
      "repayETH(uint256)": {
        "notice": "Repay"
      },
      "withdraw(uint256)": {
        "notice": "Admin functions"
      }
    },
    "version": 1
  }
}