{
  "contractName": "PineWallet",
  "abi": [
    {
      "anonymous": false,
      "inputs": [
        {
          "indexed": true,
          "internalType": "address",
          "name": "owner",
          "type": "address"
        },
        {
          "indexed": true,
          "internalType": "address",
          "name": "approved",
          "type": "address"
        },
        {
          "indexed": true,
          "internalType": "uint256",
          "name": "tokenId",
          "type": "uint256"
        }
      ],
      "name": "Approval",
      "type": "event"
    },
    {
      "anonymous": false,
      "inputs": [
        {
          "indexed": true,
          "internalType": "address",
          "name": "owner",
          "type": "address"
        },
        {
          "indexed": true,
          "internalType": "address",
          "name": "operator",
          "type": "address"
        },
        {
          "indexed": false,
          "internalType": "bool",
          "name": "approved",
          "type": "bool"
        }
      ],
      "name": "ApprovalForAll",
      "type": "event"
    },
    {
      "anonymous": false,
      "inputs": [
        {
          "indexed": true,
          "internalType": "address",
          "name": "previousOwner",
          "type": "address"
        },
        {
          "indexed": true,
          "internalType": "address",
          "name": "newOwner",
          "type": "address"
        }
      ],
      "name": "OwnershipTransferred",
      "type": "event"
    },
    {
      "anonymous": false,
      "inputs": [
        {
          "indexed": true,
          "internalType": "address",
          "name": "from",
          "type": "address"
        },
        {
          "indexed": true,
          "internalType": "address",
          "name": "to",
          "type": "address"
        },
        {
          "indexed": true,
          "internalType": "uint256",
          "name": "tokenId",
          "type": "uint256"
        }
      ],
      "name": "Transfer",
      "type": "event"
    },
    {
      "inputs": [
        {
          "internalType": "address",
          "name": "to",
          "type": "address"
        },
        {
          "internalType": "uint256",
          "name": "tokenId",
          "type": "uint256"
        }
      ],
      "name": "approve",
      "outputs": [],
      "stateMutability": "nonpayable",
      "type": "function"
    },
    {
      "inputs": [
        {
          "internalType": "address",
          "name": "owner",
          "type": "address"
        }
      ],
      "name": "balanceOf",
      "outputs": [
        {
          "internalType": "uint256",
          "name": "",
          "type": "uint256"
        }
      ],
      "stateMutability": "view",
      "type": "function"
    },
    {
      "inputs": [
        {
          "internalType": "uint256",
          "name": "tokenId",
          "type": "uint256"
        }
      ],
      "name": "getApproved",
      "outputs": [
        {
          "internalType": "address",
          "name": "",
          "type": "address"
        }
      ],
      "stateMutability": "view",
      "type": "function"
    },
    {
      "inputs": [
        {
          "internalType": "address",
          "name": "owner",
          "type": "address"
        },
        {
          "internalType": "address",
          "name": "operator",
          "type": "address"
        }
      ],
      "name": "isApprovedForAll",
      "outputs": [
        {
          "internalType": "bool",
          "name": "",
          "type": "bool"
        }
      ],
      "stateMutability": "view",
      "type": "function"
    },
    {
      "inputs": [],
      "name": "name",
      "outputs": [
        {
          "internalType": "string",
          "name": "",
          "type": "string"
        }
      ],
      "stateMutability": "view",
      "type": "function"
    },
    {
      "inputs": [],
      "name": "owner",
      "outputs": [
        {
          "internalType": "address",
          "name": "",
          "type": "address"
        }
      ],
      "stateMutability": "view",
      "type": "function"
    },
    {
      "inputs": [
        {
          "internalType": "uint256",
          "name": "tokenId",
          "type": "uint256"
        }
      ],
      "name": "ownerOf",
      "outputs": [
        {
          "internalType": "address",
          "name": "",
          "type": "address"
        }
      ],
      "stateMutability": "view",
      "type": "function"
    },
    {
      "inputs": [],
      "name": "renounceOwnership",
      "outputs": [],
      "stateMutability": "nonpayable",
      "type": "function"
    },
    {
      "inputs": [
        {
          "internalType": "address",
          "name": "from",
          "type": "address"
        },
        {
          "internalType": "address",
          "name": "to",
          "type": "address"
        },
        {
          "internalType": "uint256",
          "name": "tokenId",
          "type": "uint256"
        }
      ],
      "name": "safeTransferFrom",
      "outputs": [],
      "stateMutability": "nonpayable",
      "type": "function"
    },
    {
      "inputs": [
        {
          "internalType": "address",
          "name": "from",
          "type": "address"
        },
        {
          "internalType": "address",
          "name": "to",
          "type": "address"
        },
        {
          "internalType": "uint256",
          "name": "tokenId",
          "type": "uint256"
        },
        {
          "internalType": "bytes",
          "name": "_data",
          "type": "bytes"
        }
      ],
      "name": "safeTransferFrom",
      "outputs": [],
      "stateMutability": "nonpayable",
      "type": "function"
    },
    {
      "inputs": [
        {
          "internalType": "address",
          "name": "operator",
          "type": "address"
        },
        {
          "internalType": "bool",
          "name": "approved",
          "type": "bool"
        }
      ],
      "name": "setApprovalForAll",
      "outputs": [],
      "stateMutability": "nonpayable",
      "type": "function"
    },
    {
      "inputs": [
        {
          "internalType": "bytes4",
          "name": "interfaceId",
          "type": "bytes4"
        }
      ],
      "name": "supportsInterface",
      "outputs": [
        {
          "internalType": "bool",
          "name": "",
          "type": "bool"
        }
      ],
      "stateMutability": "view",
      "type": "function"
    },
    {
      "inputs": [],
      "name": "symbol",
      "outputs": [
        {
          "internalType": "string",
          "name": "",
          "type": "string"
        }
      ],
      "stateMutability": "view",
      "type": "function"
    },
    {
      "inputs": [
        {
          "internalType": "uint256",
          "name": "index",
          "type": "uint256"
        }
      ],
      "name": "tokenByIndex",
      "outputs": [
        {
          "internalType": "uint256",
          "name": "",
          "type": "uint256"
        }
      ],
      "stateMutability": "view",
      "type": "function"
    },
    {
      "inputs": [
        {
          "internalType": "address",
          "name": "owner",
          "type": "address"
        },
        {
          "internalType": "uint256",
          "name": "index",
          "type": "uint256"
        }
      ],
      "name": "tokenOfOwnerByIndex",
      "outputs": [
        {
          "internalType": "uint256",
          "name": "",
          "type": "uint256"
        }
      ],
      "stateMutability": "view",
      "type": "function"
    },
    {
      "inputs": [
        {
          "internalType": "uint256",
          "name": "tokenId",
          "type": "uint256"
        }
      ],
      "name": "tokenURI",
      "outputs": [
        {
          "internalType": "string",
          "name": "",
          "type": "string"
        }
      ],
      "stateMutability": "view",
      "type": "function"
    },
    {
      "inputs": [],
      "name": "totalSupply",
      "outputs": [
        {
          "internalType": "uint256",
          "name": "",
          "type": "uint256"
        }
      ],
      "stateMutability": "view",
      "type": "function"
    },
    {
      "inputs": [
        {
          "internalType": "address",
          "name": "from",
          "type": "address"
        },
        {
          "internalType": "address",
          "name": "to",
          "type": "address"
        },
        {
          "internalType": "uint256",
          "name": "tokenId",
          "type": "uint256"
        }
      ],
      "name": "transferFrom",
      "outputs": [],
      "stateMutability": "nonpayable",
      "type": "function"
    },
    {
      "inputs": [
        {
          "internalType": "address",
          "name": "newOwner",
          "type": "address"
        }
      ],
      "name": "transferOwnership",
      "outputs": [],
      "stateMutability": "nonpayable",
      "type": "function"
    },
    {
      "inputs": [
        {
          "internalType": "address",
          "name": "operator",
          "type": "address"
        },
        {
          "internalType": "address",
          "name": "from",
          "type": "address"
        },
        {
          "internalType": "uint256",
          "name": "tokenId",
          "type": "uint256"
        },
        {
          "internalType": "bytes",
          "name": "data",
          "type": "bytes"
        }
      ],
      "name": "onERC721Received",
      "outputs": [
        {
          "internalType": "bytes4",
          "name": "",
          "type": "bytes4"
        }
      ],
      "stateMutability": "pure",
      "type": "function"
    },
    {
      "inputs": [],
      "name": "initialize",
      "outputs": [],
      "stateMutability": "nonpayable",
      "type": "function"
    },
    {
      "inputs": [
        {
          "internalType": "address",
          "name": "target",
          "type": "address"
        },
        {
          "internalType": "uint256",
          "name": "nftID",
          "type": "uint256"
        }
      ],
      "name": "depositCollateral",
      "outputs": [],
      "stateMutability": "nonpayable",
      "type": "function"
    },
    {
      "inputs": [
        {
          "internalType": "address",
          "name": "target",
          "type": "address"
        },
        {
          "internalType": "uint256",
          "name": "nftID",
          "type": "uint256"
        }
      ],
      "name": "removeCollateral",
      "outputs": [],
      "stateMutability": "nonpayable",
      "type": "function"
    },
    {
      "inputs": [
        {
          "internalType": "address",
          "name": "target",
          "type": "address"
        },
        {
          "internalType": "bytes",
          "name": "dataContent",
          "type": "bytes"
        }
      ],
      "name": "call",
      "outputs": [],
      "stateMutability": "payable",
      "type": "function"
    },
    {
      "inputs": [
        {
          "internalType": "uint256",
          "name": "amount",
          "type": "uint256"
        }
      ],
      "name": "withdraw",
      "outputs": [],
      "stateMutability": "nonpayable",
      "type": "function"
    },
    {
      "inputs": [
        {
          "internalType": "bytes32",
          "name": "_hash",
          "type": "bytes32"
        },
        {
          "internalType": "bytes",
          "name": "_signature",
          "type": "bytes"
        }
      ],
      "name": "isValidSignature",
      "outputs": [
        {
          "internalType": "bytes4",
          "name": "",
          "type": "bytes4"
        }
      ],
      "stateMutability": "view",
      "type": "function"
    }
  ],
  "bytecode": "0x608060405234801561001057600080fd5b50614a6e806100206000396000f3fe6080604052600436106101815760003560e01c80636352211e116100d157806395d89b411161008a578063b88d4fde11610064578063b88d4fde14610583578063c87b56dd146105ac578063e985e9c5146105e9578063f2fde38b1461062657610181565b806395d89b4114610506578063a22cb46514610531578063a5d5db0c1461055a57610181565b80636352211e1461040a57806370a0823114610447578063715018a6146104845780638129fc1c1461049b578063876467f8146104b25780638da5cb5b146104db57610181565b806318160ddd1161013e5780632e1a7d4d116101185780632e1a7d4d1461033e5780632f745c591461036757806342842e0e146103a45780634f6ccce7146103cd57610181565b806318160ddd146102ce5780631b8b921d146102f957806323b872dd1461031557610181565b806301ffc9a71461018657806306fdde03146101c3578063081812fc146101ee578063095ea7b31461022b578063150b7a02146102545780631626ba7e14610291575b600080fd5b34801561019257600080fd5b506101ad60048036038101906101a891906134f9565b61064f565b6040516101ba9190613b74565b60405180910390f35b3480156101cf57600080fd5b506101d86106c9565b6040516101e59190613bef565b60405180910390f35b3480156101fa57600080fd5b506102156004803603810190610210919061354b565b61075b565b6040516102229190613ad6565b60405180910390f35b34801561023757600080fd5b50610252600480360381019061024d9190613465565b6107e0565b005b34801561026057600080fd5b5061027b600480360381019061027691906132d6565b6108f8565b6040516102889190613bd4565b60405180910390f35b34801561029d57600080fd5b506102b860048036038101906102b391906134a1565b610926565b6040516102c59190613bd4565b60405180910390f35b3480156102da57600080fd5b506102e36109d1565b6040516102f09190613f11565b60405180910390f35b610313600480360381019061030e919061340d565b6109de565b005b34801561032157600080fd5b5061033c60048036038101906103379190613287565b610b67565b005b34801561034a57600080fd5b506103656004803603810190610360919061354b565b610bc7565b005b34801561037357600080fd5b5061038e60048036038101906103899190613465565b610cfa565b60405161039b9190613f11565b60405180910390f35b3480156103b057600080fd5b506103cb60048036038101906103c69190613287565b610d9f565b005b3480156103d957600080fd5b506103f460048036038101906103ef919061354b565b610dbf565b6040516104019190613f11565b60405180910390f35b34801561041657600080fd5b50610431600480360381019061042c919061354b565b610e56565b60405161043e9190613ad6565b60405180910390f35b34801561045357600080fd5b5061046e60048036038101906104699190613222565b610f08565b60405161047b9190613f11565b60405180910390f35b34801561049057600080fd5b50610499610fc0565b005b3480156104a757600080fd5b506104b0611048565b005b3480156104be57600080fd5b506104d960048036038101906104d49190613465565b6111d7565b005b3480156104e757600080fd5b506104f0611409565b6040516104fd9190613ad6565b60405180910390f35b34801561051257600080fd5b5061051b611433565b6040516105289190613bef565b60405180910390f35b34801561053d57600080fd5b50610558600480360381019061055391906133d1565b6114c5565b005b34801561056657600080fd5b50610581600480360381019061057c9190613465565b6114db565b005b34801561058f57600080fd5b506105aa60048036038101906105a59190613356565b611657565b005b3480156105b857600080fd5b506105d360048036038101906105ce919061354b565b6116b9565b6040516105e09190613bef565b60405180910390f35b3480156105f557600080fd5b50610610600480360381019061060b919061324b565b611760565b60405161061d9190613b74565b60405180910390f35b34801561063257600080fd5b5061064d60048036038101906106489190613222565b6117f4565b005b60007f780e9d63000000000000000000000000000000000000000000000000000000007bffffffffffffffffffffffffffffffffffffffffffffffffffffffff1916827bffffffffffffffffffffffffffffffffffffffffffffffffffffffff191614806106c257506106c1826118ec565b5b9050919050565b6060606580546106d890614158565b80601f016020809104026020016040519081016040528092919081815260200182805461070490614158565b80156107515780601f1061072657610100808354040283529160200191610751565b820191906000526020600020905b81548152906001019060200180831161073457829003601f168201915b5050505050905090565b6000610766826119ce565b6107a5576040517f08c379a000000000000000000000000000000000000000000000000000000000815260040161079c90613dd1565b60405180910390fd5b6069600083815260200190815260200160002060009054906101000a900473ffffffffffffffffffffffffffffffffffffffff169050919050565b60006107eb82610e56565b90508073ffffffffffffffffffffffffffffffffffffffff168373ffffffffffffffffffffffffffffffffffffffff16141561085c576040517f08c379a000000000000000000000000000000000000000000000000000000000815260040161085390613e51565b60405180910390fd5b8073ffffffffffffffffffffffffffffffffffffffff1661087b611a3a565b73ffffffffffffffffffffffffffffffffffffffff1614806108aa57506108a9816108a4611a3a565b611760565b5b6108e9576040517f08c379a00000000000000000000000000000000000000000000000000000000081526004016108e090613d11565b60405180910390fd5b6108f38383611a42565b505050565b60007f150b7a023d4804d13e8c85fb27262cb750cf6ba9f9dd3bb30d90f482ceeb4b1f905095945050505050565b6000610930611409565b73ffffffffffffffffffffffffffffffffffffffff166109948585858080601f016020809104026020016040519081016040528093929190818152602001838380828437600081840152601f19601f82011690508083019250505050505050611afb565b73ffffffffffffffffffffffffffffffffffffffff1614156109bf57631626ba7e60e01b90506109ca565b63ffffffff60e01b90505b9392505050565b6000609980549050905090565b6109e6611a3a565b73ffffffffffffffffffffffffffffffffffffffff16610a04611409565b73ffffffffffffffffffffffffffffffffffffffff1614610a5a576040517f08c379a0000000000000000000000000000000000000000000000000000000008152600401610a5190613df1565b60405180910390fd5b60fb60008473ffffffffffffffffffffffffffffffffffffffff1673ffffffffffffffffffffffffffffffffffffffff16815260200190815260200160002060009054906101000a900460ff1615610ae7576040517f08c379a0000000000000000000000000000000000000000000000000000000008152600401610ade90613ef1565b60405180910390fd5b60008373ffffffffffffffffffffffffffffffffffffffff16348484604051610b11929190613a84565b60006040518083038185875af1925050503d8060008114610b4e576040519150601f19603f3d011682016040523d82523d6000602084013e610b53565b606091505b5050905080610b6157600080fd5b50505050565b610b78610b72611a3a565b82611b6a565b610bb7576040517f08c379a0000000000000000000000000000000000000000000000000000000008152600401610bae90613e71565b60405180910390fd5b610bc2838383611c48565b505050565b610bcf611a3a565b73ffffffffffffffffffffffffffffffffffffffff16610bed611409565b73ffffffffffffffffffffffffffffffffffffffff1614610c43576040517f08c379a0000000000000000000000000000000000000000000000000000000008152600401610c3a90613df1565b60405180910390fd5b6000610c4d611409565b73ffffffffffffffffffffffffffffffffffffffff1682604051610c7090613ac1565b60006040518083038185875af1925050503d8060008114610cad576040519150601f19603f3d011682016040523d82523d6000602084013e610cb2565b606091505b5050905080610cf6576040517f08c379a0000000000000000000000000000000000000000000000000000000008152600401610ced90613d71565b60405180910390fd5b5050565b6000610d0583610f08565b8210610d46576040517f08c379a0000000000000000000000000000000000000000000000000000000008152600401610d3d90613c11565b60405180910390fd5b609760008473ffffffffffffffffffffffffffffffffffffffff1673ffffffffffffffffffffffffffffffffffffffff168152602001908152602001600020600083815260200190815260200160002054905092915050565b610dba83838360405180602001604052806000815250611657565b505050565b6000610dc96109d1565b8210610e0a576040517f08c379a0000000000000000000000000000000000000000000000000000000008152600401610e0190613e91565b60405180910390fd5b60998281548110610e44577f4e487b7100000000000000000000000000000000000000000000000000000000600052603260045260246000fd5b90600052602060002001549050919050565b6000806067600084815260200190815260200160002060009054906101000a900473ffffffffffffffffffffffffffffffffffffffff169050600073ffffffffffffffffffffffffffffffffffffffff168173ffffffffffffffffffffffffffffffffffffffff161415610eff576040517f08c379a0000000000000000000000000000000000000000000000000000000008152600401610ef690613d51565b60405180910390fd5b80915050919050565b60008073ffffffffffffffffffffffffffffffffffffffff168273ffffffffffffffffffffffffffffffffffffffff161415610f79576040517f08c379a0000000000000000000000000000000000000000000000000000000008152600401610f7090613d31565b60405180910390fd5b606860008373ffffffffffffffffffffffffffffffffffffffff1673ffffffffffffffffffffffffffffffffffffffff168152602001908152602001600020549050919050565b610fc8611a3a565b73ffffffffffffffffffffffffffffffffffffffff16610fe6611409565b73ffffffffffffffffffffffffffffffffffffffff161461103c576040517f08c379a000000000000000000000000000000000000000000000000000000000815260040161103390613df1565b60405180910390fd5b6110466000611ea4565b565b600060019054906101000a900460ff166110705760008054906101000a900460ff1615611079565b611078611f6a565b5b6110b8576040517f08c379a00000000000000000000000000000000000000000000000000000000081526004016110af90613d91565b60405180910390fd5b60008060019054906101000a900460ff161590508015611108576001600060016101000a81548160ff02191690831515021790555060016000806101000a81548160ff0219169083151502179055505b611110611f7b565b6111846040518060400160405280600a81526020017f50494e4557414c4c4554000000000000000000000000000000000000000000008152506040518060400160405280600a81526020017f50494e4557414c4c455400000000000000000000000000000000000000000000815250611fdc565b604051806060016040528060278152602001614a126027913960fc90805190602001906111b292919061303a565b5080156111d45760008060016101000a81548160ff0219169083151502179055505b50565b3373ffffffffffffffffffffffffffffffffffffffff166112228383604051602001611204929190613a58565b6040516020818303038152906040528051906020012060001c610e56565b73ffffffffffffffffffffffffffffffffffffffff1614611278576040517f08c379a000000000000000000000000000000000000000000000000000000000815260040161126f90613cf1565b60405180910390fd5b6112ac828260405160200161128e929190613a58565b6040516020818303038152906040528051906020012060001c612049565b8173ffffffffffffffffffffffffffffffffffffffff166323b872dd3033846040518463ffffffff1660e01b81526004016112e993929190613af1565b600060405180830381600087803b15801561130357600080fd5b505af1158015611317573d6000803e3d6000fd5b5050505060008273ffffffffffffffffffffffffffffffffffffffff166370a08231336040518263ffffffff1660e01b81526004016113569190613ad6565b60206040518083038186803b15801561136e57600080fd5b505afa158015611382573d6000803e3d6000fd5b505050506040513d601f19601f820116820180604052508101906113a69190613574565b141561140557600060fb60008473ffffffffffffffffffffffffffffffffffffffff1673ffffffffffffffffffffffffffffffffffffffff16815260200190815260200160002060006101000a81548160ff0219169083151502179055505b5050565b600060c960009054906101000a900473ffffffffffffffffffffffffffffffffffffffff16905090565b60606066805461144290614158565b80601f016020809104026020016040519081016040528092919081815260200182805461146e90614158565b80156114bb5780601f10611490576101008083540402835291602001916114bb565b820191906000526020600020905b81548152906001019060200180831161149e57829003601f168201915b5050505050905090565b6114d76114d0611a3a565b838361215a565b5050565b6114e3611a3a565b73ffffffffffffffffffffffffffffffffffffffff16611501611409565b73ffffffffffffffffffffffffffffffffffffffff1614611557576040517f08c379a000000000000000000000000000000000000000000000000000000000815260040161154e90613df1565b60405180910390fd5b8173ffffffffffffffffffffffffffffffffffffffff166323b872dd3330846040518463ffffffff1660e01b815260040161159493929190613af1565b600060405180830381600087803b1580156115ae57600080fd5b505af11580156115c2573d6000803e3d6000fd5b505050506115fb3383836040516020016115dd929190613a58565b6040516020818303038152906040528051906020012060001c6122c7565b600160fb60008473ffffffffffffffffffffffffffffffffffffffff1673ffffffffffffffffffffffffffffffffffffffff16815260200190815260200160002060006101000a81548160ff0219169083151502179055505050565b611668611662611a3a565b83611b6a565b6116a7576040517f08c379a000000000000000000000000000000000000000000000000000000000815260040161169e90613e71565b60405180910390fd5b6116b3848484846122e5565b50505050565b60606116c4826119ce565b611703576040517f08c379a00000000000000000000000000000000000000000000000000000000081526004016116fa90613e31565b60405180910390fd5b600061170d612341565b9050600081511161172d5760405180602001604052806000815250611758565b80611737846123d3565b604051602001611748929190613a9d565b6040516020818303038152906040525b915050919050565b6000606a60008473ffffffffffffffffffffffffffffffffffffffff1673ffffffffffffffffffffffffffffffffffffffff16815260200190815260200160002060008373ffffffffffffffffffffffffffffffffffffffff1673ffffffffffffffffffffffffffffffffffffffff16815260200190815260200160002060009054906101000a900460ff16905092915050565b6117fc611a3a565b73ffffffffffffffffffffffffffffffffffffffff1661181a611409565b73ffffffffffffffffffffffffffffffffffffffff1614611870576040517f08c379a000000000000000000000000000000000000000000000000000000000815260040161186790613df1565b60405180910390fd5b600073ffffffffffffffffffffffffffffffffffffffff168173ffffffffffffffffffffffffffffffffffffffff1614156118e0576040517f08c379a00000000000000000000000000000000000000000000000000000000081526004016118d790613c51565b60405180910390fd5b6118e981611ea4565b50565b60007f80ac58cd000000000000000000000000000000000000000000000000000000007bffffffffffffffffffffffffffffffffffffffffffffffffffffffff1916827bffffffffffffffffffffffffffffffffffffffffffffffffffffffff191614806119b757507f5b5e139f000000000000000000000000000000000000000000000000000000007bffffffffffffffffffffffffffffffffffffffffffffffffffffffff1916827bffffffffffffffffffffffffffffffffffffffffffffffffffffffff1916145b806119c757506119c682612580565b5b9050919050565b60008073ffffffffffffffffffffffffffffffffffffffff166067600084815260200190815260200160002060009054906101000a900473ffffffffffffffffffffffffffffffffffffffff1673ffffffffffffffffffffffffffffffffffffffff1614159050919050565b600033905090565b816069600083815260200190815260200160002060006101000a81548173ffffffffffffffffffffffffffffffffffffffff021916908373ffffffffffffffffffffffffffffffffffffffff160217905550808273ffffffffffffffffffffffffffffffffffffffff16611ab583610e56565b73ffffffffffffffffffffffffffffffffffffffff167f8c5be1e5ebec7d5bd14f71427d1e84f3dd0314c0f7b2291e5b200ac8c7c3b92560405160405180910390a45050565b600080600080611b0a856125ea565b92509250925060018682858560405160008152602001604052604051611b339493929190613b8f565b6020604051602081039080840390855afa158015611b55573d6000803e3d6000fd5b50505060206040510351935050505092915050565b6000611b75826119ce565b611bb4576040517f08c379a0000000000000000000000000000000000000000000000000000000008152600401611bab90613cd1565b60405180910390fd5b6000611bbf83610e56565b90508073ffffffffffffffffffffffffffffffffffffffff168473ffffffffffffffffffffffffffffffffffffffff161480611c2e57508373ffffffffffffffffffffffffffffffffffffffff16611c168461075b565b73ffffffffffffffffffffffffffffffffffffffff16145b80611c3f5750611c3e8185611760565b5b91505092915050565b8273ffffffffffffffffffffffffffffffffffffffff16611c6882610e56565b73ffffffffffffffffffffffffffffffffffffffff1614611cbe576040517f08c379a0000000000000000000000000000000000000000000000000000000008152600401611cb590613e11565b60405180910390fd5b600073ffffffffffffffffffffffffffffffffffffffff168273ffffffffffffffffffffffffffffffffffffffff161415611d2e576040517f08c379a0000000000000000000000000000000000000000000000000000000008152600401611d2590613c91565b60405180910390fd5b611d39838383612652565b611d44600082611a42565b6001606860008573ffffffffffffffffffffffffffffffffffffffff1673ffffffffffffffffffffffffffffffffffffffff1681526020019081526020016000206000828254611d949190614057565b925050819055506001606860008473ffffffffffffffffffffffffffffffffffffffff1673ffffffffffffffffffffffffffffffffffffffff1681526020019081526020016000206000828254611deb9190613fd0565b92505081905550816067600083815260200190815260200160002060006101000a81548173ffffffffffffffffffffffffffffffffffffffff021916908373ffffffffffffffffffffffffffffffffffffffff160217905550808273ffffffffffffffffffffffffffffffffffffffff168473ffffffffffffffffffffffffffffffffffffffff167fddf252ad1be2c89b69c2b068fc378daa952ba7f163c4a11628f55a4df523b3ef60405160405180910390a4505050565b600060c960009054906101000a900473ffffffffffffffffffffffffffffffffffffffff1690508160c960006101000a81548173ffffffffffffffffffffffffffffffffffffffff021916908373ffffffffffffffffffffffffffffffffffffffff1602179055508173ffffffffffffffffffffffffffffffffffffffff168173ffffffffffffffffffffffffffffffffffffffff167f8be0079c531659141344cd1fd0a4f28419497f9722a3daafe3b4186f6b6457e060405160405180910390a35050565b6000611f7530612766565b15905090565b600060019054906101000a900460ff16611fca576040517f08c379a0000000000000000000000000000000000000000000000000000000008152600401611fc190613eb1565b60405180910390fd5b611fd2612779565b611fda6127ca565b565b600060019054906101000a900460ff1661202b576040517f08c379a000000000000000000000000000000000000000000000000000000000815260040161202290613eb1565b60405180910390fd5b612033612779565b61203b61282b565b612045828261287c565b5050565b600061205482610e56565b905061206281600084612652565b61206d600083611a42565b6001606860008373ffffffffffffffffffffffffffffffffffffffff1673ffffffffffffffffffffffffffffffffffffffff16815260200190815260200160002060008282546120bd9190614057565b925050819055506067600083815260200190815260200160002060006101000a81549073ffffffffffffffffffffffffffffffffffffffff021916905581600073ffffffffffffffffffffffffffffffffffffffff168273ffffffffffffffffffffffffffffffffffffffff167fddf252ad1be2c89b69c2b068fc378daa952ba7f163c4a11628f55a4df523b3ef60405160405180910390a45050565b8173ffffffffffffffffffffffffffffffffffffffff168373ffffffffffffffffffffffffffffffffffffffff1614156121c9576040517f08c379a00000000000000000000000000000000000000000000000000000000081526004016121c090613cb1565b60405180910390fd5b80606a60008573ffffffffffffffffffffffffffffffffffffffff1673ffffffffffffffffffffffffffffffffffffffff16815260200190815260200160002060008473ffffffffffffffffffffffffffffffffffffffff1673ffffffffffffffffffffffffffffffffffffffff16815260200190815260200160002060006101000a81548160ff0219169083151502179055508173ffffffffffffffffffffffffffffffffffffffff168373ffffffffffffffffffffffffffffffffffffffff167f17307eab39ab6107e8899845ad3d59bd9653f200f220920489ca2b5937696c31836040516122ba9190613b74565b60405180910390a3505050565b6122e18282604051806020016040528060008152506128fd565b5050565b6122f0848484611c48565b6122fc84848484612958565b61233b576040517f08c379a000000000000000000000000000000000000000000000000000000000815260040161233290613c31565b60405180910390fd5b50505050565b606060fc805461235090614158565b80601f016020809104026020016040519081016040528092919081815260200182805461237c90614158565b80156123c95780601f1061239e576101008083540402835291602001916123c9565b820191906000526020600020905b8154815290600101906020018083116123ac57829003601f168201915b5050505050905090565b6060600082141561241b576040518060400160405280600181526020017f3000000000000000000000000000000000000000000000000000000000000000815250905061257b565b600082905060005b6000821461244d578080612436906141bb565b915050600a826124469190614026565b9150612423565b60008167ffffffffffffffff81111561248f577f4e487b7100000000000000000000000000000000000000000000000000000000600052604160045260246000fd5b6040519080825280601f01601f1916602001820160405280156124c15781602001600182028036833780820191505090505b5090505b60008514612574576001826124da9190614057565b9150600a856124e99190614232565b60306124f59190613fd0565b60f81b818381518110612531577f4e487b7100000000000000000000000000000000000000000000000000000000600052603260045260246000fd5b60200101907effffffffffffffffffffffffffffffffffffffffffffffffffffffffffffff1916908160001a905350600a8561256d9190614026565b94506124c5565b8093505050505b919050565b60007f01ffc9a7000000000000000000000000000000000000000000000000000000007bffffffffffffffffffffffffffffffffffffffffffffffffffffffff1916827bffffffffffffffffffffffffffffffffffffffffffffffffffffffff1916149050919050565b60008060006041845114612633576040517f08c379a000000000000000000000000000000000000000000000000000000000815260040161262a90613ed1565b60405180910390fd5b6020840151925060408401519150606084015160001a90509193909250565b61265d838383612aef565b600073ffffffffffffffffffffffffffffffffffffffff168373ffffffffffffffffffffffffffffffffffffffff1614156126a05761269b81612af4565b6126df565b8173ffffffffffffffffffffffffffffffffffffffff168373ffffffffffffffffffffffffffffffffffffffff16146126de576126dd8382612b3d565b5b5b600073ffffffffffffffffffffffffffffffffffffffff168273ffffffffffffffffffffffffffffffffffffffff1614156127225761271d81612caa565b612761565b8273ffffffffffffffffffffffffffffffffffffffff168273ffffffffffffffffffffffffffffffffffffffff16146127605761275f8282612ded565b5b5b505050565b600080823b905060008111915050919050565b600060019054906101000a900460ff166127c8576040517f08c379a00000000000000000000000000000000000000000000000000000000081526004016127bf90613eb1565b60405180910390fd5b565b600060019054906101000a900460ff16612819576040517f08c379a000000000000000000000000000000000000000000000000000000000815260040161281090613eb1565b60405180910390fd5b612829612824611a3a565b611ea4565b565b600060019054906101000a900460ff1661287a576040517f08c379a000000000000000000000000000000000000000000000000000000000815260040161287190613eb1565b60405180910390fd5b565b600060019054906101000a900460ff166128cb576040517f08c379a00000000000000000000000000000000000000000000000000000000081526004016128c290613eb1565b60405180910390fd5b81606590805190602001906128e192919061303a565b5080606690805190602001906128f892919061303a565b505050565b6129078383612e6c565b6129146000848484612958565b612953576040517f08c379a000000000000000000000000000000000000000000000000000000000815260040161294a90613c31565b60405180910390fd5b505050565b60006129798473ffffffffffffffffffffffffffffffffffffffff16612766565b15612ae2578373ffffffffffffffffffffffffffffffffffffffff1663150b7a026129a2611a3a565b8786866040518563ffffffff1660e01b81526004016129c49493929190613b28565b602060405180830381600087803b1580156129de57600080fd5b505af1925050508015612a0f57506040513d601f19601f82011682018060405250810190612a0c9190613522565b60015b612a92573d8060008114612a3f576040519150601f19603f3d011682016040523d82523d6000602084013e612a44565b606091505b50600081511415612a8a576040517f08c379a0000000000000000000000000000000000000000000000000000000008152600401612a8190613c31565b60405180910390fd5b805181602001fd5b63150b7a0260e01b7bffffffffffffffffffffffffffffffffffffffffffffffffffffffff1916817bffffffffffffffffffffffffffffffffffffffffffffffffffffffff191614915050612ae7565b600190505b949350505050565b505050565b609980549050609a600083815260200190815260200160002081905550609981908060018154018082558091505060019003906000526020600020016000909190919091505550565b60006001612b4a84610f08565b612b549190614057565b9050600060986000848152602001908152602001600020549050818114612c39576000609760008673ffffffffffffffffffffffffffffffffffffffff1673ffffffffffffffffffffffffffffffffffffffff168152602001908152602001600020600084815260200190815260200160002054905080609760008773ffffffffffffffffffffffffffffffffffffffff1673ffffffffffffffffffffffffffffffffffffffff168152602001908152602001600020600084815260200190815260200160002081905550816098600083815260200190815260200160002081905550505b6098600084815260200190815260200160002060009055609760008573ffffffffffffffffffffffffffffffffffffffff1673ffffffffffffffffffffffffffffffffffffffff16815260200190815260200160002060008381526020019081526020016000206000905550505050565b60006001609980549050612cbe9190614057565b90506000609a6000848152602001908152602001600020549050600060998381548110612d14577f4e487b7100000000000000000000000000000000000000000000000000000000600052603260045260246000fd5b906000526020600020015490508060998381548110612d5c577f4e487b7100000000000000000000000000000000000000000000000000000000600052603260045260246000fd5b906000526020600020018190555081609a600083815260200190815260200160002081905550609a6000858152602001908152602001600020600090556099805480612dd1577f4e487b7100000000000000000000000000000000000000000000000000000000600052603160045260246000fd5b6001900381819060005260206000200160009055905550505050565b6000612df883610f08565b905081609760008573ffffffffffffffffffffffffffffffffffffffff1673ffffffffffffffffffffffffffffffffffffffff168152602001908152602001600020600083815260200190815260200160002081905550806098600084815260200190815260200160002081905550505050565b600073ffffffffffffffffffffffffffffffffffffffff168273ffffffffffffffffffffffffffffffffffffffff161415612edc576040517f08c379a0000000000000000000000000000000000000000000000000000000008152600401612ed390613db1565b60405180910390fd5b612ee5816119ce565b15612f25576040517f08c379a0000000000000000000000000000000000000000000000000000000008152600401612f1c90613c71565b60405180910390fd5b612f3160008383612652565b6001606860008473ffffffffffffffffffffffffffffffffffffffff1673ffffffffffffffffffffffffffffffffffffffff1681526020019081526020016000206000828254612f819190613fd0565b92505081905550816067600083815260200190815260200160002060006101000a81548173ffffffffffffffffffffffffffffffffffffffff021916908373ffffffffffffffffffffffffffffffffffffffff160217905550808273ffffffffffffffffffffffffffffffffffffffff16600073ffffffffffffffffffffffffffffffffffffffff167fddf252ad1be2c89b69c2b068fc378daa952ba7f163c4a11628f55a4df523b3ef60405160405180910390a45050565b82805461304690614158565b90600052602060002090601f01602090048101928261306857600085556130af565b82601f1061308157805160ff19168380011785556130af565b828001600101855582156130af579182015b828111156130ae578251825591602001919060010190613093565b5b5090506130bc91906130c0565b5090565b5b808211156130d95760008160009055506001016130c1565b5090565b60006130f06130eb84613f51565b613f2c565b90508281526020810184848401111561310857600080fd5b613113848285614116565b509392505050565b60008135905061312a8161499e565b92915050565b60008135905061313f816149b5565b92915050565b600081359050613154816149cc565b92915050565b600081359050613169816149e3565b92915050565b60008151905061317e816149e3565b92915050565b60008083601f84011261319657600080fd5b8235905067ffffffffffffffff8111156131af57600080fd5b6020830191508360018202830111156131c757600080fd5b9250929050565b600082601f8301126131df57600080fd5b81356131ef8482602086016130dd565b91505092915050565b600081359050613207816149fa565b92915050565b60008151905061321c816149fa565b92915050565b60006020828403121561323457600080fd5b60006132428482850161311b565b91505092915050565b6000806040838503121561325e57600080fd5b600061326c8582860161311b565b925050602061327d8582860161311b565b9150509250929050565b60008060006060848603121561329c57600080fd5b60006132aa8682870161311b565b93505060206132bb8682870161311b565b92505060406132cc868287016131f8565b9150509250925092565b6000806000806000608086880312156132ee57600080fd5b60006132fc8882890161311b565b955050602061330d8882890161311b565b945050604061331e888289016131f8565b935050606086013567ffffffffffffffff81111561333b57600080fd5b61334788828901613184565b92509250509295509295909350565b6000806000806080858703121561336c57600080fd5b600061337a8782880161311b565b945050602061338b8782880161311b565b935050604061339c878288016131f8565b925050606085013567ffffffffffffffff8111156133b957600080fd5b6133c5878288016131ce565b91505092959194509250565b600080604083850312156133e457600080fd5b60006133f28582860161311b565b925050602061340385828601613130565b9150509250929050565b60008060006040848603121561342257600080fd5b60006134308682870161311b565b935050602084013567ffffffffffffffff81111561344d57600080fd5b61345986828701613184565b92509250509250925092565b6000806040838503121561347857600080fd5b60006134868582860161311b565b9250506020613497858286016131f8565b9150509250929050565b6000806000604084860312156134b657600080fd5b60006134c486828701613145565b935050602084013567ffffffffffffffff8111156134e157600080fd5b6134ed86828701613184565b92509250509250925092565b60006020828403121561350b57600080fd5b60006135198482850161315a565b91505092915050565b60006020828403121561353457600080fd5b60006135428482850161316f565b91505092915050565b60006020828403121561355d57600080fd5b600061356b848285016131f8565b91505092915050565b60006020828403121561358657600080fd5b60006135948482850161320d565b91505092915050565b6135a68161408b565b82525050565b6135bd6135b88261408b565b614204565b82525050565b6135cc8161409d565b82525050565b6135db816140a9565b82525050565b6135ea816140b3565b82525050565b60006135fc8385613fa9565b9350613609838584614116565b82840190509392505050565b600061362082613f82565b61362a8185613f98565b935061363a818560208601614125565b6136438161431f565b840191505092915050565b600061365982613f8d565b6136638185613fb4565b9350613673818560208601614125565b61367c8161431f565b840191505092915050565b600061369282613f8d565b61369c8185613fc5565b93506136ac818560208601614125565b80840191505092915050565b60006136c5602b83613fb4565b91506136d08261433d565b604082019050919050565b60006136e8603283613fb4565b91506136f38261438c565b604082019050919050565b600061370b602683613fb4565b9150613716826143db565b604082019050919050565b600061372e601c83613fb4565b91506137398261442a565b602082019050919050565b6000613751602483613fb4565b915061375c82614453565b604082019050919050565b6000613774601983613fb4565b915061377f826144a2565b602082019050919050565b6000613797602c83613fb4565b91506137a2826144cb565b604082019050919050565b60006137ba601883613fb4565b91506137c58261451a565b602082019050919050565b60006137dd603883613fb4565b91506137e882614543565b604082019050919050565b6000613800602a83613fb4565b915061380b82614592565b604082019050919050565b6000613823602983613fb4565b915061382e826145e1565b604082019050919050565b6000613846601183613fb4565b915061385182614630565b602082019050919050565b6000613869602e83613fb4565b915061387482614659565b604082019050919050565b600061388c602083613fb4565b9150613897826146a8565b602082019050919050565b60006138af602c83613fb4565b91506138ba826146d1565b604082019050919050565b60006138d2602083613fb4565b91506138dd82614720565b602082019050919050565b60006138f5602983613fb4565b915061390082614749565b604082019050919050565b6000613918602f83613fb4565b915061392382614798565b604082019050919050565b600061393b602183613fb4565b9150613946826147e7565b604082019050919050565b600061395e600083613fa9565b915061396982614836565b600082019050919050565b6000613981603183613fb4565b915061398c82614839565b604082019050919050565b60006139a4602c83613fb4565b91506139af82614888565b604082019050919050565b60006139c7602b83613fb4565b91506139d2826148d7565b604082019050919050565b60006139ea601883613fb4565b91506139f582614926565b602082019050919050565b6000613a0d602483613fb4565b9150613a188261494f565b604082019050919050565b613a2c816140ff565b82525050565b613a43613a3e826140ff565b614228565b82525050565b613a5281614109565b82525050565b6000613a6482856135ac565b601482019150613a748284613a32565b6020820191508190509392505050565b6000613a918284866135f0565b91508190509392505050565b6000613aa98285613687565b9150613ab58284613687565b91508190509392505050565b6000613acc82613951565b9150819050919050565b6000602082019050613aeb600083018461359d565b92915050565b6000606082019050613b06600083018661359d565b613b13602083018561359d565b613b206040830184613a23565b949350505050565b6000608082019050613b3d600083018761359d565b613b4a602083018661359d565b613b576040830185613a23565b8181036060830152613b698184613615565b905095945050505050565b6000602082019050613b8960008301846135c3565b92915050565b6000608082019050613ba460008301876135d2565b613bb16020830186613a49565b613bbe60408301856135d2565b613bcb60608301846135d2565b95945050505050565b6000602082019050613be960008301846135e1565b92915050565b60006020820190508181036000830152613c09818461364e565b905092915050565b60006020820190508181036000830152613c2a816136b8565b9050919050565b60006020820190508181036000830152613c4a816136db565b9050919050565b60006020820190508181036000830152613c6a816136fe565b9050919050565b60006020820190508181036000830152613c8a81613721565b9050919050565b60006020820190508181036000830152613caa81613744565b9050919050565b60006020820190508181036000830152613cca81613767565b9050919050565b60006020820190508181036000830152613cea8161378a565b9050919050565b60006020820190508181036000830152613d0a816137ad565b9050919050565b60006020820190508181036000830152613d2a816137d0565b9050919050565b60006020820190508181036000830152613d4a816137f3565b9050919050565b60006020820190508181036000830152613d6a81613816565b9050919050565b60006020820190508181036000830152613d8a81613839565b9050919050565b60006020820190508181036000830152613daa8161385c565b9050919050565b60006020820190508181036000830152613dca8161387f565b9050919050565b60006020820190508181036000830152613dea816138a2565b9050919050565b60006020820190508181036000830152613e0a816138c5565b9050919050565b60006020820190508181036000830152613e2a816138e8565b9050919050565b60006020820190508181036000830152613e4a8161390b565b9050919050565b60006020820190508181036000830152613e6a8161392e565b9050919050565b60006020820190508181036000830152613e8a81613974565b9050919050565b60006020820190508181036000830152613eaa81613997565b9050919050565b60006020820190508181036000830152613eca816139ba565b9050919050565b60006020820190508181036000830152613eea816139dd565b9050919050565b60006020820190508181036000830152613f0a81613a00565b9050919050565b6000602082019050613f266000830184613a23565b92915050565b6000613f36613f47565b9050613f42828261418a565b919050565b6000604051905090565b600067ffffffffffffffff821115613f6c57613f6b6142f0565b5b613f758261431f565b9050602081019050919050565b600081519050919050565b600081519050919050565b600082825260208201905092915050565b600081905092915050565b600082825260208201905092915050565b600081905092915050565b6000613fdb826140ff565b9150613fe6836140ff565b9250827fffffffffffffffffffffffffffffffffffffffffffffffffffffffffffffffff0382111561401b5761401a614263565b5b828201905092915050565b6000614031826140ff565b915061403c836140ff565b92508261404c5761404b614292565b5b828204905092915050565b6000614062826140ff565b915061406d836140ff565b9250828210156140805761407f614263565b5b828203905092915050565b6000614096826140df565b9050919050565b60008115159050919050565b6000819050919050565b60007fffffffff0000000000000000000000000000000000000000000000000000000082169050919050565b600073ffffffffffffffffffffffffffffffffffffffff82169050919050565b6000819050919050565b600060ff82169050919050565b82818337600083830152505050565b60005b83811015614143578082015181840152602081019050614128565b83811115614152576000848401525b50505050565b6000600282049050600182168061417057607f821691505b60208210811415614184576141836142c1565b5b50919050565b6141938261431f565b810181811067ffffffffffffffff821117156141b2576141b16142f0565b5b80604052505050565b60006141c6826140ff565b91507fffffffffffffffffffffffffffffffffffffffffffffffffffffffffffffffff8214156141f9576141f8614263565b5b600182019050919050565b600061420f82614216565b9050919050565b600061422182614330565b9050919050565b6000819050919050565b600061423d826140ff565b9150614248836140ff565b92508261425857614257614292565b5b828206905092915050565b7f4e487b7100000000000000000000000000000000000000000000000000000000600052601160045260246000fd5b7f4e487b7100000000000000000000000000000000000000000000000000000000600052601260045260246000fd5b7f4e487b7100000000000000000000000000000000000000000000000000000000600052602260045260246000fd5b7f4e487b7100000000000000000000000000000000000000000000000000000000600052604160045260246000fd5b6000601f19601f8301169050919050565b60008160601b9050919050565b7f455243373231456e756d657261626c653a206f776e657220696e646578206f7560008201527f74206f6620626f756e6473000000000000000000000000000000000000000000602082015250565b7f4552433732313a207472616e7366657220746f206e6f6e20455243373231526560008201527f63656976657220696d706c656d656e7465720000000000000000000000000000602082015250565b7f4f776e61626c653a206e6577206f776e657220697320746865207a65726f206160008201527f6464726573730000000000000000000000000000000000000000000000000000602082015250565b7f4552433732313a20746f6b656e20616c7265616479206d696e74656400000000600082015250565b7f4552433732313a207472616e7366657220746f20746865207a65726f2061646460008201527f7265737300000000000000000000000000000000000000000000000000000000602082015250565b7f4552433732313a20617070726f766520746f2063616c6c657200000000000000600082015250565b7f4552433732313a206f70657261746f7220717565727920666f72206e6f6e657860008201527f697374656e7420746f6b656e0000000000000000000000000000000000000000602082015250565b7f77616c6c657420697320636f6c6c61746572616c697a65640000000000000000600082015250565b7f4552433732313a20617070726f76652063616c6c6572206973206e6f74206f7760008201527f6e6572206e6f7220617070726f76656420666f7220616c6c0000000000000000602082015250565b7f4552433732313a2062616c616e636520717565727920666f7220746865207a6560008201527f726f206164647265737300000000000000000000000000000000000000000000602082015250565b7f4552433732313a206f776e657220717565727920666f72206e6f6e657869737460008201527f656e7420746f6b656e0000000000000000000000000000000000000000000000602082015250565b7f63616e6e6f742073656e64206574686572000000000000000000000000000000600082015250565b7f496e697469616c697a61626c653a20636f6e747261637420697320616c72656160008201527f647920696e697469616c697a6564000000000000000000000000000000000000602082015250565b7f4552433732313a206d696e7420746f20746865207a65726f2061646472657373600082015250565b7f4552433732313a20617070726f76656420717565727920666f72206e6f6e657860008201527f697374656e7420746f6b656e0000000000000000000000000000000000000000602082015250565b7f4f776e61626c653a2063616c6c6572206973206e6f7420746865206f776e6572600082015250565b7f4552433732313a207472616e73666572206f6620746f6b656e2074686174206960008201527f73206e6f74206f776e0000000000000000000000000000000000000000000000602082015250565b7f4552433732314d657461646174613a2055524920717565727920666f72206e6f60008201527f6e6578697374656e7420746f6b656e0000000000000000000000000000000000602082015250565b7f4552433732313a20617070726f76616c20746f2063757272656e74206f776e6560008201527f7200000000000000000000000000000000000000000000000000000000000000602082015250565b50565b7f4552433732313a207472616e736665722063616c6c6572206973206e6f74206f60008201527f776e6572206e6f7220617070726f766564000000000000000000000000000000602082015250565b7f455243373231456e756d657261626c653a20676c6f62616c20696e646578206f60008201527f7574206f6620626f756e64730000000000000000000000000000000000000000602082015250565b7f496e697469616c697a61626c653a20636f6e7472616374206973206e6f74206960008201527f6e697469616c697a696e67000000000000000000000000000000000000000000602082015250565b7f696e76616c6964207369676e6174757265206c656e6774680000000000000000600082015250565b7f63616e6e6f74206f70657261746520636f6c6c61746572616c697a656420617360008201527f7365747300000000000000000000000000000000000000000000000000000000602082015250565b6149a78161408b565b81146149b257600080fd5b50565b6149be8161409d565b81146149c957600080fd5b50565b6149d5816140a9565b81146149e057600080fd5b50565b6149ec816140b3565b81146149f757600080fd5b50565b614a03816140ff565b8114614a0e57600080fd5b5056fe68747470733a2f2f70696e6577616c6c65742d6170692e70696e652e6c6f616e732f6d6574612fa2646970667358221220eb005915c1888b2c4feb8ebea5817bceebfa77b2face1b54ed5117e81dbb093664736f6c63430008030033",
  "immutableReferences": {},
  "source": "// SPDX-License-Identifier: MIT\n\npragma solidity 0.8.3;\n\nimport \"@openzeppelin/contracts-upgradeable/token/ERC721/ERC721Upgradeable.sol\";\nimport \"@openzeppelin/contracts-upgradeable/access/OwnableUpgradeable.sol\";\nimport \"@openzeppelin/contracts/token/ERC721/IERC721Receiver.sol\";\nimport \"@openzeppelin/contracts-upgradeable/token/ERC721/extensions/ERC721EnumerableUpgradeable.sol\";\n\n// loan originator should check if nft has active approvals and promt users to remove approval\n// check all approval and approvalforall evnets\n\ncontract PineWallet is ERC721EnumerableUpgradeable, OwnableUpgradeable, IERC721Receiver {\n\n    function onERC721Received(\n        address operator,\n        address from,\n        uint256 tokenId,\n        bytes calldata data\n    ) public pure override returns (bytes4) {\n        return\n            bytes4(\n                keccak256(\"onERC721Received(address,address,uint256,bytes)\")\n            );\n    }\n\n    mapping (address => bool) collateralizedCollections;\n\n    string private _baseURIextended;\n\n    mapping(address => uint8) private _allowList;\n\n    function _baseURI() internal view virtual override returns (string memory) {\n        return _baseURIextended;\n    }\n\n    function initialize() public initializer {\n      __Ownable_init();\n      __ERC721_init(\"PINEWALLET\", \"PINEWALLET\");\n      _baseURIextended = \"https://pinewallet-api.pine.loans/meta/\";\n    }\n\n    function depositCollateral(address target, uint nftID) public onlyOwner {\n      ERC721EnumerableUpgradeable(target).transferFrom(msg.sender, address(this), nftID);\n      _safeMint(msg.sender, uint(keccak256(abi.encodePacked(target,nftID))));\n      collateralizedCollections[target] = true;\n    }\n\n    function removeCollateral(address target, uint nftID) public {\n      require(ownerOf(uint(keccak256(abi.encodePacked(target,nftID)))) == msg.sender, \"wallet is collateralized\");\n      _burn(uint(keccak256(abi.encodePacked(target,nftID))));\n      ERC721EnumerableUpgradeable(target).transferFrom(address(this), msg.sender, nftID);\n      if (ERC721EnumerableUpgradeable(target).balanceOf(msg.sender) == 0) collateralizedCollections[target] = false;\n    }\n\n    function call(address target, bytes calldata dataContent) public payable onlyOwner {\n      require(!collateralizedCollections[target], \"cannot operate collateralized assets\" );\n      (bool success, ) = target.call{value: msg.value}(dataContent);\n      require(success);\n    }\n\n    function withdraw(uint256 amount) public onlyOwner {\n        (bool success, ) = owner().call{value: amount}(\"\");\n        require(success, \"cannot send ether\");\n    }\n\n    function recoverSigner(bytes32 _ethSignedMessageHash, bytes memory _signature)\n        internal\n        pure\n        returns (address)\n    {\n        (bytes32 r, bytes32 s, uint8 v) = splitSignature(_signature);\n\n        return ecrecover(_ethSignedMessageHash, v, r, s);\n    }\n\n    function splitSignature(bytes memory sig)\n        internal\n        pure\n        returns (\n            bytes32 r,\n            bytes32 s,\n            uint8 v\n        )\n    {\n        require(sig.length == 65, \"invalid signature length\");\n\n        assembly {\n            /*\n            First 32 bytes stores the length of the signature\n\n            add(sig, 32) = pointer of sig + 32\n            effectively, skips first 32 bytes of signature\n\n            mload(p) loads next 32 bytes starting at the memory address p into memory\n            */\n\n            // first 32 bytes, after the length prefix\n            r := mload(add(sig, 32))\n            // second 32 bytes\n            s := mload(add(sig, 64))\n            // final byte (first byte of the next 32 bytes)\n            v := byte(0, mload(add(sig, 96)))\n        }\n\n        // implicitly return (r, s, v)\n    }\n\n\n  /**\n   * @notice Verifies that the signer is the owner of the signing contract.\n   */\n  function isValidSignature(\n    bytes32 _hash,\n    bytes calldata _signature\n  ) external view returns (bytes4) {\n    // Validate signatures\n    if ( recoverSigner(_hash, _signature) == owner()) {\n      return 0x1626ba7e;\n    } else {\n      return 0xffffffff;\n    }\n  }\n\n}",
  "sourcePath": "/Users/alexho/Documents/GitHub/plp-smart-contracts/contracts/PineWallet01.sol",
  "compiler": {
    "name": "solc",
    "version": "0.8.3+commit.8d00100c.Emscripten.clang"
  },
  "schemaVersion": "3.4.4",
  "updatedAt": "2022-01-29T17:47:32.780Z",
  "devdoc": {
    "kind": "dev",
    "methods": {
      "approve(address,uint256)": {
        "details": "See {IERC721-approve}."
      },
      "balanceOf(address)": {
        "details": "See {IERC721-balanceOf}."
      },
      "getApproved(uint256)": {
        "details": "See {IERC721-getApproved}."
      },
      "isApprovedForAll(address,address)": {
        "details": "See {IERC721-isApprovedForAll}."
      },
      "name()": {
        "details": "See {IERC721Metadata-name}."
      },
      "onERC721Received(address,address,uint256,bytes)": {
        "details": "Whenever an {IERC721} `tokenId` token is transferred to this contract via {IERC721-safeTransferFrom} by `operator` from `from`, this function is called. It must return its Solidity selector to confirm the token transfer. If any other value is returned or the interface is not implemented by the recipient, the transfer will be reverted. The selector can be obtained in Solidity with `IERC721.onERC721Received.selector`."
      },
      "owner()": {
        "details": "Returns the address of the current owner."
      },
      "ownerOf(uint256)": {
        "details": "See {IERC721-ownerOf}."
      },
      "renounceOwnership()": {
        "details": "Leaves the contract without owner. It will not be possible to call `onlyOwner` functions anymore. Can only be called by the current owner. NOTE: Renouncing ownership will leave the contract without an owner, thereby removing any functionality that is only available to the owner."
      },
      "safeTransferFrom(address,address,uint256)": {
        "details": "See {IERC721-safeTransferFrom}."
      },
      "safeTransferFrom(address,address,uint256,bytes)": {
        "details": "See {IERC721-safeTransferFrom}."
      },
      "setApprovalForAll(address,bool)": {
        "details": "See {IERC721-setApprovalForAll}."
      },
      "supportsInterface(bytes4)": {
        "details": "See {IERC165-supportsInterface}."
      },
      "symbol()": {
        "details": "See {IERC721Metadata-symbol}."
      },
      "tokenByIndex(uint256)": {
        "details": "See {IERC721Enumerable-tokenByIndex}."
      },
      "tokenOfOwnerByIndex(address,uint256)": {
        "details": "See {IERC721Enumerable-tokenOfOwnerByIndex}."
      },
      "tokenURI(uint256)": {
        "details": "See {IERC721Metadata-tokenURI}."
      },
      "totalSupply()": {
        "details": "See {IERC721Enumerable-totalSupply}."
      },
      "transferFrom(address,address,uint256)": {
        "details": "See {IERC721-transferFrom}."
      },
      "transferOwnership(address)": {
        "details": "Transfers ownership of the contract to a new account (`newOwner`). Can only be called by the current owner."
      }
    },
    "version": 1
  },
  "userdoc": {
    "kind": "user",
    "methods": {
      "isValidSignature(bytes32,bytes)": {
        "notice": "Verifies that the signer is the owner of the signing contract."
      }
    },
    "version": 1
  }
}