{
  "contractName": "VerifySignaturePool01",
  "abi": [
    {
      "inputs": [
        {
          "internalType": "address",
          "name": "nft",
          "type": "address"
        },
        {
          "internalType": "uint256",
          "name": "punkID",
          "type": "uint256"
        },
        {
          "internalType": "uint256",
          "name": "valuation",
          "type": "uint256"
        },
        {
          "internalType": "uint256",
          "name": "expireAtBlock",
          "type": "uint256"
        }
      ],
      "name": "getMessageHash",
      "outputs": [
        {
          "internalType": "bytes32",
          "name": "",
          "type": "bytes32"
        }
      ],
      "stateMutability": "pure",
      "type": "function"
    },
    {
      "inputs": [
        {
          "internalType": "bytes32",
          "name": "_messageHash",
          "type": "bytes32"
        }
      ],
      "name": "getEthSignedMessageHash",
      "outputs": [
        {
          "internalType": "bytes32",
          "name": "",
          "type": "bytes32"
        }
      ],
      "stateMutability": "pure",
      "type": "function"
    },
    {
      "inputs": [
        {
          "internalType": "address",
          "name": "nft",
          "type": "address"
        },
        {
          "internalType": "uint256",
          "name": "punkID",
          "type": "uint256"
        },
        {
          "internalType": "uint256",
          "name": "valuation",
          "type": "uint256"
        },
        {
          "internalType": "uint256",
          "name": "expireAtBlock",
          "type": "uint256"
        },
        {
          "internalType": "address",
          "name": "_signer",
          "type": "address"
        },
        {
          "internalType": "bytes",
          "name": "signature",
          "type": "bytes"
        }
      ],
      "name": "verify",
      "outputs": [
        {
          "internalType": "bool",
          "name": "",
          "type": "bool"
        }
      ],
      "stateMutability": "pure",
      "type": "function"
    }
  ],
  "bytecode": "0x608060405234801561001057600080fd5b50610878806100206000396000f3fe608060405234801561001057600080fd5b50600436106100415760003560e01c80630f3f9bbf14610046578063f440be0414610076578063fa540801146100a6575b600080fd5b610060600480360381019061005b9190610384565b6100d6565b60405161006d919061057a565b60405180910390f35b610090600480360381019061008b9190610321565b61013a565b60405161009d9190610595565b60405180910390f35b6100c060048036038101906100bb9190610425565b610173565b6040516100cd9190610595565b60405180910390f35b6000806100e58888888861013a565b905060006100f282610173565b90508473ffffffffffffffffffffffffffffffffffffffff1661011582866101a3565b73ffffffffffffffffffffffffffffffffffffffff1614925050509695505050505050565b6000848484846040516020016101539493929190610506565b604051602081830303815290604052805190602001209050949350505050565b6000816040516020016101869190610554565b604051602081830303815290604052805190602001209050919050565b6000806000806101b285610212565b925092509250600186828585604051600081526020016040526040516101db94939291906105b0565b6020604051602081039080840390855afa1580156101fd573d6000803e3d6000fd5b50505060206040510351935050505092915050565b6000806000604184511461025b576040517f08c379a0000000000000000000000000000000000000000000000000000000008152600401610252906105f5565b60405180910390fd5b6020840151925060408401519150606084015160001a90509193909250565b600061028d6102888461063a565b610615565b9050828152602081018484840111156102a557600080fd5b6102b08482856106e6565b509392505050565b6000813590506102c7816107fd565b92915050565b6000813590506102dc81610814565b92915050565b600082601f8301126102f357600080fd5b813561030384826020860161027a565b91505092915050565b60008135905061031b8161082b565b92915050565b6000806000806080858703121561033757600080fd5b6000610345878288016102b8565b94505060206103568782880161030c565b93505060406103678782880161030c565b92505060606103788782880161030c565b91505092959194509250565b60008060008060008060c0878903121561039d57600080fd5b60006103ab89828a016102b8565b96505060206103bc89828a0161030c565b95505060406103cd89828a0161030c565b94505060606103de89828a0161030c565b93505060806103ef89828a016102b8565b92505060a087013567ffffffffffffffff81111561040c57600080fd5b61041889828a016102e2565b9150509295509295509295565b60006020828403121561043757600080fd5b6000610445848285016102cd565b91505092915050565b61045f61045a82610687565b610726565b82525050565b61046e81610699565b82525050565b61047d816106a5565b82525050565b61049461048f826106a5565b610738565b82525050565b60006104a7601c8361067c565b91506104b2826107ab565b601c82019050919050565b60006104ca60188361066b565b91506104d5826107d4565b602082019050919050565b6104f16104ec826106cf565b610754565b82525050565b610500816106d9565b82525050565b6000610512828761044e565b60148201915061052282866104e0565b60208201915061053282856104e0565b60208201915061054282846104e0565b60208201915081905095945050505050565b600061055f8261049a565b915061056b8284610483565b60208201915081905092915050565b600060208201905061058f6000830184610465565b92915050565b60006020820190506105aa6000830184610474565b92915050565b60006080820190506105c56000830187610474565b6105d260208301866104f7565b6105df6040830185610474565b6105ec6060830184610474565b95945050505050565b6000602082019050818103600083015261060e816104bd565b9050919050565b600061061f610630565b905061062b82826106f5565b919050565b6000604051905090565b600067ffffffffffffffff8211156106555761065461075e565b5b61065e8261078d565b9050602081019050919050565b600082825260208201905092915050565b600081905092915050565b6000610692826106af565b9050919050565b60008115159050919050565b6000819050919050565b600073ffffffffffffffffffffffffffffffffffffffff82169050919050565b6000819050919050565b600060ff82169050919050565b82818337600083830152505050565b6106fe8261078d565b810181811067ffffffffffffffff8211171561071d5761071c61075e565b5b80604052505050565b600061073182610742565b9050919050565b6000819050919050565b600061074d8261079e565b9050919050565b6000819050919050565b7f4e487b7100000000000000000000000000000000000000000000000000000000600052604160045260246000fd5b6000601f19601f8301169050919050565b60008160601b9050919050565b7f19457468657265756d205369676e6564204d6573736167653a0a333200000000600082015250565b7f696e76616c6964207369676e6174757265206c656e6774680000000000000000600082015250565b61080681610687565b811461081157600080fd5b50565b61081d816106a5565b811461082857600080fd5b50565b610834816106cf565b811461083f57600080fd5b5056fea26469706673582212206c662def0ca3a59178bee006a8906408441c365e80106563391a8f1939903a8064736f6c63430008030033",
  "immutableReferences": {},
  "source": "// SPDX-License-Identifier: MIT\r\npragma solidity 0.8.3;\r\n\r\n/* Signature Verification\r\n\r\nHow to Sign and Verify\r\n# Signing\r\n1. Create message to sign\r\n2. Hash the message\r\n3. Sign the hash (off chain, keep your private key secret)\r\n\r\n# Verify\r\n1. Recreate hash from the original message\r\n2. Recover signer from signature and hash\r\n3. Compare recovered signer to claimed signer\r\n*/\r\n\r\ncontract VerifySignaturePool01 {\r\n    /* 1. Unlock MetaMask account\r\n    ethereum.enable()\r\n    */\r\n\r\n    /* 2. Get message hash to sign\r\n    getMessageHash(\r\n        0x14723A09ACff6D2A60DcdF7aA4AFf308FDDC160C,\r\n        123,\r\n        \"coffee and donuts\",\r\n        1\r\n    )\r\n\r\n    hash = \"0xcf36ac4f97dc10d91fc2cbb20d718e94a8cbfe0f82eaedc6a4aa38946fb797cd\"\r\n    */\r\n    function getMessageHash(\r\n        address nft,\r\n        uint punkID,\r\n        uint valuation,\r\n        uint expireAtBlock\r\n    ) public pure returns (bytes32) {\r\n        return keccak256(abi.encodePacked(nft, punkID, valuation, expireAtBlock));\r\n    }\r\n\r\n    /* 3. Sign message hash\r\n    # using browser\r\n    account = \"copy paste account of signer here\"\r\n    ethereum.request({ method: \"personal_sign\", params: [account, hash]}).then(console.log)\r\n\r\n    # using web3\r\n    web3.personal.sign(hash, web3.eth.defaultAccount, console.log)\r\n\r\n    Signature will be different for different accounts\r\n    0x993dab3dd91f5c6dc28e17439be475478f5635c92a56e17e82349d3fb2f166196f466c0b4e0c146f285204f0dcb13e5ae67bc33f4b888ec32dfe0a063e8f3f781b\r\n    */\r\n    function getEthSignedMessageHash(bytes32 _messageHash)\r\n        public\r\n        pure\r\n        returns (bytes32)\r\n    {\r\n        /*\r\n        Signature is produced by signing a keccak256 hash with the following format:\r\n        \"\\x19Ethereum Signed Message\\n\" + len(msg) + msg\r\n        */\r\n        return\r\n            keccak256(\r\n                abi.encodePacked(\"\\x19Ethereum Signed Message:\\n32\", _messageHash)\r\n            );\r\n    }\r\n\r\n    /* 4. Verify signature\r\n    signer = 0xB273216C05A8c0D4F0a4Dd0d7Bae1D2EfFE636dd\r\n    to = 0x14723A09ACff6D2A60DcdF7aA4AFf308FDDC160C\r\n    amount = 123\r\n    message = \"coffee and donuts\"\r\n    nonce = 1\r\n    signature =\r\n        0x993dab3dd91f5c6dc28e17439be475478f5635c92a56e17e82349d3fb2f166196f466c0b4e0c146f285204f0dcb13e5ae67bc33f4b888ec32dfe0a063e8f3f781b\r\n    */\r\n    function verify(\r\n        address nft,\r\n        uint punkID,\r\n        uint valuation,\r\n        uint expireAtBlock,\r\n        address _signer,\r\n        bytes memory signature\r\n    ) public pure returns (bool) {\r\n        bytes32 messageHash = getMessageHash(nft,punkID, valuation, expireAtBlock);\r\n        bytes32 ethSignedMessageHash = getEthSignedMessageHash(messageHash);\r\n\r\n        return recoverSigner(ethSignedMessageHash, signature) == _signer;\r\n    }\r\n\r\n    function recoverSigner(bytes32 _ethSignedMessageHash, bytes memory _signature)\r\n        internal\r\n        pure\r\n        returns (address)\r\n    {\r\n        (bytes32 r, bytes32 s, uint8 v) = splitSignature(_signature);\r\n\r\n        return ecrecover(_ethSignedMessageHash, v, r, s);\r\n    }\r\n\r\n    function splitSignature(bytes memory sig)\r\n        internal\r\n        pure\r\n        returns (\r\n            bytes32 r,\r\n            bytes32 s,\r\n            uint8 v\r\n        )\r\n    {\r\n        require(sig.length == 65, \"invalid signature length\");\r\n\r\n        assembly {\r\n            /*\r\n            First 32 bytes stores the length of the signature\r\n\r\n            add(sig, 32) = pointer of sig + 32\r\n            effectively, skips first 32 bytes of signature\r\n\r\n            mload(p) loads next 32 bytes starting at the memory address p into memory\r\n            */\r\n\r\n            // first 32 bytes, after the length prefix\r\n            r := mload(add(sig, 32))\r\n            // second 32 bytes\r\n            s := mload(add(sig, 64))\r\n            // final byte (first byte of the next 32 bytes)\r\n            v := byte(0, mload(add(sig, 96)))\r\n        }\r\n\r\n        // implicitly return (r, s, v)\r\n    }\r\n}",
  "sourcePath": "/Users/alexho/Documents/GitHub/plp-smart-contracts/contracts/VerifySignaturePool01.sol",
  "compiler": {
    "name": "solc",
    "version": "0.8.3+commit.8d00100c.Emscripten.clang"
  },
  "schemaVersion": "3.4.4",
  "updatedAt": "2022-01-29T17:47:32.788Z",
  "devdoc": {
    "kind": "dev",
    "methods": {},
    "version": 1
  },
  "userdoc": {
    "kind": "user",
    "methods": {},
    "version": 1
  }
}